{
  "contractName": "AnimeBNB",
  "abi": [
    {
      "inputs": [],
      "stateMutability": "nonpayable",
      "type": "constructor"
    },
    {
      "anonymous": false,
      "inputs": [
        {
          "indexed": true,
          "internalType": "address",
          "name": "owner",
          "type": "address"
        },
        {
          "indexed": true,
          "internalType": "address",
          "name": "spender",
          "type": "address"
        },
        {
          "indexed": false,
          "internalType": "uint256",
          "name": "value",
          "type": "uint256"
        }
      ],
      "name": "Approval",
      "type": "event"
    },
    {
      "anonymous": false,
      "inputs": [
        {
          "indexed": true,
          "internalType": "address",
          "name": "account",
          "type": "address"
        },
        {
          "indexed": false,
          "internalType": "bool",
          "name": "isExcluded",
          "type": "bool"
        }
      ],
      "name": "ExcludeFromFees",
      "type": "event"
    },
    {
      "anonymous": false,
      "inputs": [
        {
          "indexed": false,
          "internalType": "address[]",
          "name": "accounts",
          "type": "address[]"
        },
        {
          "indexed": false,
          "internalType": "bool",
          "name": "isExcluded",
          "type": "bool"
        }
      ],
      "name": "ExcludeMultipleAccountsFromFees",
      "type": "event"
    },
    {
      "anonymous": false,
      "inputs": [
        {
          "indexed": true,
          "internalType": "uint256",
          "name": "newValue",
          "type": "uint256"
        },
        {
          "indexed": true,
          "internalType": "uint256",
          "name": "oldValue",
          "type": "uint256"
        }
      ],
      "name": "GasForProcessingUpdated",
      "type": "event"
    },
    {
      "anonymous": false,
      "inputs": [
        {
          "indexed": true,
          "internalType": "address",
          "name": "newLiquidityWallet",
          "type": "address"
        },
        {
          "indexed": true,
          "internalType": "address",
          "name": "oldLiquidityWallet",
          "type": "address"
        }
      ],
      "name": "LiquidityWalletUpdated",
      "type": "event"
    },
    {
      "anonymous": false,
      "inputs": [
        {
          "indexed": true,
          "internalType": "address",
          "name": "previousOwner",
          "type": "address"
        },
        {
          "indexed": true,
          "internalType": "address",
          "name": "newOwner",
          "type": "address"
        }
      ],
      "name": "OwnershipTransferred",
      "type": "event"
    },
    {
      "anonymous": false,
      "inputs": [
        {
          "indexed": true,
          "internalType": "address",
          "name": "newPreSaleWallet",
          "type": "address"
        },
        {
          "indexed": true,
          "internalType": "address",
          "name": "oldPreSaleWallet",
          "type": "address"
        }
      ],
      "name": "PreSaleWalletUpdated",
      "type": "event"
    },
    {
      "anonymous": false,
      "inputs": [
        {
          "indexed": false,
          "internalType": "uint256",
          "name": "iterations",
          "type": "uint256"
        },
        {
          "indexed": false,
          "internalType": "uint256",
          "name": "claims",
          "type": "uint256"
        },
        {
          "indexed": false,
          "internalType": "uint256",
          "name": "lastProcessedIndex",
          "type": "uint256"
        },
        {
          "indexed": true,
          "internalType": "bool",
          "name": "automatic",
          "type": "bool"
        },
        {
          "indexed": false,
          "internalType": "uint256",
          "name": "gas",
          "type": "uint256"
        },
        {
          "indexed": true,
          "internalType": "address",
          "name": "processor",
          "type": "address"
        }
      ],
      "name": "ProcessedDividendTracker",
      "type": "event"
    },
    {
      "anonymous": false,
      "inputs": [
        {
          "indexed": false,
          "internalType": "uint256",
          "name": "tokensSwapped",
          "type": "uint256"
        },
        {
          "indexed": false,
          "internalType": "uint256",
          "name": "amount",
          "type": "uint256"
        }
      ],
      "name": "SendDividends",
      "type": "event"
    },
    {
      "anonymous": false,
      "inputs": [
        {
          "indexed": true,
          "internalType": "address",
          "name": "pair",
          "type": "address"
        },
        {
          "indexed": true,
          "internalType": "bool",
          "name": "value",
          "type": "bool"
        }
      ],
      "name": "SetAutomatedMarketMakerPair",
      "type": "event"
    },
    {
      "anonymous": false,
      "inputs": [
        {
          "indexed": false,
          "internalType": "uint256",
          "name": "tokensSwapped",
          "type": "uint256"
        },
        {
          "indexed": false,
          "internalType": "uint256",
          "name": "ethReceived",
          "type": "uint256"
        },
        {
          "indexed": false,
          "internalType": "uint256",
          "name": "tokensIntoLiqudity",
          "type": "uint256"
        }
      ],
      "name": "SwapAndLiquify",
      "type": "event"
    },
    {
      "anonymous": false,
      "inputs": [
        {
          "indexed": true,
          "internalType": "address",
          "name": "from",
          "type": "address"
        },
        {
          "indexed": true,
          "internalType": "address",
          "name": "to",
          "type": "address"
        },
        {
          "indexed": false,
          "internalType": "uint256",
          "name": "value",
          "type": "uint256"
        }
      ],
      "name": "Transfer",
      "type": "event"
    },
    {
      "anonymous": false,
      "inputs": [
        {
          "indexed": true,
          "internalType": "address",
          "name": "newAddress",
          "type": "address"
        },
        {
          "indexed": true,
          "internalType": "address",
          "name": "oldAddress",
          "type": "address"
        }
      ],
      "name": "UpdateDividendTracker",
      "type": "event"
    },
    {
      "anonymous": false,
      "inputs": [
        {
          "indexed": true,
          "internalType": "address",
          "name": "newAddress",
          "type": "address"
        },
        {
          "indexed": true,
          "internalType": "address",
          "name": "oldAddress",
          "type": "address"
        }
      ],
      "name": "UpdateUniswapV2Router",
      "type": "event"
    },
    {
      "inputs": [],
      "name": "BNBRewardsFee",
      "outputs": [
        {
          "internalType": "uint256",
          "name": "",
          "type": "uint256"
        }
      ],
      "stateMutability": "view",
      "type": "function",
      "constant": true
    },
    {
      "inputs": [],
      "name": "MarketingUnlockedTimestamp",
      "outputs": [
        {
          "internalType": "uint256",
          "name": "",
          "type": "uint256"
        }
      ],
      "stateMutability": "view",
      "type": "function",
      "constant": true
    },
    {
      "inputs": [],
      "name": "PreSaleWallet",
      "outputs": [
        {
          "internalType": "address",
          "name": "",
          "type": "address"
        }
      ],
      "stateMutability": "view",
      "type": "function",
      "constant": true
    },
    {
      "inputs": [
        {
          "internalType": "address",
          "name": "owner",
          "type": "address"
        },
        {
          "internalType": "address",
          "name": "spender",
          "type": "address"
        }
      ],
      "name": "allowance",
      "outputs": [
        {
          "internalType": "uint256",
          "name": "",
          "type": "uint256"
        }
      ],
      "stateMutability": "view",
      "type": "function",
      "constant": true
    },
    {
      "inputs": [
        {
          "internalType": "address",
          "name": "spender",
          "type": "address"
        },
        {
          "internalType": "uint256",
          "name": "amount",
          "type": "uint256"
        }
      ],
      "name": "approve",
      "outputs": [
        {
          "internalType": "bool",
          "name": "",
          "type": "bool"
        }
      ],
      "stateMutability": "nonpayable",
      "type": "function"
    },
    {
      "inputs": [
        {
          "internalType": "address",
          "name": "",
          "type": "address"
        }
      ],
      "name": "automatedMarketMakerPairs",
      "outputs": [
        {
          "internalType": "bool",
          "name": "",
          "type": "bool"
        }
      ],
      "stateMutability": "view",
      "type": "function",
      "constant": true
    },
    {
      "inputs": [
        {
          "internalType": "address",
          "name": "account",
          "type": "address"
        }
      ],
      "name": "balanceOf",
      "outputs": [
        {
          "internalType": "uint256",
          "name": "",
          "type": "uint256"
        }
      ],
      "stateMutability": "view",
      "type": "function",
      "constant": true
    },
    {
      "inputs": [],
      "name": "decimals",
      "outputs": [
        {
          "internalType": "uint8",
          "name": "",
          "type": "uint8"
        }
      ],
      "stateMutability": "view",
      "type": "function",
      "constant": true
    },
    {
      "inputs": [
        {
          "internalType": "address",
          "name": "spender",
          "type": "address"
        },
        {
          "internalType": "uint256",
          "name": "subtractedValue",
          "type": "uint256"
        }
      ],
      "name": "decreaseAllowance",
      "outputs": [
        {
          "internalType": "bool",
          "name": "",
          "type": "bool"
        }
      ],
      "stateMutability": "nonpayable",
      "type": "function"
    },
    {
      "inputs": [],
      "name": "dividendTracker",
      "outputs": [
        {
          "internalType": "contract AnimeBNBDividendTracker",
          "name": "",
          "type": "address"
        }
      ],
      "stateMutability": "view",
      "type": "function",
      "constant": true
    },
    {
      "inputs": [],
      "name": "gasForProcessing",
      "outputs": [
        {
          "internalType": "uint256",
          "name": "",
          "type": "uint256"
        }
      ],
      "stateMutability": "view",
      "type": "function",
      "constant": true
    },
    {
      "inputs": [
        {
          "internalType": "address",
          "name": "spender",
          "type": "address"
        },
        {
          "internalType": "uint256",
          "name": "addedValue",
          "type": "uint256"
        }
      ],
      "name": "increaseAllowance",
      "outputs": [
        {
          "internalType": "bool",
          "name": "",
          "type": "bool"
        }
      ],
      "stateMutability": "nonpayable",
      "type": "function"
    },
    {
      "inputs": [],
      "name": "liquidityFee",
      "outputs": [
        {
          "internalType": "uint256",
          "name": "",
          "type": "uint256"
        }
      ],
      "stateMutability": "view",
      "type": "function",
      "constant": true
    },
    {
      "inputs": [],
      "name": "liquidityWallet",
      "outputs": [
        {
          "internalType": "address",
          "name": "",
          "type": "address"
        }
      ],
      "stateMutability": "view",
      "type": "function",
      "constant": true
    },
    {
      "inputs": [],
      "name": "maxSellTransactionAmount",
      "outputs": [
        {
          "internalType": "uint256",
          "name": "",
          "type": "uint256"
        }
      ],
      "stateMutability": "view",
      "type": "function",
      "constant": true
    },
    {
      "inputs": [],
      "name": "name",
      "outputs": [
        {
          "internalType": "string",
          "name": "",
          "type": "string"
        }
      ],
      "stateMutability": "view",
      "type": "function",
      "constant": true
    },
    {
      "inputs": [],
      "name": "owner",
      "outputs": [
        {
          "internalType": "address",
          "name": "",
          "type": "address"
        }
      ],
      "stateMutability": "view",
      "type": "function",
      "constant": true
    },
    {
      "inputs": [],
      "name": "renounceOwnership",
      "outputs": [],
      "stateMutability": "nonpayable",
      "type": "function"
    },
    {
      "inputs": [],
      "name": "sellFeeIncreaseFactor",
      "outputs": [
        {
          "internalType": "uint256",
          "name": "",
          "type": "uint256"
        }
      ],
      "stateMutability": "view",
      "type": "function",
      "constant": true
    },
    {
      "inputs": [],
      "name": "swapTokensAtAmount",
      "outputs": [
        {
          "internalType": "uint256",
          "name": "",
          "type": "uint256"
        }
      ],
      "stateMutability": "view",
      "type": "function",
      "constant": true
    },
    {
      "inputs": [],
      "name": "symbol",
      "outputs": [
        {
          "internalType": "string",
          "name": "",
          "type": "string"
        }
      ],
      "stateMutability": "view",
      "type": "function",
      "constant": true
    },
    {
      "inputs": [],
      "name": "totalFees",
      "outputs": [
        {
          "internalType": "uint256",
          "name": "",
          "type": "uint256"
        }
      ],
      "stateMutability": "view",
      "type": "function",
      "constant": true
    },
    {
      "inputs": [],
      "name": "totalSupply",
      "outputs": [
        {
          "internalType": "uint256",
          "name": "",
          "type": "uint256"
        }
      ],
      "stateMutability": "view",
      "type": "function",
      "constant": true
    },
    {
      "inputs": [],
      "name": "tradingEnabledTimestamp",
      "outputs": [
        {
          "internalType": "uint256",
          "name": "",
          "type": "uint256"
        }
      ],
      "stateMutability": "view",
      "type": "function",
      "constant": true
    },
    {
      "inputs": [
        {
          "internalType": "address",
          "name": "recipient",
          "type": "address"
        },
        {
          "internalType": "uint256",
          "name": "amount",
          "type": "uint256"
        }
      ],
      "name": "transfer",
      "outputs": [
        {
          "internalType": "bool",
          "name": "",
          "type": "bool"
        }
      ],
      "stateMutability": "nonpayable",
      "type": "function"
    },
    {
      "inputs": [
        {
          "internalType": "address",
          "name": "sender",
          "type": "address"
        },
        {
          "internalType": "address",
          "name": "recipient",
          "type": "address"
        },
        {
          "internalType": "uint256",
          "name": "amount",
          "type": "uint256"
        }
      ],
      "name": "transferFrom",
      "outputs": [
        {
          "internalType": "bool",
          "name": "",
          "type": "bool"
        }
      ],
      "stateMutability": "nonpayable",
      "type": "function"
    },
    {
      "inputs": [
        {
          "internalType": "address",
          "name": "newOwner",
          "type": "address"
        }
      ],
      "name": "transferOwnership",
      "outputs": [],
      "stateMutability": "nonpayable",
      "type": "function"
    },
    {
      "inputs": [],
      "name": "uniswapV2Pair",
      "outputs": [
        {
          "internalType": "address",
          "name": "",
          "type": "address"
        }
      ],
      "stateMutability": "view",
      "type": "function",
      "constant": true
    },
    {
      "inputs": [],
      "name": "uniswapV2Router",
      "outputs": [
        {
          "internalType": "contract IUniswapV2Router02",
          "name": "",
          "type": "address"
        }
      ],
      "stateMutability": "view",
      "type": "function",
      "constant": true
    },
    {
      "stateMutability": "payable",
      "type": "receive",
      "payable": true
    },
    {
      "inputs": [
        {
          "internalType": "address",
          "name": "newAddress",
          "type": "address"
        }
      ],
      "name": "updateDividendTracker",
      "outputs": [],
      "stateMutability": "nonpayable",
      "type": "function"
    },
    {
      "inputs": [
        {
          "internalType": "address",
          "name": "newAddress",
          "type": "address"
        }
      ],
      "name": "updateUniswapV2Router",
      "outputs": [],
      "stateMutability": "nonpayable",
      "type": "function"
    },
    {
      "inputs": [
        {
          "internalType": "address",
          "name": "account",
          "type": "address"
        },
        {
          "internalType": "bool",
          "name": "excluded",
          "type": "bool"
        }
      ],
      "name": "excludeFromFees",
      "outputs": [],
      "stateMutability": "nonpayable",
      "type": "function"
    },
    {
      "inputs": [
        {
          "internalType": "address[]",
          "name": "accounts",
          "type": "address[]"
        },
        {
          "internalType": "bool",
          "name": "excluded",
          "type": "bool"
        }
      ],
      "name": "excludeMultipleAccountsFromFees",
      "outputs": [],
      "stateMutability": "nonpayable",
      "type": "function"
    },
    {
      "inputs": [
        {
          "internalType": "address",
          "name": "pair",
          "type": "address"
        },
        {
          "internalType": "bool",
          "name": "value",
          "type": "bool"
        }
      ],
      "name": "setAutomatedMarketMakerPair",
      "outputs": [],
      "stateMutability": "nonpayable",
      "type": "function"
    },
    {
      "inputs": [
        {
          "internalType": "address",
          "name": "newLiquidityWallet",
          "type": "address"
        }
      ],
      "name": "updateLiquidityWallet",
      "outputs": [],
      "stateMutability": "nonpayable",
      "type": "function"
    },
    {
      "inputs": [
        {
          "internalType": "uint256",
          "name": "newValue",
          "type": "uint256"
        }
      ],
      "name": "updateGasForProcessing",
      "outputs": [],
      "stateMutability": "nonpayable",
      "type": "function"
    },
    {
      "inputs": [
        {
          "internalType": "uint256",
          "name": "claimWait",
          "type": "uint256"
        }
      ],
      "name": "updateClaimWait",
      "outputs": [],
      "stateMutability": "nonpayable",
      "type": "function"
    },
    {
      "inputs": [],
      "name": "getClaimWait",
      "outputs": [
        {
          "internalType": "uint256",
          "name": "",
          "type": "uint256"
        }
      ],
      "stateMutability": "view",
      "type": "function",
      "constant": true
    },
    {
      "inputs": [],
      "name": "getMarketingLock",
      "outputs": [
        {
          "internalType": "uint256",
          "name": "",
          "type": "uint256"
        }
      ],
      "stateMutability": "view",
      "type": "function",
      "constant": true
    },
    {
      "inputs": [],
      "name": "getTotalDividendsDistributed",
      "outputs": [
        {
          "internalType": "uint256",
          "name": "",
          "type": "uint256"
        }
      ],
      "stateMutability": "view",
      "type": "function",
      "constant": true
    },
    {
      "inputs": [
        {
          "internalType": "address",
          "name": "account",
          "type": "address"
        }
      ],
      "name": "isExcludedFromFees",
      "outputs": [
        {
          "internalType": "bool",
          "name": "",
          "type": "bool"
        }
      ],
      "stateMutability": "view",
      "type": "function",
      "constant": true
    },
    {
      "inputs": [
        {
          "internalType": "address",
          "name": "account",
          "type": "address"
        }
      ],
      "name": "withdrawableDividendOf",
      "outputs": [
        {
          "internalType": "uint256",
          "name": "",
          "type": "uint256"
        }
      ],
      "stateMutability": "view",
      "type": "function",
      "constant": true
    },
    {
      "inputs": [
        {
          "internalType": "address",
          "name": "account",
          "type": "address"
        }
      ],
      "name": "dividendTokenBalanceOf",
      "outputs": [
        {
          "internalType": "uint256",
          "name": "",
          "type": "uint256"
        }
      ],
      "stateMutability": "view",
      "type": "function",
      "constant": true
    },
    {
      "inputs": [
        {
          "internalType": "address",
          "name": "account",
          "type": "address"
        }
      ],
      "name": "getAccountDividendsInfo",
      "outputs": [
        {
          "internalType": "address",
          "name": "",
          "type": "address"
        },
        {
          "internalType": "int256",
          "name": "",
          "type": "int256"
        },
        {
          "internalType": "int256",
          "name": "",
          "type": "int256"
        },
        {
          "internalType": "uint256",
          "name": "",
          "type": "uint256"
        },
        {
          "internalType": "uint256",
          "name": "",
          "type": "uint256"
        },
        {
          "internalType": "uint256",
          "name": "",
          "type": "uint256"
        },
        {
          "internalType": "uint256",
          "name": "",
          "type": "uint256"
        },
        {
          "internalType": "uint256",
          "name": "",
          "type": "uint256"
        }
      ],
      "stateMutability": "view",
      "type": "function",
      "constant": true
    },
    {
      "inputs": [
        {
          "internalType": "uint256",
          "name": "index",
          "type": "uint256"
        }
      ],
      "name": "getAccountDividendsInfoAtIndex",
      "outputs": [
        {
          "internalType": "address",
          "name": "",
          "type": "address"
        },
        {
          "internalType": "int256",
          "name": "",
          "type": "int256"
        },
        {
          "internalType": "int256",
          "name": "",
          "type": "int256"
        },
        {
          "internalType": "uint256",
          "name": "",
          "type": "uint256"
        },
        {
          "internalType": "uint256",
          "name": "",
          "type": "uint256"
        },
        {
          "internalType": "uint256",
          "name": "",
          "type": "uint256"
        },
        {
          "internalType": "uint256",
          "name": "",
          "type": "uint256"
        },
        {
          "internalType": "uint256",
          "name": "",
          "type": "uint256"
        }
      ],
      "stateMutability": "view",
      "type": "function",
      "constant": true
    },
    {
      "inputs": [
        {
          "internalType": "uint256",
          "name": "gas",
          "type": "uint256"
        }
      ],
      "name": "processDividendTracker",
      "outputs": [],
      "stateMutability": "nonpayable",
      "type": "function"
    },
    {
      "inputs": [],
      "name": "claim",
      "outputs": [],
      "stateMutability": "nonpayable",
      "type": "function"
    },
    {
      "inputs": [],
      "name": "getLastProcessedIndex",
      "outputs": [
        {
          "internalType": "uint256",
          "name": "",
          "type": "uint256"
        }
      ],
      "stateMutability": "view",
      "type": "function",
      "constant": true
    },
    {
      "inputs": [],
      "name": "getNumberOfDividendTokenHolders",
      "outputs": [
        {
          "internalType": "uint256",
          "name": "",
          "type": "uint256"
        }
      ],
      "stateMutability": "view",
      "type": "function",
      "constant": true
    },
    {
      "inputs": [],
      "name": "getTradingIsEnabled",
      "outputs": [
        {
          "internalType": "bool",
          "name": "",
          "type": "bool"
        }
      ],
      "stateMutability": "view",
      "type": "function",
      "constant": true
    },
    {
      "inputs": [],
      "name": "getMarketingWalletUnlocked",
      "outputs": [
        {
          "internalType": "bool",
          "name": "",
          "type": "bool"
        }
      ],
      "stateMutability": "view",
      "type": "function",
      "constant": true
    }
  ],
  "bytecode": "0x61014060405269d3c21bcecceda1000000600b55692a5a058fc295ed000000600c55607861010052620493e0600d556361102758610120523480156200004457600080fd5b506040518060400160405280600881526020016720b734b6b2a1272160c11b8152506040518060400160405280600381526020016220a72160e91b81525081600390805190602001906200009a929190620009f6565b508051620000b0906004906020840190620009f6565b5050506000620000c5620005f860201b60201c565b600580546001600160a01b0319166001600160a01b038316908117909155604051919250906000907f8be0079c531659141344cd1fd0a4f28419497f9722a3daafe3b4186f6b6457e0908290a350600a60a0819052600360c0819052620001398282620005fc602090811b620020a617901c565b60e05263621d7e20600955604051620001529062000a7b565b604051809103906000f0801580156200016f573d6000803e3d6000fd5b50600880546001600160a01b0319166001600160a01b03929092169190911790556200019a6200065e565b600a60006101000a8154816001600160a01b0302191690836001600160a01b031602179055506000739ac64cc6e4415144c455bd8e4837fea55603e5c390506000816001600160a01b031663c45a01556040518163ffffffff1660e01b815260040160206040518083038186803b1580156200021557600080fd5b505afa1580156200022a573d6000803e3d6000fd5b505050506040513d60208110156200024157600080fd5b5051604080516315ab88c960e31b815290516001600160a01b039283169263c9c653969230929187169163ad5c464891600480820192602092909190829003018186803b1580156200029257600080fd5b505afa158015620002a7573d6000803e3d6000fd5b505050506040513d6020811015620002be57600080fd5b5051604080516001600160e01b031960e086901b1681526001600160a01b0393841660048201529290911660248301525160448083019260209291908290030181600087803b1580156200031157600080fd5b505af115801562000326573d6000803e3d6000fd5b505050506040513d60208110156200033d57600080fd5b5051600680546001600160a01b0319166001600160a01b038516179055606081901b6001600160601b03191660805290506200037b8160016200066d565b732bc8055223c0424cb91dc0d3fff6c031afb2ac77600090815260106020527f5e841a8b9250dbeb4010aa995f7a4fd176688eb3833175b7dbd8ebd6fbf018da805460ff191660011790556008546040805163031e79db60e41b81526001600160a01b039290921660048301819052905190926331e79db0926024808201939182900301818387803b1580156200041157600080fd5b505af115801562000426573d6000803e3d6000fd5b50506008546040805163031e79db60e41b815230600482015290516001600160a01b0390921693506331e79db0925060248082019260009290919082900301818387803b1580156200047757600080fd5b505af11580156200048c573d6000803e3d6000fd5b50506008546001600160a01b031691506331e79db09050620004ad6200065e565b6040518263ffffffff1660e01b815260040180826001600160a01b03168152602001915050600060405180830381600087803b158015620004ed57600080fd5b505af115801562000502573d6000803e3d6000fd5b50506008546040805163031e79db60e41b81526001600160a01b03878116600483015291519190921693506331e79db09250602480830192600092919082900301818387803b1580156200055557600080fd5b505af11580156200056a573d6000803e3d6000fd5b5050600a546200058892506001600160a01b031690506001620007a0565b62000595306001620007a0565b6001600f6000620005a56200065e565b6001600160a01b031681526020810191909152604001600020805460ff1916911515919091179055620005ee620005db6200065e565b6b033b2e3c9fd0803ce8000000620008e2565b5050505062000aa0565b3390565b60008282018381101562000657576040805162461bcd60e51b815260206004820152601b60248201527f536166654d6174683a206164646974696f6e206f766572666c6f770000000000604482015290519081900360640190fd5b9392505050565b6005546001600160a01b031690565b6001600160a01b03821660009081526011602052604090205460ff1615158115151415620006cd5760405162461bcd60e51b81526004018080602001828103825260258152602001806200618c6025913960400191505060405180910390fd5b6001600160a01b0382166000908152601160205260409020805460ff1916821580159190911790915562000764576008546040805163031e79db60e41b81526001600160a01b038581166004830152915191909216916331e79db091602480830192600092919082900301818387803b1580156200074a57600080fd5b505af11580156200075f573d6000803e3d6000fd5b505050505b604051811515906001600160a01b038416907fffa9187bf1f18bf477bd0ea1bcbb64e93b6a98132473929edfce215cd9b16fab90600090a35050565b620007aa620005f8565b6005546001600160a01b039081169116146200080d576040805162461bcd60e51b815260206004820181905260248201527f4f776e61626c653a2063616c6c6572206973206e6f7420746865206f776e6572604482015290519081900360640190fd5b6001600160a01b0382166000908152600e602052604090205460ff161515811515141562000882576040805162461bcd60e51b815260206004820152601a60248201527f414e423a204163636f756e7420697320276578636c7564656427000000000000604482015290519081900360640190fd5b6001600160a01b0382166000818152600e6020908152604091829020805460ff1916851515908117909155825190815291517f9d8f7706ea1113d1a167b526eca956215946dd36cc7df39eb16180222d8b5df79281900390910190a25050565b6001600160a01b0382166200093e576040805162461bcd60e51b815260206004820152601f60248201527f45524332303a206d696e7420746f20746865207a65726f206164647265737300604482015290519081900360640190fd5b6200094c60008383620009f1565b6200096881600254620005fc60201b620020a61790919060201c565b6002556001600160a01b038216600090815260208181526040909120546200099b918390620020a6620005fc821b17901c565b6001600160a01b0383166000818152602081815260408083209490945583518581529351929391927fddf252ad1be2c89b69c2b068fc378daa952ba7f163c4a11628f55a4df523b3ef9281900390910190a35050565b505050565b828054600181600116156101000203166002900490600052602060002090601f016020900481019282601f1062000a3957805160ff191683800117855562000a69565b8280016001018555821562000a69579182015b8281111562000a6957825182559160200191906001019062000a4c565b5062000a7792915062000a89565b5090565b61235e8062003e2e83390190565b5b8082111562000a77576000815560010162000a8a565b60805160601c60a05160c05160e051610100516101205161332362000b0b60003980610cfd5280610e1d525080610c52528061267c525080610c13528061253252806126295250806117645280612557525080611cb4525080610df952806117e052506133236000f3fe6080604052600436106102e85760003560e01c806378fbe50611610190578063b62496f5116100dc578063dd62ed3e11610095578063e7841ec01161006f578063e7841ec014610abb578063e98030c714610ad0578063f27fd25414610afa578063f2fde38b14610b24576102ef565b8063dd62ed3e14610a38578063e2f4560514610a73578063e37ba8f914610a88576102ef565b8063b62496f51461090c578063c02466681461093f578063c492f0461461097a578063d01f5816146109f9578063d3a18f4514610a0e578063d469801614610a23576102ef565b80639a7a23d611610149578063a457c2d711610123578063a457c2d7146107e9578063a8b9d24014610822578063a9059cbb14610855578063ad56c13c1461088e576102ef565b80639a7a23d6146107845780639c1b8af5146107bf578063a26579ad146107d4576102ef565b806378fbe506146106d3578063871c128d146106e857806388bdd9be146107125780638da5cb5b1461074557806395d89b411461075a57806398118cb41461076f576102ef565b8063313ce5671161024f57806362a90d59116102085780636843cd84116101e25780636843cd841461062e578063700bb1911461066157806370a082311461068b578063715018a6146106be576102ef565b806362a90d59146105d157806364b0f653146105e657806365b8dbc0146105fb576102ef565b8063313ce567146104f9578063395093511461052457806349bd5a5e1461055d5780634d33b1ef146105725780634e71d92d146105875780634fbee1931461059e576102ef565b806318160ddd116102a157806318160ddd1461044d57806322bd3f7f1461046257806323b872dd1461047757806325b61703146104ba5780632c1f5216146104cf57806330bb4cff146104e4576102ef565b806302259e9e146102f457806306fdde031461031b578063095ea7b3146103a557806313114a9d146103f2578063136b1885146104075780631694505e1461041c576102ef565b366102ef57005b600080fd5b34801561030057600080fd5b50610309610b57565b60408051918252519081900360200190f35b34801561032757600080fd5b50610330610b5d565b6040805160208082528351818301528351919283929083019185019080838360005b8381101561036a578181015183820152602001610352565b50505050905090810190601f1680156103975780820380516001836020036101000a031916815260200191505b509250505060405180910390f35b3480156103b157600080fd5b506103de600480360360408110156103c857600080fd5b506001600160a01b038135169060200135610bf3565b604080519115158252519081900360200190f35b3480156103fe57600080fd5b50610309610c11565b34801561041357600080fd5b50610309610c35565b34801561042857600080fd5b50610431610c3b565b604080516001600160a01b039092168252519081900360200190f35b34801561045957600080fd5b50610309610c4a565b34801561046e57600080fd5b50610309610c50565b34801561048357600080fd5b506103de6004803603606081101561049a57600080fd5b506001600160a01b03813581169160208101359091169060400135610c74565b3480156104c657600080fd5b50610309610cfb565b3480156104db57600080fd5b50610431610d1f565b3480156104f057600080fd5b50610309610d2e565b34801561050557600080fd5b5061050e610da4565b6040805160ff9092168252519081900360200190f35b34801561053057600080fd5b506103de6004803603604081101561054757600080fd5b506001600160a01b038135169060200135610da9565b34801561056957600080fd5b50610431610df7565b34801561057e57600080fd5b506103de610e1b565b34801561059357600080fd5b5061059c610e42565b005b3480156105aa57600080fd5b506103de600480360360208110156105c157600080fd5b50356001600160a01b0316610ec7565b3480156105dd57600080fd5b50610309610ee5565b3480156105f257600080fd5b50610309610eeb565b34801561060757600080fd5b5061059c6004803603602081101561061e57600080fd5b50356001600160a01b0316610f30565b34801561063a57600080fd5b506103096004803603602081101561065157600080fd5b50356001600160a01b0316611032565b34801561066d57600080fd5b5061059c6004803603602081101561068457600080fd5b50356110b5565b34801561069757600080fd5b50610309600480360360208110156106ae57600080fd5b50356001600160a01b031661119c565b3480156106ca57600080fd5b5061059c6111b7565b3480156106df57600080fd5b50610431611259565b3480156106f457600080fd5b5061059c6004803603602081101561070b57600080fd5b5035611268565b34801561071e57600080fd5b5061059c6004803603602081101561073557600080fd5b50356001600160a01b031661139b565b34801561075157600080fd5b506104316116f2565b34801561076657600080fd5b50610330611701565b34801561077b57600080fd5b50610309611762565b34801561079057600080fd5b5061059c600480360360408110156107a757600080fd5b506001600160a01b0381351690602001351515611786565b3480156107cb57600080fd5b50610309611859565b3480156107e057600080fd5b5061030961185f565b3480156107f557600080fd5b506103de6004803603604081101561080c57600080fd5b506001600160a01b0381351690602001356118a4565b34801561082e57600080fd5b506103096004803603602081101561084557600080fd5b50356001600160a01b031661190c565b34801561086157600080fd5b506103de6004803603604081101561087857600080fd5b506001600160a01b03813516906020013561195d565b34801561089a57600080fd5b506108c1600480360360208110156108b157600080fd5b50356001600160a01b0316611971565b604080516001600160a01b0390991689526020890197909752878701959095526060870193909352608086019190915260a085015260c084015260e083015251908190036101000190f35b34801561091857600080fd5b506103de6004803603602081101561092f57600080fd5b50356001600160a01b0316611a51565b34801561094b57600080fd5b5061059c6004803603604081101561096257600080fd5b506001600160a01b0381351690602001351515611a66565b34801561098657600080fd5b5061059c6004803603604081101561099d57600080fd5b8101906020810181356401000000008111156109b857600080fd5b8201836020820111156109ca57600080fd5b803590602001918460208302840111640100000000831117156109ec57600080fd5b9193509150351515611b92565b348015610a0557600080fd5b50610309611cb2565b348015610a1a57600080fd5b506103de611cd6565b348015610a2f57600080fd5b50610431611cdf565b348015610a4457600080fd5b5061030960048036036040811015610a5b57600080fd5b506001600160a01b0381358116916020013516611cee565b348015610a7f57600080fd5b50610309611d19565b348015610a9457600080fd5b5061059c60048036036020811015610aab57600080fd5b50356001600160a01b0316611d1f565b348015610ac757600080fd5b50610309611e42565b348015610adc57600080fd5b5061059c60048036036020811015610af357600080fd5b5035611e87565b348015610b0657600080fd5b506108c160048036036020811015610b1d57600080fd5b5035611f47565b348015610b3057600080fd5b5061059c60048036036020811015610b4757600080fd5b50356001600160a01b0316611fad565b600b5481565b60038054604080516020601f6002600019610100600188161502019095169490940493840181900481028201810190925282815260609390929091830182828015610be95780601f10610bbe57610100808354040283529160200191610be9565b820191906000526020600020905b815481529060010190602001808311610bcc57829003601f168201915b5050505050905090565b6000610c07610c00612107565b848461210b565b5060015b92915050565b7f000000000000000000000000000000000000000000000000000000000000000081565b60095481565b6006546001600160a01b031681565b60025490565b7f000000000000000000000000000000000000000000000000000000000000000081565b6000610c818484846121f7565b610cf184610c8d612107565b610cec8560405180606001604052806028815260200161315c602891396001600160a01b038a16600090815260016020526040812090610ccb612107565b6001600160a01b0316815260208101919091526040016000205491906128ac565b61210b565b5060019392505050565b7f000000000000000000000000000000000000000000000000000000000000000081565b6008546001600160a01b031681565b600854604080516342d359d760e11b815290516000926001600160a01b0316916385a6b3ae916004808301926020929190829003018186803b158015610d7357600080fd5b505afa158015610d87573d6000803e3d6000fd5b505050506040513d6020811015610d9d57600080fd5b5051905090565b601290565b6000610c07610db6612107565b84610cec8560016000610dc7612107565b6001600160a01b03908116825260208083019390935260409182016000908120918c1681529252902054906120a6565b7f000000000000000000000000000000000000000000000000000000000000000081565b7f000000000000000000000000000000000000000000000000000000000000000042101590565b6008546040805163bc4c4b3760e01b815233600482015260006024820181905291516001600160a01b039093169263bc4c4b3792604480840193602093929083900390910190829087803b158015610e9957600080fd5b505af1158015610ead573d6000803e3d6000fd5b505050506040513d6020811015610ec357600080fd5b5050565b6001600160a01b03166000908152600e602052604090205460ff1690565b60095490565b600854604080516304ddf6ef60e11b815290516000926001600160a01b0316916309bbedde916004808301926020929190829003018186803b158015610d7357600080fd5b610f38612107565b6005546001600160a01b03908116911614610f88576040805162461bcd60e51b81526020600482018190526024820152600080516020613184833981519152604482015290519081900360640190fd5b6006546001600160a01b0382811691161415610fd55760405162461bcd60e51b81526004018080602001828103825260248152602001806132106024913960400191505060405180910390fd5b6006546040516001600160a01b03918216918316907f8fc842bbd331dfa973645f4ed48b11683d501ebf1352708d77a5da2ab49a576e90600090a3600680546001600160a01b0319166001600160a01b0392909216919091179055565b600854604080516370a0823160e01b81526001600160a01b038481166004830152915160009392909216916370a0823191602480820192602092909190829003018186803b15801561108357600080fd5b505afa158015611097573d6000803e3d6000fd5b505050506040513d60208110156110ad57600080fd5b505192915050565b600854604080516001624d3b8760e01b03198152600481018490529051600092839283926001600160a01b039092169163ffb2c4799160248082019260609290919082900301818787803b15801561110c57600080fd5b505af1158015611120573d6000803e3d6000fd5b505050506040513d606081101561113657600080fd5b5080516020808301516040938401518451848152928301829052828501819052606083018990529351929650945091925032916000917fc864333d6121033635ab41b29ae52f10a22cf4438c3e4f1c4c68518feb2f8a989181900360800190a350505050565b6001600160a01b031660009081526020819052604090205490565b6111bf612107565b6005546001600160a01b0390811691161461120f576040805162461bcd60e51b81526020600482018190526024820152600080516020613184833981519152604482015290519081900360640190fd5b6005546040516000916001600160a01b0316907f8be0079c531659141344cd1fd0a4f28419497f9722a3daafe3b4186f6b6457e0908390a3600580546001600160a01b0319169055565b6007546001600160a01b031681565b611270612107565b6005546001600160a01b039081169116146112c0576040805162461bcd60e51b81526020600482018190526024820152600080516020613184833981519152604482015290519081900360640190fd5b62030d4081101580156112d657506207a1208111155b6113115760405162461bcd60e51b81526004018080602001828103825260228152602001806131c96022913960400191505060405180910390fd5b600d54811415611368576040805162461bcd60e51b815260206004820181905260248201527f414e423a2043616e6e6f742075706461746520746f2073616d652076616c7565604482015290519081900360640190fd5b600d5460405182907f40d7e40e79af4e8e5a9b3c57030d8ea93f13d669c06d448c4d631d4ae7d23db790600090a3600d55565b6113a3612107565b6005546001600160a01b039081169116146113f3576040805162461bcd60e51b81526020600482018190526024820152600080516020613184833981519152604482015290519081900360640190fd5b6008546001600160a01b03828116911614156114405760405162461bcd60e51b81526004018080602001828103825260258152602001806131a46025913960400191505060405180910390fd5b6000819050306001600160a01b0316816001600160a01b0316638da5cb5b6040518163ffffffff1660e01b815260040160206040518083038186803b15801561148857600080fd5b505afa15801561149c573d6000803e3d6000fd5b505050506040513d60208110156114b257600080fd5b50516001600160a01b0316146114f95760405162461bcd60e51b815260040180806020018281038252602a81526020018061327d602a913960400191505060405180910390fd5b806001600160a01b03166331e79db0826040518263ffffffff1660e01b815260040180826001600160a01b03168152602001915050600060405180830381600087803b15801561154857600080fd5b505af115801561155c573d6000803e3d6000fd5b50506040805163031e79db60e41b815230600482015290516001600160a01b03851693506331e79db09250602480830192600092919082900301818387803b1580156115a757600080fd5b505af11580156115bb573d6000803e3d6000fd5b50505050806001600160a01b03166331e79db06115d66116f2565b6040518263ffffffff1660e01b815260040180826001600160a01b03168152602001915050600060405180830381600087803b15801561161557600080fd5b505af1158015611629573d6000803e3d6000fd5b50506006546040805163031e79db60e41b81526001600160a01b039283166004820152905191851693506331e79db0925060248082019260009290919082900301818387803b15801561167b57600080fd5b505af115801561168f573d6000803e3d6000fd5b50506008546040516001600160a01b03918216935090851691507f90c7d74461c613da5efa97d90740869367d74ab3aa5837aa4ae9a975f954b7a890600090a3600880546001600160a01b0319166001600160a01b039290921691909117905550565b6005546001600160a01b031690565b60048054604080516020601f6002600019610100600188161502019095169490940493840181900481028201810190925282815260609390929091830182828015610be95780601f10610bbe57610100808354040283529160200191610be9565b7f000000000000000000000000000000000000000000000000000000000000000081565b61178e612107565b6005546001600160a01b039081169116146117de576040805162461bcd60e51b81526020600482018190526024820152600080516020613184833981519152604482015290519081900360640190fd5b7f00000000000000000000000000000000000000000000000000000000000000006001600160a01b0316826001600160a01b0316141561184f5760405162461bcd60e51b81526004018080602001828103825260228152602001806132a76022913960400191505060405180910390fd5b610ec38282612943565b600d5481565b60085460408051631bc9e27b60e21b815290516000926001600160a01b031691636f2789ec916004808301926020929190829003018186803b158015610d7357600080fd5b6000610c076118b1612107565b84610cec856040518060600160405280602581526020016132c960259139600160006118db612107565b6001600160a01b03908116825260208083019390935260409182016000908120918d168152925290205491906128ac565b600854604080516302a2e74960e61b81526001600160a01b0384811660048301529151600093929092169163a8b9d24091602480820192602092909190829003018186803b15801561108357600080fd5b6000610c0761196a612107565b84846121f7565b600080600080600080600080600860009054906101000a90046001600160a01b03166001600160a01b031663fbcbc0f18a6040518263ffffffff1660e01b815260040180826001600160a01b031681526020019150506101006040518083038186803b1580156119e057600080fd5b505afa1580156119f4573d6000803e3d6000fd5b505050506040513d610100811015611a0b57600080fd5b508051602082015160408301516060840151608085015160a086015160c087015160e090970151959e50939c50919a509850965094509092509050919395975091939597565b60116020526000908152604090205460ff1681565b611a6e612107565b6005546001600160a01b03908116911614611abe576040805162461bcd60e51b81526020600482018190526024820152600080516020613184833981519152604482015290519081900360640190fd5b6001600160a01b0382166000908152600e602052604090205460ff1615158115151415611b32576040805162461bcd60e51b815260206004820152601a60248201527f414e423a204163636f756e7420697320276578636c7564656427000000000000604482015290519081900360640190fd5b6001600160a01b0382166000818152600e6020908152604091829020805460ff1916851515908117909155825190815291517f9d8f7706ea1113d1a167b526eca956215946dd36cc7df39eb16180222d8b5df79281900390910190a25050565b611b9a612107565b6005546001600160a01b03908116911614611bea576040805162461bcd60e51b81526020600482018190526024820152600080516020613184833981519152604482015290519081900360640190fd5b60005b82811015611c3f5781600e6000868685818110611c0657fe5b602090810292909201356001600160a01b0316835250810191909152604001600020805460ff1916911515919091179055600101611bed565b507f7fdaf542373fa84f4ee8d662c642f44e4c2276a217d7d29e548b6eb29a233b35838383604051808060200183151581526020018281038252858582818152602001925060200280828437600083820152604051601f909101601f1916909201829003965090945050505050a1505050565b7f000000000000000000000000000000000000000000000000000000000000000081565b60095442101590565b600a546001600160a01b031681565b6001600160a01b03918216600090815260016020908152604080832093909416825291909152205490565b600c5481565b611d27612107565b6005546001600160a01b03908116911614611d77576040805162461bcd60e51b81526020600482018190526024820152600080516020613184833981519152604482015290519081900360640190fd5b600a546001600160a01b0382811691161415611dda576040805162461bcd60e51b815260206004820152601f60248201527f414e423a204c5020697320616c72656164792074686973206164647265737300604482015290519081900360640190fd5b611de5816001611a66565b600a546040516001600160a01b03918216918316907f6080503d1da552ae8eb4b7b8a20245d9fabed014180510e7d1a05ea08fdb0f3e90600090a3600a80546001600160a01b0319166001600160a01b0392909216919091179055565b6008546040805163039e107b60e61b815290516000926001600160a01b03169163e7841ec0916004808301926020929190829003018186803b158015610d7357600080fd5b611e8f612107565b6005546001600160a01b03908116911614611edf576040805162461bcd60e51b81526020600482018190526024820152600080516020613184833981519152604482015290519081900360640190fd5b6008546040805163e98030c760e01b81526004810184905290516001600160a01b039092169163e98030c79160248082019260009290919082900301818387803b158015611f2c57600080fd5b505af1158015611f40573d6000803e3d6000fd5b5050505050565b600080600080600080600080600860009054906101000a90046001600160a01b03166001600160a01b0316635183d6fd8a6040518263ffffffff1660e01b8152600401808281526020019150506101006040518083038186803b1580156119e057600080fd5b611fb5612107565b6005546001600160a01b03908116911614612005576040805162461bcd60e51b81526020600482018190526024820152600080516020613184833981519152604482015290519081900360640190fd5b6001600160a01b03811661204a5760405162461bcd60e51b81526004018080602001828103825260268152602001806130cd6026913960400191505060405180910390fd5b6005546040516001600160a01b038084169216907f8be0079c531659141344cd1fd0a4f28419497f9722a3daafe3b4186f6b6457e090600090a3600580546001600160a01b0319166001600160a01b0392909216919091179055565b600082820183811015612100576040805162461bcd60e51b815260206004820152601b60248201527f536166654d6174683a206164646974696f6e206f766572666c6f770000000000604482015290519081900360640190fd5b9392505050565b3390565b6001600160a01b0383166121505760405162461bcd60e51b81526004018080602001828103825260248152602001806132596024913960400191505060405180910390fd5b6001600160a01b0382166121955760405162461bcd60e51b81526004018080602001828103825260228152602001806130f36022913960400191505060405180910390fd5b6001600160a01b03808416600081815260016020908152604080832094871680845294825291829020859055815185815291517f8c5be1e5ebec7d5bd14f71427d1e84f3dd0314c0f7b2291e5b200ac8c7c3b9259281900390910190a3505050565b6001600160a01b038316612252576040805162461bcd60e51b815260206004820152601860248201527f45524332303a2066726f6d207a65726f20616464726573730000000000000000604482015290519081900360640190fd5b6001600160a01b0382166122a6576040805162461bcd60e51b815260206004820152601660248201527545524332303a20746f207a65726f206164647265737360501b604482015290519081900360640190fd5b60006122b0610e1b565b905060006122bc611cd6565b905081612330576001600160a01b0385166000908152600f602052604090205460ff16612330576040805162461bcd60e51b815260206004820152601860248201527f414e423a2054726164696e672069732064697361626c65640000000000000000604482015290519081900360640190fd5b806123a3576001600160a01b03851660009081526010602052604090205460ff16156123a3576040805162461bcd60e51b815260206004820152601760248201527f414e423a20556e6c6f636b732030332f30312f32303232000000000000000000604482015290519081900360640190fd5b826123bb576123b485856000612a71565b50506128a7565b600754600160a01b900460ff161580156123d25750815b80156123f657506001600160a01b03841660009081526011602052604090205460ff165b801561241057506006546001600160a01b03868116911614155b801561243557506001600160a01b0384166000908152600e602052604090205460ff16155b1561248657600b54831115612486576040805162461bcd60e51b81526020600482015260126024820152712a393c903ab73232b91018a6901220a7211760711b604482015290519081900360640190fd5b60006124913061119c565b600c549091508110158380156124a45750805b80156124ba5750600754600160a01b900460ff16155b80156124df57506001600160a01b03871660009081526011602052604090205460ff16155b80156124f95750600a546001600160a01b03888116911614155b80156125135750600a546001600160a01b03878116911614155b156125b2576007805460ff60a01b1916600160a01b17905560006125817f000000000000000000000000000000000000000000000000000000000000000061257b857f0000000000000000000000000000000000000000000000000000000000000000612bcc565b90612c25565b905061258c81612c67565b60006125973061119c565b90506125a281612ced565b50506007805460ff60a01b191690555b60008480156125cb5750600754600160a01b900460ff16155b6001600160a01b0389166000908152600e602052604090205490915060ff168061260d57506001600160a01b0387166000908152600e602052604090205460ff165b15612616575060005b80156126bc57600061264d606461257b897f0000000000000000000000000000000000000000000000000000000000000000612bcc565b6001600160a01b03891660009081526011602052604090205490915060ff16156126a3576126a0606461257b837f0000000000000000000000000000000000000000000000000000000000000000612bcc565b90505b6126ad8782612d96565b96506126ba893083612a71565b505b6126c7888888612a71565b6008546001600160a01b031663e30443bc896126e28161119c565b6040518363ffffffff1660e01b815260040180836001600160a01b0316815260200182815260200192505050600060405180830381600087803b15801561272857600080fd5b505af1925050508015612739575060015b506008546001600160a01b031663e30443bc886127558161119c565b6040518363ffffffff1660e01b815260040180836001600160a01b0316815260200182815260200192505050600060405180830381600087803b15801561279b57600080fd5b505af19250505080156127ac575060015b50600754600160a01b900460ff166128a157600d54600854604080516001624d3b8760e01b031981526004810184905290516001600160a01b039092169163ffb2c479916024808201926060929091908290030181600087803b15801561281257600080fd5b505af192505050801561284657506040513d606081101561283257600080fd5b508051602082015160409092015190919060015b61284f5761289f565b604080518481526020810184905280820183905260608101869052905132916001917fc864333d6121033635ab41b29ae52f10a22cf4438c3e4f1c4c68518feb2f8a989181900360800190a35050505b505b50505050505b505050565b6000818484111561293b5760405162461bcd60e51b81526004018080602001828103825283818151815260200191508051906020019080838360005b838110156129005781810151838201526020016128e8565b50505050905090810190601f16801561292d5780820380516001836020036101000a031916815260200191505b509250505060405180910390fd5b505050900390565b6001600160a01b03821660009081526011602052604090205460ff16151581151514156129a15760405162461bcd60e51b81526004018080602001828103825260258152602001806131eb6025913960400191505060405180910390fd5b6001600160a01b0382166000908152601160205260409020805460ff19168215801591909117909155612a35576008546040805163031e79db60e41b81526001600160a01b038581166004830152915191909216916331e79db091602480830192600092919082900301818387803b158015612a1c57600080fd5b505af1158015612a30573d6000803e3d6000fd5b505050505b604051811515906001600160a01b038416907fffa9187bf1f18bf477bd0ea1bcbb64e93b6a98132473929edfce215cd9b16fab90600090a35050565b6001600160a01b038316612ab65760405162461bcd60e51b81526004018080602001828103825260258152602001806132346025913960400191505060405180910390fd5b6001600160a01b038216612afb5760405162461bcd60e51b81526004018080602001828103825260238152602001806130aa6023913960400191505060405180910390fd5b612b068383836128a7565b612b4381604051806060016040528060268152602001613115602691396001600160a01b03861660009081526020819052604090205491906128ac565b6001600160a01b038085166000908152602081905260408082209390935590841681522054612b7290826120a6565b6001600160a01b038084166000818152602081815260409182902094909455805185815290519193928716927fddf252ad1be2c89b69c2b068fc378daa952ba7f163c4a11628f55a4df523b3ef92918290030190a3505050565b600082612bdb57506000610c0b565b82820282848281612be857fe5b04146121005760405162461bcd60e51b815260040180806020018281038252602181526020018061313b6021913960400191505060405180910390fd5b600061210083836040518060400160405280601a81526020017f536166654d6174683a206469766973696f6e206279207a65726f000000000000815250612dd8565b6000612c74826002612c25565b90506000612c828383612d96565b905047612c8e83612e3d565b6000612c9a4783612d96565b9050612ca68382612feb565b604080518581526020810183905280820185905290517f17bbfb9a6069321b6ded73bd96327c9e6b7212a5cd51ff219cd61370acafb5619181900360600190a15050505050565b612cf681612e3d565b60085460405147916000916001600160a01b039091169083908381818185875af1925050503d8060008114612d47576040519150601f19603f3d011682016040523d82523d6000602084013e612d4c565b606091505b5050905080156128a757604080518481526020810184905281517f80195cc573b02cc48460cbca6e6e4cc85ddb91959d946e1c3025ea3d87942dc3929181900390910190a1505050565b600061210083836040518060400160405280601e81526020017f536166654d6174683a207375627472616374696f6e206f766572666c6f7700008152506128ac565b60008183612e275760405162461bcd60e51b81526020600482018181528351602484015283519092839260449091019190850190808383600083156129005781810151838201526020016128e8565b506000838581612e3357fe5b0495945050505050565b60408051600280825260608083018452926020830190803683370190505090503081600081518110612e6b57fe5b6001600160a01b03928316602091820292909201810191909152600654604080516315ab88c960e31b81529051919093169263ad5c4648926004808301939192829003018186803b158015612ebf57600080fd5b505afa158015612ed3573d6000803e3d6000fd5b505050506040513d6020811015612ee957600080fd5b5051815182906001908110612efa57fe5b6001600160a01b039283166020918202929092010152600654612f20913091168461210b565b60065460405163791ac94760e01b8152600481018481526000602483018190523060648401819052426084850181905260a060448601908152875160a487015287516001600160a01b039097169663791ac947968a968a9594939092909160c40190602080880191028083838b5b83811015612fa6578181015183820152602001612f8e565b505050509050019650505050505050600060405180830381600087803b158015612fcf57600080fd5b505af1158015612fe3573d6000803e3d6000fd5b505050505050565b6006546130039030906001600160a01b03168461210b565b600654600a546040805163f305d71960e01b81523060048201526024810186905260006044820181905260648201526001600160a01b0392831660848201524260a48201529051919092169163f305d71991849160c48082019260609290919082900301818588803b15801561307857600080fd5b505af115801561308c573d6000803e3d6000fd5b50505050506040513d60608110156130a357600080fd5b5050505056fe45524332303a207472616e7366657220746f20746865207a65726f20616464726573734f776e61626c653a206e6577206f776e657220697320746865207a65726f206164647265737345524332303a20617070726f766520746f20746865207a65726f206164647265737345524332303a207472616e7366657220616d6f756e7420657863656564732062616c616e6365536166654d6174683a206d756c7469706c69636174696f6e206f766572666c6f7745524332303a207472616e7366657220616d6f756e74206578636565647320616c6c6f77616e63654f776e61626c653a2063616c6c6572206973206e6f7420746865206f776e6572414e423a20747261636b657220616c72656164792068617320746861742061646472657373414e423a206d757374206265206265747765656e203230306b20616e64203530306b414e423a206d616b6572207061697220697320616c726561647920746861742076616c7565414e423a20726f7574657220616c7265616479206861732074686174206164647265737345524332303a207472616e736665722066726f6d20746865207a65726f206164647265737345524332303a20617070726f76652066726f6d20746865207a65726f2061646472657373414e423a206e657720747261636b6572206d757374206265206f776e656420627920416e696d65424e42414e423a2054686520505320706169722063616e6e6f742062652072656d6f76656445524332303a2064656372656173656420616c6c6f77616e63652062656c6f77207a65726fa264697066735822122052c1e50da1b9e48dfae8ba63f8b556ba616ab25daaa1c721f67a97e26360756564736f6c634300060c003360a06040523480156200001157600080fd5b5060408051808201825260198082527f416e696d65424e425f4469766964656e645f547261636b657200000000000000602080840182815285518087019096529285528401528151919291839183916200006e9160039162000107565b5080516200008490600490602084019062000107565b505050505060006200009b6200010360201b60201c565b600980546001600160a01b0319166001600160a01b038316908117909155604051919250906000907f8be0079c531659141344cd1fd0a4f28419497f9722a3daafe3b4186f6b6457e0908290a350610e1060115569021e19e0c9bab2400000608052620001a3565b3390565b828054600181600116156101000203166002900490600052602060002090601f016020900481019282601f106200014a57805160ff19168380011785556200017a565b828001600101855582156200017a579182015b828111156200017a5782518255916020019190600101906200015d565b50620001889291506200018c565b5090565b5b808211156200018857600081556001016200018d565b60805161219b620001c3600039806111845280611251525061219b6000f3fe6080604052600436106102085760003560e01c8063715018a611610118578063bc4c4b37116100a0578063e7841ec01161006f578063e7841ec0146107d0578063e98030c7146107e5578063f2fde38b1461080f578063fbcbc0f114610842578063ffb2c4791461087557610217565b8063bc4c4b371461070c578063be10b61414610747578063dd62ed3e1461075c578063e30443bc1461079757610217565b806395d89b41116100e757806395d89b411461061f578063a457c2d714610634578063a8b9d2401461066d578063a9059cbb146106a0578063aafd847a146106d957610217565b8063715018a61461059157806385a6b3ae146105a65780638da5cb5b146105bb57806391b89fba146105ec57610217565b80633009a6091161019b5780634e7b827f1161016a5780634e7b827f1461048c5780635183d6fd146104bf5780636a474002146105345780636f2789ec1461054957806370a082311461055e57610217565b80633009a609146103e0578063313ce567146103f557806331e79db014610420578063395093511461045357610217565b806318160ddd116101d757806318160ddd14610322578063226cfa3d1461033757806323b872dd1461036a57806327ce0147146103ad57610217565b806303c833021461021c57806306fdde0314610224578063095ea7b3146102ae57806309bbedde146102fb57610217565b36610217576102156108bd565b005b600080fd5b6102156108bd565b34801561023057600080fd5b5061023961094e565b6040805160208082528351818301528351919283929083019185019080838360005b8381101561027357818101518382015260200161025b565b50505050905090810190601f1680156102a05780820380516001836020036101000a031916815260200191505b509250505060405180910390f35b3480156102ba57600080fd5b506102e7600480360360408110156102d157600080fd5b506001600160a01b0381351690602001356109e4565b604080519115158252519081900360200190f35b34801561030757600080fd5b50610310610a02565b60408051918252519081900360200190f35b34801561032e57600080fd5b50610310610a08565b34801561034357600080fd5b506103106004803603602081101561035a57600080fd5b50356001600160a01b0316610a0e565b34801561037657600080fd5b506102e76004803603606081101561038d57600080fd5b506001600160a01b03813581169160208101359091169060400135610a20565b3480156103b957600080fd5b50610310600480360360208110156103d057600080fd5b50356001600160a01b0316610aa7565b3480156103ec57600080fd5b50610310610b06565b34801561040157600080fd5b5061040a610b0c565b6040805160ff9092168252519081900360200190f35b34801561042c57600080fd5b506102156004803603602081101561044357600080fd5b50356001600160a01b0316610b11565b34801561045f57600080fd5b506102e76004803603604081101561047657600080fd5b506001600160a01b038135169060200135610cad565b34801561049857600080fd5b506102e7600480360360208110156104af57600080fd5b50356001600160a01b0316610cfb565b3480156104cb57600080fd5b506104e9600480360360208110156104e257600080fd5b5035610d10565b604080516001600160a01b0390991689526020890197909752878701959095526060870193909352608086019190915260a085015260c084015260e083015251908190036101000190f35b34801561054057600080fd5b50610215610e6f565b34801561055557600080fd5b50610310610ea6565b34801561056a57600080fd5b506103106004803603602081101561058157600080fd5b50356001600160a01b0316610eac565b34801561059d57600080fd5b50610215610ec7565b3480156105b257600080fd5b50610310610f69565b3480156105c757600080fd5b506105d0610f6f565b604080516001600160a01b039092168252519081900360200190f35b3480156105f857600080fd5b506103106004803603602081101561060f57600080fd5b50356001600160a01b0316610f7e565b34801561062b57600080fd5b50610239610f89565b34801561064057600080fd5b506102e76004803603604081101561065757600080fd5b506001600160a01b038135169060200135610fea565b34801561067957600080fd5b506103106004803603602081101561069057600080fd5b50356001600160a01b0316611052565b3480156106ac57600080fd5b506102e7600480360360408110156106c357600080fd5b506001600160a01b03813516906020013561107e565b3480156106e557600080fd5b50610310600480360360208110156106fc57600080fd5b50356001600160a01b0316611092565b34801561071857600080fd5b506102e76004803603604081101561072f57600080fd5b506001600160a01b03813516906020013515156110ad565b34801561075357600080fd5b50610310611182565b34801561076857600080fd5b506103106004803603604081101561077f57600080fd5b506001600160a01b03813581169160200135166111a6565b3480156107a357600080fd5b50610215600480360360408110156107ba57600080fd5b506001600160a01b0381351690602001356111d1565b3480156107dc57600080fd5b5061031061139b565b3480156107f157600080fd5b506102156004803603602081101561080857600080fd5b50356113a1565b34801561081b57600080fd5b506102156004803603602081101561083257600080fd5b50356001600160a01b03166114de565b34801561084e57600080fd5b506104e96004803603602081101561086557600080fd5b50356001600160a01b03166115d7565b34801561088157600080fd5b5061089f6004803603602081101561089857600080fd5b503561174a565b60408051938452602084019290925282820152519081900360600190f35b60006108c7610a08565b116108d157600080fd5b341561094c576109026108e2610a08565b6108f034600160801b611848565b816108f757fe5b6005549190046118a8565b60055560408051348152905133917fa493a9229478c3fcd73f66d2cdeb7f94fd0f341da924d1054236d78454116511919081900360200190a260085461094890346118a8565b6008555b565b60038054604080516020601f60026000196101006001881615020190951694909404938401819004810282018101909252828152606093909290918301828280156109da5780601f106109af576101008083540402835291602001916109da565b820191906000526020600020905b8154815290600101906020018083116109bd57829003601f168201915b5050505050905090565b60006109f86109f1611902565b8484611906565b5060015b92915050565b600a5490565b60025490565b60106020526000908152604090205481565b6000610a2d8484846119f2565b610a9d84610a39611902565b610a98856040518060600160405280602881526020016120b4602891396001600160a01b038a16600090815260016020526040812090610a77611902565b6001600160a01b031681526020810191909152604001600020549190611a3f565b611906565b5060019392505050565b6001600160a01b038116600090815260066020526040812054600160801b90610af690610af190610aeb610ae6610add88610eac565b60055490611848565b611ad6565b90611ae6565b611b19565b81610afd57fe5b0490505b919050565b600e5481565b601290565b610b19611902565b6009546001600160a01b03908116911614610b69576040805162461bcd60e51b815260206004820181905260248201526000805160206120dc833981519152604482015290519081900360640190fd5b6001600160a01b0381166000908152600f602052604090205460ff1615610bcf576040805162461bcd60e51b81526020600482015260156024820152741053908e88105b1c9958591e48195e18db1d591959605a1b604482015290519081900360640190fd5b6001600160a01b0381166000908152600f60205260408120805460ff19166001179055610bfd908290611b2c565b6040805163131836e760e21b8152600a60048201526001600160a01b0383166024820152905173__IterableMapping_______________________91634c60db9c916044808301926000929190829003018186803b158015610c5e57600080fd5b505af4158015610c72573d6000803e3d6000fd5b50506040516001600160a01b03841692507fa878b31040b2e6d0a9a3d3361209db3908ba62014b0dca52adbaee451d128b259150600090a250565b60006109f8610cba611902565b84610a988560016000610ccb611902565b6001600160a01b03908116825260208083019390935260409182016000908120918c1681529252902054906118a8565b600f6020526000908152604090205460ff1681565b600080600080600080600080600a73__IterableMapping_______________________63deb3d89690916040518263ffffffff1660e01b81526004018082815260200191505060206040518083038186803b158015610d6e57600080fd5b505af4158015610d82573d6000803e3d6000fd5b505050506040513d6020811015610d9857600080fd5b50518910610dbf575060009650600019955085945086935083925082915081905080610e64565b6000600a73__IterableMapping_______________________63d1aa9e7e90918c6040518363ffffffff1660e01b8152600401808381526020018281526020019250505060206040518083038186803b158015610e1b57600080fd5b505af4158015610e2f573d6000803e3d6000fd5b505050506040513d6020811015610e4557600080fd5b50519050610e52816115d7565b98509850985098509850985098509850505b919395975091939597565b60405162461bcd60e51b81526004018080602001828103825260338152602001806120606033913960400191505060405180910390fd5b60115481565b6001600160a01b031660009081526020819052604090205490565b610ecf611902565b6009546001600160a01b03908116911614610f1f576040805162461bcd60e51b815260206004820181905260248201526000805160206120dc833981519152604482015290519081900360640190fd5b6009546040516000916001600160a01b0316907f8be0079c531659141344cd1fd0a4f28419497f9722a3daafe3b4186f6b6457e0908390a3600980546001600160a01b0319169055565b60085481565b6009546001600160a01b031690565b60006109fc82611052565b60048054604080516020601f60026000196101006001881615020190951694909404938401819004810282018101909252828152606093909290918301828280156109da5780601f106109af576101008083540402835291602001916109da565b60006109f8610ff7611902565b84610a98856040518060600160405280602581526020016121416025913960016000611021611902565b6001600160a01b03908116825260208083019390935260409182016000908120918d16815292529020549190611a3f565b6001600160a01b0381166000908152600760205260408120546109fc9061107884610aa7565b90611b85565b60006109f861108b611902565b84846119f2565b6001600160a01b031660009081526007602052604090205490565b60006110b7611902565b6009546001600160a01b03908116911614611107576040805162461bcd60e51b815260206004820181905260248201526000805160206120dc833981519152604482015290519081900360640190fd5b600061111284611bc7565b90508015611178576001600160a01b0384166000818152601060209081526040918290204290558151848152915186151593927fa2c38e2d2fb7e3e1912d937fd1ca11ed6d51864dee4cfa7a7bf02becd7acf09292908290030190a360019150506109fc565b5060009392505050565b7f000000000000000000000000000000000000000000000000000000000000000081565b6001600160a01b03918216600090815260016020908152604080832093909416825291909152205490565b6111d9611902565b6009546001600160a01b03908116911614611229576040805162461bcd60e51b815260206004820181905260248201526000805160206120dc833981519152604482015290519081900360640190fd5b6001600160a01b0382166000908152600f602052604090205460ff161561124f57611397565b7f00000000000000000000000000000000000000000000000000000000000000008110611305576112808282611b2c565b60408051632f0ad01760e21b8152600a60048201526001600160a01b038416602482015260448101839052905173__IterableMapping_______________________9163bc2b405c916064808301926000929190829003018186803b1580156112e857600080fd5b505af41580156112fc573d6000803e3d6000fd5b5050505061138a565b611310826000611b2c565b6040805163131836e760e21b8152600a60048201526001600160a01b0384166024820152905173__IterableMapping_______________________91634c60db9c916044808301926000929190829003018186803b15801561137157600080fd5b505af4158015611385573d6000803e3d6000fd5b505050505b6113958260016110ad565b505b5050565b600e5490565b6113a9611902565b6009546001600160a01b039081169116146113f9576040805162461bcd60e51b815260206004820181905260248201526000805160206120dc833981519152604482015290519081900360640190fd5b610e10811015801561140e5750620151808111155b61145f576040805162461bcd60e51b815260206004820152601a60248201527f414e425f44543a203336303020746f2038363430302073656373000000000000604482015290519081900360640190fd5b6011548114156114ab576040805162461bcd60e51b8152602060048201526012602482015271414e425f44543a2073616d652076616c756560701b604482015290519081900360640190fd5b60115460405182907f474ea64804364a1e29a4487ddb63c3342a2dd826ccd8acf48825e680a0e6f20f90600090a3601155565b6114e6611902565b6009546001600160a01b03908116911614611536576040805162461bcd60e51b815260206004820181905260248201526000805160206120dc833981519152604482015290519081900360640190fd5b6001600160a01b03811661157b5760405162461bcd60e51b81526004018080602001828103825260268152602001806120186026913960400191505060405180910390fd5b6009546040516001600160a01b038084169216907f8be0079c531659141344cd1fd0a4f28419497f9722a3daafe3b4186f6b6457e090600090a3600980546001600160a01b0319166001600160a01b0392909216919091179055565b600080600080600080600080889750600a73__IterableMapping_______________________6317e142d190918a6040518363ffffffff1660e01b815260040180838152602001826001600160a01b031681526020019250505060206040518083038186803b15801561164957600080fd5b505af415801561165d573d6000803e3d6000fd5b505050506040513d602081101561167357600080fd5b505196506000199550600087126116d757600e548711156116a357600e5461169c908890611d08565b95506116d7565b600e54600a54600091106116b85760006116c7565b600e54600a546116c791611b85565b90506116d38882611ae6565b9650505b6116e088611052565b94506116eb88610aa7565b6001600160a01b038916600090815260106020526040902054909450925082611715576000611723565b6011546117239084906118a8565b915042821161173357600061173d565b61173d8242611b85565b9050919395975091939597565b600a54600090819081908061176a575050600e5460009250829150611841565b600e546000805a90506000805b898410801561178557508582105b1561183057600a54600190950194851061179e57600094505b6000600a60000186815481106117b057fe5b60009182526020808320909101546001600160a01b031680835260109091526040909120549091506117e190611d3a565b156117fd576117f18160016110ad565b156117fd576001909101905b60019092019160005a9050808511156118275761182461181d8683611b85565b87906118a8565b95505b93506117779050565b600e85905590975095509193505050505b9193909250565b600082611857575060006109fc565b8282028284828161186457fe5b04146118a15760405162461bcd60e51b81526004018080602001828103825260218152602001806120936021913960400191505060405180910390fd5b9392505050565b6000828201838110156118a1576040805162461bcd60e51b815260206004820152601b60248201527f536166654d6174683a206164646974696f6e206f766572666c6f770000000000604482015290519081900360640190fd5b3390565b6001600160a01b03831661194b5760405162461bcd60e51b815260040180806020018281038252602481526020018061211d6024913960400191505060405180910390fd5b6001600160a01b0382166119905760405162461bcd60e51b815260040180806020018281038252602281526020018061203e6022913960400191505060405180910390fd5b6001600160a01b03808416600081815260016020908152604080832094871680845294825291829020859055815185815291517f8c5be1e5ebec7d5bd14f71427d1e84f3dd0314c0f7b2291e5b200ac8c7c3b9259281900390910190a3505050565b6040805162461bcd60e51b815260206004820152601860248201527f414e425f44543a204e6f207472616e7366657273207965740000000000000000604482015290519081900360640190fd5b60008184841115611ace5760405162461bcd60e51b81526004018080602001828103825283818151815260200191508051906020019080838360005b83811015611a93578181015183820152602001611a7b565b50505050905090810190601f168015611ac05780820380516001836020036101000a031916815260200191505b509250505060405180910390fd5b505050900390565b600081818112156109fc57600080fd5b6000828201818312801590611afb5750838112155b80611b105750600083128015611b1057508381125b6118a157600080fd5b600080821215611b2857600080fd5b5090565b6000611b3783610eac565b905080821115611b5f576000611b4d8383611b85565b9050611b598482611d61565b50611395565b80821015611395576000611b738284611b85565b9050611b7f8482611dc5565b50505050565b60006118a183836040518060400160405280601e81526020017f536166654d6174683a207375627472616374696f6e206f766572666c6f770000815250611a3f565b600080611bd383611052565b90508015611cff576001600160a01b038316600090815260076020526040902054611bfe90826118a8565b6001600160a01b038416600081815260076020908152604091829020939093558051848152905191927fee503bee2bb6a87e57bc57db795f98137327401a0e7b7ce42e37926cc1a9ca4d92918290030190a26040516000906001600160a01b03851690610bb890849084818181858888f193505050503d8060008114611ca0576040519150601f19603f3d011682016040523d82523d6000602084013e611ca5565b606091505b5050905080611cf7576001600160a01b038416600090815260076020526040902054611cd19083611b85565b6001600160a01b0385166000908152600760205260408120919091559250610b01915050565b509050610b01565b50600092915050565b6000818303818312801590611d1d5750838113155b80611b105750600083128015611b1057508381136118a157600080fd5b600042821115611d4c57506000610b01565b601154611d594284611b85565b101592915050565b611d6b8282611e09565b611da5611d86610ae68360055461184890919063ffffffff16565b6001600160a01b03841660009081526006602052604090205490611d08565b6001600160a01b0390921660009081526006602052604090209190915550565b611dcf8282611ef9565b611da5611dea610ae68360055461184890919063ffffffff16565b6001600160a01b03841660009081526006602052604090205490611ae6565b6001600160a01b038216611e64576040805162461bcd60e51b815260206004820152601f60248201527f45524332303a206d696e7420746f20746865207a65726f206164647265737300604482015290519081900360640190fd5b611e7060008383611395565b600254611e7d90826118a8565b6002556001600160a01b038216600090815260208190526040902054611ea390826118a8565b6001600160a01b0383166000818152602081815260408083209490945583518581529351929391927fddf252ad1be2c89b69c2b068fc378daa952ba7f163c4a11628f55a4df523b3ef9281900390910190a35050565b6001600160a01b038216611f3e5760405162461bcd60e51b81526004018080602001828103825260218152602001806120fc6021913960400191505060405180910390fd5b611f4a82600083611395565b611f8781604051806060016040528060228152602001611ff6602291396001600160a01b0385166000908152602081905260409020549190611a3f565b6001600160a01b038316600090815260208190526040902055600254611fad9082611b85565b6002556040805182815290516000916001600160a01b038516917fddf252ad1be2c89b69c2b068fc378daa952ba7f163c4a11628f55a4df523b3ef9181900360200190a3505056fe45524332303a206275726e20616d6f756e7420657863656564732062616c616e63654f776e61626c653a206e6577206f776e657220697320746865207a65726f206164647265737345524332303a20617070726f766520746f20746865207a65726f2061646472657373414e425f44543a206175746f2d636c61696d2064697361626c65642e205573652027636c61696d27206f6e206273637363616e536166654d6174683a206d756c7469706c69636174696f6e206f766572666c6f7745524332303a207472616e7366657220616d6f756e74206578636565647320616c6c6f77616e63654f776e61626c653a2063616c6c6572206973206e6f7420746865206f776e657245524332303a206275726e2066726f6d20746865207a65726f206164647265737345524332303a20617070726f76652066726f6d20746865207a65726f206164647265737345524332303a2064656372656173656420616c6c6f77616e63652062656c6f77207a65726fa2646970667358221220cd86cbdc376704143a3e4533ce6b6851c8758b047ce416b172923adaef1f5f9f64736f6c634300060c0033414e423a206d616b6572207061697220697320616c726561647920746861742076616c7565",
  "immutableReferences": {
    "19": [
      {
        "length": 32,
        "start": 3577
      },
      {
        "length": 32,
        "start": 6112
      }
    ],
    "47": [
      {
        "length": 32,
        "start": 7348
      }
    ],
    "49": [
      {
        "length": 32,
        "start": 5988
      },
      {
        "length": 32,
        "start": 9559
      }
    ],
    "51": [
      {
        "length": 32,
        "start": 3091
      },
      {
        "length": 32,
        "start": 9522
      },
      {
        "length": 32,
        "start": 9769
      }
    ],
    "54": [
      {
        "length": 32,
        "start": 3154
      },
      {
        "length": 32,
        "start": 9852
      }
    ],
    "60": [
      {
        "length": 32,
        "start": 3325
      },
      {
        "length": 32,
        "start": 3613
      }
    ]
  },
  "source": "// SPDX-License-Identifier: MIT\n\npragma solidity ^0.6.12;\n\nimport \"./DividendPayingToken.sol\";\nimport \"./SafeMath.sol\";\nimport \"./IterableMapping.sol\";\nimport \"./Ownable.sol\";\nimport \"./IUniswapV2Pair.sol\";\nimport \"./IUniswapV2Factory.sol\";\nimport \"./IUniswapV2Router.sol\";\n\ncontract AnimeBNB is ERC20, Ownable {\n\tusing SafeMath for uint256;\n\n\tIUniswapV2Router02 public uniswapV2Router;\n\taddress public immutable uniswapV2Pair;\n\n\taddress public PreSaleWallet;\n\tbool private swapping;\n\n\tAnimeBNBDividendTracker public dividendTracker;\n\tuint256 public MarketingUnlockedTimestamp;\n\n\taddress public liquidityWallet;\n\n\tuint256 public maxSellTransactionAmount = 1000000 * (10**18);\n\tuint256 public swapTokensAtAmount = 200000 * (10**18);\n\n\tuint256 public immutable BNBRewardsFee;\n\tuint256 public immutable liquidityFee;\n\tuint256 public immutable totalFees;\n\n\t// sells have fees of 12 and 6 (10 * 1.2 and 5 * 1.2)\n\tuint256 public immutable sellFeeIncreaseFactor = 120; \n\n\t// use by default 300,000 gas to process auto-claiming dividends\n\tuint256 public gasForProcessing = 300000;\n\n\t// timestamp for when the token can be traded freely on PancakeSwap\n\tuint256 public immutable tradingEnabledTimestamp = 1628448600; //Aug 1, 13:00 GMT, 2021\n\n\t// exclude from fees and max transaction amount\n\tmapping (address => bool) private _isExcludedFromFees;\n\n\t// addresses that can make transfers before presale is over\n\tmapping (address => bool) private canTransferBeforeTradingIsEnabled;\n\n\tmapping (address => bool) private DevWallets;\n    // store addresses that a automatic market maker pairs. Any transfer *to* these addresses\n    // could be subject to a maximum transfer amount\n    mapping (address => bool) public automatedMarketMakerPairs;\n\n    event UpdateDividendTracker(address indexed newAddress, address indexed oldAddress);\n\n    event UpdateUniswapV2Router(address indexed newAddress, address indexed oldAddress);\n\n    event ExcludeFromFees(address indexed account, bool isExcluded);\n\t\n    event ExcludeMultipleAccountsFromFees(address[] accounts, bool isExcluded);\n\n    event SetAutomatedMarketMakerPair(address indexed pair, bool indexed value);\n\n    event LiquidityWalletUpdated(address indexed newLiquidityWallet, address indexed oldLiquidityWallet);\n\t\n    event PreSaleWalletUpdated(address indexed newPreSaleWallet, address indexed oldPreSaleWallet);\t\n\n    event GasForProcessingUpdated(uint256 indexed newValue, uint256 indexed oldValue);\n\n    event SwapAndLiquify(\n        uint256 tokensSwapped,\n        uint256 ethReceived,\n        uint256 tokensIntoLiqudity\n    );\n\n    event SendDividends(\n    \tuint256 tokensSwapped,\n    \tuint256 amount\n    );\n\n    event ProcessedDividendTracker(\n    \tuint256 iterations,\n    \tuint256 claims,\n        uint256 lastProcessedIndex,\n    \tbool indexed automatic,\n    \tuint256 gas,\n    \taddress indexed processor\n    );\n\n    constructor() public ERC20(\"AnimeBNB\", \"ANB\") {\n        uint256 _BNBRewardsFee = 10;\n        uint256 _liquidityFee = 3;\n\n        BNBRewardsFee = _BNBRewardsFee;\n        liquidityFee = _liquidityFee;\n        totalFees = _BNBRewardsFee.add(_liquidityFee);\n    \tMarketingUnlockedTimestamp = 1646100000; // Epoch time when Marketing wallet is unlocked 03/01/2022\n\n\n    \tdividendTracker = new AnimeBNBDividendTracker();\n\n    \tliquidityWallet = owner();\n\n    \tIUniswapV2Router02 _uniswapV2Router = IUniswapV2Router02(0x9Ac64Cc6e4415144C455BD8E4837Fea55603e5c3);\n         // Create a uniswap pair for this new token\n        address _uniswapV2Pair = IUniswapV2Factory(_uniswapV2Router.factory())\n            .createPair(address(this), _uniswapV2Router.WETH());\n\n        uniswapV2Router = _uniswapV2Router;\n        uniswapV2Pair = _uniswapV2Pair;\n\n        _setAutomatedMarketMakerPair(_uniswapV2Pair, true);\n\n        // locked wallets (transfer function will not allow sale or send to another wallet until preset time.)\n\t\tDevWallets[0x2Bc8055223c0424CB91DC0D3fff6C031Afb2ac77] = true; // Marketing (To be changed to new Marketing wallet later) *Kregethus\n\t\t\n\t\t// exclude from receiving dividends\n        dividendTracker.excludeFromDividends(address(dividendTracker));\n        dividendTracker.excludeFromDividends(address(this));\n        dividendTracker.excludeFromDividends(owner());\n        dividendTracker.excludeFromDividends(address(_uniswapV2Router));\n\n        // exclude from paying fees or having max transaction amount\n        excludeFromFees(liquidityWallet, true);\n        excludeFromFees(address(this), true);\n\n        // enable owner and pre-sale wallet to send tokens before presales are over\n        canTransferBeforeTradingIsEnabled[owner()] = true;\n\n        /*\n            _mint is an internal function in ERC20.sol that is only called here,\n            and CANNOT be called ever again\n        */\n        _mint(owner(), 1000000000 * (10**18));\n    }\n\n    receive() external payable {\n\n  \t}\n\n    function updateDividendTracker(address newAddress) public onlyOwner {\n        require(newAddress != address(dividendTracker), \"ANB: tracker already has that address\");\n\n        AnimeBNBDividendTracker newDividendTracker = AnimeBNBDividendTracker(payable(newAddress));\n\n        require(newDividendTracker.owner() == address(this), \"ANB: new tracker must be owned by AnimeBNB\");\n\n        newDividendTracker.excludeFromDividends(address(newDividendTracker));\n        newDividendTracker.excludeFromDividends(address(this));\n        newDividendTracker.excludeFromDividends(owner());\n        newDividendTracker.excludeFromDividends(address(uniswapV2Router));\n\n        emit UpdateDividendTracker(newAddress, address(dividendTracker));\n\n        dividendTracker = newDividendTracker;\n    }\n\n    function updateUniswapV2Router(address newAddress) public onlyOwner {\n        require(newAddress != address(uniswapV2Router), \"ANB: router already has that address\");\n        emit UpdateUniswapV2Router(newAddress, address(uniswapV2Router));\n        uniswapV2Router = IUniswapV2Router02(newAddress);\n    }\n\n    function excludeFromFees(address account, bool excluded) public onlyOwner {\n        require(_isExcludedFromFees[account] != excluded, \"ANB: Account is 'excluded'\");\n        _isExcludedFromFees[account] = excluded;\n\n        emit ExcludeFromFees(account, excluded);\n    }\n \n    function excludeMultipleAccountsFromFees(address[] calldata accounts, bool excluded) public onlyOwner {\n        for(uint256 i = 0; i < accounts.length; i++) {\n            _isExcludedFromFees[accounts[i]] = excluded;\n        }\n\n        emit ExcludeMultipleAccountsFromFees(accounts, excluded);\n    }\n\n    function setAutomatedMarketMakerPair(address pair, bool value) public onlyOwner {\n        require(pair != uniswapV2Pair, \"ANB: The PS pair cannot be removed\");\n\n        _setAutomatedMarketMakerPair(pair, value);\n    }\n\n    function _setAutomatedMarketMakerPair(address pair, bool value) private {\n        require(automatedMarketMakerPairs[pair] != value, \"ANB: maker pair is already that value\");\n        automatedMarketMakerPairs[pair] = value;\n\n        if(value) {\n            dividendTracker.excludeFromDividends(pair);\n        }\n\n        emit SetAutomatedMarketMakerPair(pair, value);\n    }\n\n    function updateLiquidityWallet(address newLiquidityWallet) public onlyOwner {\n        require(newLiquidityWallet != liquidityWallet, \"ANB: LP is already this address\");\n        excludeFromFees(newLiquidityWallet, true);\n        emit LiquidityWalletUpdated(newLiquidityWallet, liquidityWallet);\n        liquidityWallet = newLiquidityWallet;\n    }\n\n    function updateGasForProcessing(uint256 newValue) public onlyOwner {\n        require(newValue >= 200000 && newValue <= 500000, \"ANB: must be between 200k and 500k\");\n        require(newValue != gasForProcessing, \"ANB: Cannot update to same value\");\n        emit GasForProcessingUpdated(newValue, gasForProcessing);\n        gasForProcessing = newValue;\n    }\n\n    function updateClaimWait(uint256 claimWait) external onlyOwner {\n        dividendTracker.updateClaimWait(claimWait);\n    }\n \n    function getClaimWait() external view returns(uint256) {\n        return dividendTracker.claimWait();\n    }\n\n    function getMarketingLock() external view returns(uint256) {\n        return MarketingUnlockedTimestamp;\n    }\n\n    function getTotalDividendsDistributed() external view returns (uint256) {\n        return dividendTracker.totalDividendsDistributed();\n    }\n\n    function isExcludedFromFees(address account) public view returns(bool) {\n        return _isExcludedFromFees[account];\n    }\n\n    function withdrawableDividendOf(address account) public view returns(uint256) {\n    \treturn dividendTracker.withdrawableDividendOf(account);\n  \t}\n\n\tfunction dividendTokenBalanceOf(address account) public view returns (uint256) {\n\t\treturn dividendTracker.balanceOf(account);\n\t}\n\n    function getAccountDividendsInfo(address account)\n        external view returns (\n            address,\n            int256,\n            int256,\n            uint256,\n            uint256,\n            uint256,\n            uint256,\n            uint256) {\n        return dividendTracker.getAccount(account);\n    }\n\n\tfunction getAccountDividendsInfoAtIndex(uint256 index)\n        external view returns (\n            address,\n            int256,\n            int256,\n            uint256,\n            uint256,\n            uint256,\n            uint256,\n            uint256) {\n    \treturn dividendTracker.getAccountAtIndex(index);\n    }\n\n\tfunction processDividendTracker(uint256 gas) external {\n\t\t(uint256 iterations, uint256 claims, uint256 lastProcessedIndex) = dividendTracker.process(gas);\n\t\temit ProcessedDividendTracker(iterations, claims, lastProcessedIndex, false, gas, tx.origin);\n    }\n\n    function claim() external {\n\t\tdividendTracker.processAccount(msg.sender, false);\n    }\n\n    function getLastProcessedIndex() external view returns(uint256) {\n    \treturn dividendTracker.getLastProcessedIndex();\n    }\n\n    function getNumberOfDividendTokenHolders() external view returns(uint256) {\n        return dividendTracker.getNumberOfTokenHolders();\n    }\n\n    function getTradingIsEnabled() public view returns (bool) {\n        return block.timestamp >= tradingEnabledTimestamp;\n    }\n\n    function getMarketingWalletUnlocked() public view returns (bool) {\n        return block.timestamp >= MarketingUnlockedTimestamp; // Checks to see if the Marketing wallet is unlocked.\n    }\n\n\n    function _transfer(\n        address from,\n        address to,\n        uint256 amount\n    ) internal override {\n        require(from != address(0), \"ERC20: from zero address\");\n        require(to != address(0), \"ERC20: to zero address\");\n\n        bool tradingIsEnabled = getTradingIsEnabled();\n        bool MarketingWalletUnlocked = getMarketingWalletUnlocked();\n \n        if(!tradingIsEnabled) {\n            require(canTransferBeforeTradingIsEnabled[from], \"ANB: Trading is disabled\");\n        }\n        if(!MarketingWalletUnlocked) {\n            require(!DevWallets[from], \"ANB: Unlocks 03/01/2022\");\n        }\n\n        if(amount == 0) {\n            super._transfer(from, to, 0);\n            return;\n        }\n\n        if( \n        \t!swapping &&\n        \ttradingIsEnabled &&\n            automatedMarketMakerPairs[to] && // sells only by detecting transfer to automated market maker pair\n        \tfrom != address(uniswapV2Router) && //router -> pair is removing liquidity which shouldn't have max\n            !_isExcludedFromFees[to] //no max for those excluded from fees\n        ) {\n            require(amount <= maxSellTransactionAmount, \"Try under 1M $ANB.\");\n        }\n\n\t\tuint256 contractTokenBalance = balanceOf(address(this));\n        \n        bool canSwap = contractTokenBalance >= swapTokensAtAmount;\n\n        if(\n            tradingIsEnabled && \n            canSwap &&\n            !swapping &&\n            !automatedMarketMakerPairs[from] &&\n            from != liquidityWallet &&\n            to != liquidityWallet\n        ) {\n            swapping = true;\n\n            uint256 swapTokens = contractTokenBalance.mul(liquidityFee).div(totalFees);\n            swapAndLiquify(swapTokens);\n\n            uint256 sellTokens = balanceOf(address(this));\n            swapAndSendDividends(sellTokens);\n\n            swapping = false;\n        }\n\n\n        bool takeFee = tradingIsEnabled && !swapping;\n\n        // if any account belongs to _isExcludedFromFee account then remove the fee\n        if(_isExcludedFromFees[from] || _isExcludedFromFees[to]) {\n            takeFee = false;\n        }\n\n        if(takeFee) {\n        \tuint256 fees = amount.mul(totalFees).div(100);\n\n            // if sell, multiply by 1.2\n            if(automatedMarketMakerPairs[to]) {\n                fees = fees.mul(sellFeeIncreaseFactor).div(100);\n            }\n\n        \tamount = amount.sub(fees);\n\n            super._transfer(from, address(this), fees);\n        }\n\n        super._transfer(from, to, amount);\n\n        try dividendTracker.setBalance(payable(from), balanceOf(from)) {} catch {}\n        try dividendTracker.setBalance(payable(to), balanceOf(to)) {} catch {}\n\n        if(!swapping) {\n\t    \tuint256 gas = gasForProcessing;\n\n\t    \ttry dividendTracker.process(gas) returns (uint256 iterations, uint256 claims, uint256 lastProcessedIndex) {\n\t    \t\temit ProcessedDividendTracker(iterations, claims, lastProcessedIndex, true, gas, tx.origin);\n\t    \t} \n\t    \tcatch {\n\n\t    \t}\n        }\n    }\n\n    function swapAndLiquify(uint256 tokens) private {\n        // split the contract balance into halves\n        uint256 half = tokens.div(2);\n        uint256 otherHalf = tokens.sub(half);\n\n        // capture the contract's current ETH balance.\n        // this is so that we can capture exactly the amount of ETH that the\n        // swap creates, and not make the liquidity event include any ETH that\n        // has been manually sent to the contract\n        uint256 initialBalance = address(this).balance;\n\n        // swap tokens for ETH\n        swapTokensForEth(half); // <- this breaks the ETH -> HATE swap when swap+liquify is triggered\n\n        // how much ETH did we just swap into?\n        uint256 newBalance = address(this).balance.sub(initialBalance);\n\n        // add liquidity to uniswap\n        addLiquidity(otherHalf, newBalance);\n        \n        emit SwapAndLiquify(half, newBalance, otherHalf);\n    }\n\n    function swapTokensForEth(uint256 tokenAmount) private {\n\n        \n        // generate the uniswap pair path of token -> weth\n        address[] memory path = new address[](2);\n        path[0] = address(this);\n        path[1] = uniswapV2Router.WETH();\n\n        _approve(address(this), address(uniswapV2Router), tokenAmount);\n\n        // make the swap\n        uniswapV2Router.swapExactTokensForETHSupportingFeeOnTransferTokens(\n            tokenAmount,\n            0, // accept any amount of ETH\n            path,\n            address(this),\n            block.timestamp\n        );\n        \n    }\n\n    function addLiquidity(uint256 tokenAmount, uint256 ethAmount) private {\n        \n        // approve token transfer to cover all possible scenarios\n        _approve(address(this), address(uniswapV2Router), tokenAmount);\n\n        // add the liquidity\n        uniswapV2Router.addLiquidityETH{value: ethAmount}(\n            address(this),\n            tokenAmount,\n            0, // slippage is unavoidable\n            0, // slippage is unavoidable\n            liquidityWallet,\n            block.timestamp\n        );\n        \n    }\n\n    function swapAndSendDividends(uint256 tokens) private {\n        swapTokensForEth(tokens);\n        uint256 dividends = address(this).balance;\n        (bool success,) = address(dividendTracker).call{value: dividends}(\"\");\n\n        if(success) {\n   \t \t\temit SendDividends(tokens, dividends);\n        }\n    }\n}\n\ncontract AnimeBNBDividendTracker is DividendPayingToken, Ownable {\n    using SafeMath for uint256;\n    using SafeMathInt for int256;\n    using IterableMapping for IterableMapping.Map;\n\n    IterableMapping.Map private tokenHoldersMap;\n    uint256 public lastProcessedIndex;\n    mapping (address => bool) public excludedFromDividends;\n\n    mapping (address => uint256) public lastClaimTimes;\n\n    uint256 public claimWait;\n    uint256 public immutable minimumTokenBalanceForDividends;\n\n    event ExcludeFromDividends(address indexed account);\n    event ClaimWaitUpdated(uint256 indexed newValue, uint256 indexed oldValue);\n\n    event Claim(address indexed account, uint256 amount, bool indexed automatic);\n\n    constructor() public DividendPayingToken(\"AnimeBNB_Dividend_Tracker\", \"AnimeBNB_Dividend_Tracker\") {\n        claimWait = 3600;\n        minimumTokenBalanceForDividends = 10000 * (10**18); //must hold 10000+ tokens\n    }\n\n    function _transfer(address, address, uint256) internal override {\n        require(false, \"ANB_DT: No transfers yet\");\n    }\n\n    function withdrawDividend() public override {\n        require(false, \"ANB_DT: auto-claim disabled. Use 'claim' on bscscan\");\n    }\n\n    function excludeFromDividends(address account) external onlyOwner {\n    \trequire(!excludedFromDividends[account], \"ANB: Already excluded\");  // Kregethus: temp to see if this is the cause\n    \texcludedFromDividends[account] = true;\n\n    \t_setBalance(account, 0);\n    \ttokenHoldersMap.remove(account);\n\n    \temit ExcludeFromDividends(account);\n    }\n\n    function updateClaimWait(uint256 newClaimWait) external onlyOwner {\n        require(newClaimWait >= 3600 && newClaimWait <= 86400, \"ANB_DT: 3600 to 86400 secs\");\n        require(newClaimWait != claimWait, \"ANB_DT: same value\");\n        emit ClaimWaitUpdated(newClaimWait, claimWait);\n        claimWait = newClaimWait;\n    }\n\n    function getLastProcessedIndex() external view returns(uint256) {\n    \treturn lastProcessedIndex;\n    }\n\n    function getNumberOfTokenHolders() external view returns(uint256) {\n        return tokenHoldersMap.keys.length;\n    }\n\n    function getAccount(address _account)\n        public view returns (\n            address account,\n            int256 index,\n            int256 iterationsUntilProcessed,\n            uint256 withdrawableDividends,\n            uint256 totalDividends,\n            uint256 lastClaimTime,\n            uint256 nextClaimTime,\n            uint256 secondsUntilAutoClaimAvailable) {\n        account = _account;\n\n        index = tokenHoldersMap.getIndexOfKey(account);\n\n        iterationsUntilProcessed = -1;\n\n        if(index >= 0) {\n            if(uint256(index) > lastProcessedIndex) {\n                iterationsUntilProcessed = index.sub(int256(lastProcessedIndex));\n            }\n            else {\n                uint256 processesUntilEndOfArray = tokenHoldersMap.keys.length > lastProcessedIndex ?\n                                                        tokenHoldersMap.keys.length.sub(lastProcessedIndex) :\n                                                        0;\n\n\n                iterationsUntilProcessed = index.add(int256(processesUntilEndOfArray));\n            }\n        }\n\n\n        withdrawableDividends = withdrawableDividendOf(account);\n        totalDividends = accumulativeDividendOf(account);\n\n        lastClaimTime = lastClaimTimes[account];\n\n        nextClaimTime = lastClaimTime > 0 ?\n                                    lastClaimTime.add(claimWait) :\n                                    0;\n\n        secondsUntilAutoClaimAvailable = nextClaimTime > block.timestamp ?\n                                                    nextClaimTime.sub(block.timestamp) :\n                                                    0;\n    }\n\n    function getAccountAtIndex(uint256 index)\n        public view returns (\n            address,\n            int256,\n            int256,\n            uint256,\n            uint256,\n            uint256,\n            uint256,\n            uint256) {\n    \tif(index >= tokenHoldersMap.size()) {\n            return (0x0000000000000000000000000000000000000000, -1, -1, 0, 0, 0, 0, 0);\n        }\n\n        address account = tokenHoldersMap.getKeyAtIndex(index);\n\n        return getAccount(account);\n    }\n\n    function canAutoClaim(uint256 lastClaimTime) private view returns (bool) {\n    \tif(lastClaimTime > block.timestamp)  {\n    \t\treturn false;\n    \t}\n\n    \treturn block.timestamp.sub(lastClaimTime) >= claimWait;\n    }\n\n    function setBalance(address payable account, uint256 newBalance) external onlyOwner {\n    \tif(excludedFromDividends[account]) {\n    \t\treturn;\n    \t}\n\n    \tif(newBalance >= minimumTokenBalanceForDividends) {\n            _setBalance(account, newBalance);\n    \t\ttokenHoldersMap.set(account, newBalance);\n    \t}\n    \telse {\n            _setBalance(account, 0);\n    \t\ttokenHoldersMap.remove(account);\n    \t}\n\n    \tprocessAccount(account, true);\n    }\n\n    function process(uint256 gas) public returns (uint256, uint256, uint256) {\n    \tuint256 numberOfTokenHolders = tokenHoldersMap.keys.length;\n\n    \tif(numberOfTokenHolders == 0) {\n    \t\treturn (0, 0, lastProcessedIndex);\n    \t}\n\n    \tuint256 _lastProcessedIndex = lastProcessedIndex;\n\n    \tuint256 gasUsed = 0;\n\n    \tuint256 gasLeft = gasleft();\n\n    \tuint256 iterations = 0;\n    \tuint256 claims = 0;\n\n    \twhile(gasUsed < gas && iterations < numberOfTokenHolders) {\n    \t\t_lastProcessedIndex++;\n\n    \t\tif(_lastProcessedIndex >= tokenHoldersMap.keys.length) {\n    \t\t\t_lastProcessedIndex = 0;\n    \t\t}\n\n    \t\taddress account = tokenHoldersMap.keys[_lastProcessedIndex];\n\n    \t\tif(canAutoClaim(lastClaimTimes[account])) {\n    \t\t\tif(processAccount(payable(account), true)) {\n    \t\t\t\tclaims++;\n    \t\t\t}\n    \t\t}\n\n    \t\titerations++;\n\n    \t\tuint256 newGasLeft = gasleft();\n\n    \t\tif(gasLeft > newGasLeft) {\n    \t\t\tgasUsed = gasUsed.add(gasLeft.sub(newGasLeft));\n    \t\t}\n\n    \t\tgasLeft = newGasLeft;\n    \t}\n\n    \tlastProcessedIndex = _lastProcessedIndex;\n\n    \treturn (iterations, claims, lastProcessedIndex);\n    }\n\n    function processAccount(address payable account, bool automatic) public onlyOwner returns (bool) {\n        uint256 amount = _withdrawDividendOfUser(account);\n\n    \tif(amount > 0) {\n    \t\tlastClaimTimes[account] = block.timestamp;\n            emit Claim(account, amount, automatic);\n    \t\treturn true;\n    \t}\n\n    \treturn false;\n    }\n}\n",
  "sourcePath": "C:\\Users\\crick\\ANB\\contracts\\AnimeBNB.sol",
  "compiler": {
    "name": "solc",
    "version": "0.6.12+commit.27d51765.Emscripten.clang"
  },
  "schemaVersion": "3.4.2",
  "updatedAt": "2021-08-09T17:39:30.909Z",
  "networkType": "ethereum",
  "devdoc": {
    "kind": "dev",
    "methods": {
      "allowance(address,address)": {
        "details": "See {IERC20-allowance}."
      },
      "approve(address,uint256)": {
        "details": "See {IERC20-approve}. Requirements: - `spender` cannot be the zero address."
      },
      "balanceOf(address)": {
        "details": "See {IERC20-balanceOf}."
      },
      "decimals()": {
        "details": "Returns the number of decimals used to get its user representation. For example, if `decimals` equals `2`, a balance of `505` tokens should be displayed to a user as `5,05` (`505 / 10 ** 2`). Tokens usually opt for a value of 18, imitating the relationship between Ether and Wei. This is the value {ERC20} uses, unless this function is overridden; NOTE: This information is only used for _display_ purposes: it in no way affects any of the arithmetic of the contract, including {IERC20-balanceOf} and {IERC20-transfer}."
      },
      "decreaseAllowance(address,uint256)": {
        "details": "Atomically decreases the allowance granted to `spender` by the caller. This is an alternative to {approve} that can be used as a mitigation for problems described in {IERC20-approve}. Emits an {Approval} event indicating the updated allowance. Requirements: - `spender` cannot be the zero address. - `spender` must have allowance for the caller of at least `subtractedValue`."
      },
      "increaseAllowance(address,uint256)": {
        "details": "Atomically increases the allowance granted to `spender` by the caller. This is an alternative to {approve} that can be used as a mitigation for problems described in {IERC20-approve}. Emits an {Approval} event indicating the updated allowance. Requirements: - `spender` cannot be the zero address."
      },
      "name()": {
        "details": "Returns the name of the token."
      },
      "owner()": {
        "details": "Returns the address of the current owner."
      },
      "renounceOwnership()": {
        "details": "Leaves the contract without owner. It will not be possible to call `onlyOwner` functions anymore. Can only be called by the current owner. NOTE: Renouncing ownership will leave the contract without an owner, thereby removing any functionality that is only available to the owner."
      },
      "symbol()": {
        "details": "Returns the symbol of the token, usually a shorter version of the name."
      },
      "totalSupply()": {
        "details": "See {IERC20-totalSupply}."
      },
      "transfer(address,uint256)": {
        "details": "See {IERC20-transfer}. Requirements: - `recipient` cannot be the zero address. - the caller must have a balance of at least `amount`."
      },
      "transferFrom(address,address,uint256)": {
        "details": "See {IERC20-transferFrom}. Emits an {Approval} event indicating the updated allowance. This is not required by the EIP. See the note at the beginning of {ERC20}. Requirements: - `sender` and `recipient` cannot be the zero address. - `sender` must have a balance of at least `amount`. - the caller must have allowance for ``sender``'s tokens of at least `amount`."
      },
      "transferOwnership(address)": {
        "details": "Transfers ownership of the contract to a new account (`newOwner`). Can only be called by the current owner."
      }
    },
    "version": 1
  },
  "userdoc": {
    "kind": "user",
    "methods": {},
    "version": 1
  }
}