{
  "contractName": "DividendPayingToken",
  "abi": [
    {
      "inputs": [
        {
          "internalType": "string",
          "name": "_name",
          "type": "string"
        },
        {
          "internalType": "string",
          "name": "_symbol",
          "type": "string"
        }
      ],
      "stateMutability": "nonpayable",
      "type": "constructor"
    },
    {
      "anonymous": false,
      "inputs": [
        {
          "indexed": true,
          "internalType": "address",
          "name": "owner",
          "type": "address"
        },
        {
          "indexed": true,
          "internalType": "address",
          "name": "spender",
          "type": "address"
        },
        {
          "indexed": false,
          "internalType": "uint256",
          "name": "value",
          "type": "uint256"
        }
      ],
      "name": "Approval",
      "type": "event"
    },
    {
      "anonymous": false,
      "inputs": [
        {
          "indexed": true,
          "internalType": "address",
          "name": "to",
          "type": "address"
        },
        {
          "indexed": false,
          "internalType": "uint256",
          "name": "weiAmount",
          "type": "uint256"
        }
      ],
      "name": "DividendWithdrawn",
      "type": "event"
    },
    {
      "anonymous": false,
      "inputs": [
        {
          "indexed": true,
          "internalType": "address",
          "name": "from",
          "type": "address"
        },
        {
          "indexed": false,
          "internalType": "uint256",
          "name": "weiAmount",
          "type": "uint256"
        }
      ],
      "name": "DividendsDistributed",
      "type": "event"
    },
    {
      "anonymous": false,
      "inputs": [
        {
          "indexed": true,
          "internalType": "address",
          "name": "from",
          "type": "address"
        },
        {
          "indexed": true,
          "internalType": "address",
          "name": "to",
          "type": "address"
        },
        {
          "indexed": false,
          "internalType": "uint256",
          "name": "value",
          "type": "uint256"
        }
      ],
      "name": "Transfer",
      "type": "event"
    },
    {
      "inputs": [
        {
          "internalType": "address",
          "name": "owner",
          "type": "address"
        },
        {
          "internalType": "address",
          "name": "spender",
          "type": "address"
        }
      ],
      "name": "allowance",
      "outputs": [
        {
          "internalType": "uint256",
          "name": "",
          "type": "uint256"
        }
      ],
      "stateMutability": "view",
      "type": "function"
    },
    {
      "inputs": [
        {
          "internalType": "address",
          "name": "spender",
          "type": "address"
        },
        {
          "internalType": "uint256",
          "name": "amount",
          "type": "uint256"
        }
      ],
      "name": "approve",
      "outputs": [
        {
          "internalType": "bool",
          "name": "",
          "type": "bool"
        }
      ],
      "stateMutability": "nonpayable",
      "type": "function"
    },
    {
      "inputs": [
        {
          "internalType": "address",
          "name": "account",
          "type": "address"
        }
      ],
      "name": "balanceOf",
      "outputs": [
        {
          "internalType": "uint256",
          "name": "",
          "type": "uint256"
        }
      ],
      "stateMutability": "view",
      "type": "function"
    },
    {
      "inputs": [],
      "name": "decimals",
      "outputs": [
        {
          "internalType": "uint8",
          "name": "",
          "type": "uint8"
        }
      ],
      "stateMutability": "view",
      "type": "function"
    },
    {
      "inputs": [
        {
          "internalType": "address",
          "name": "spender",
          "type": "address"
        },
        {
          "internalType": "uint256",
          "name": "subtractedValue",
          "type": "uint256"
        }
      ],
      "name": "decreaseAllowance",
      "outputs": [
        {
          "internalType": "bool",
          "name": "",
          "type": "bool"
        }
      ],
      "stateMutability": "nonpayable",
      "type": "function"
    },
    {
      "inputs": [
        {
          "internalType": "address",
          "name": "spender",
          "type": "address"
        },
        {
          "internalType": "uint256",
          "name": "addedValue",
          "type": "uint256"
        }
      ],
      "name": "increaseAllowance",
      "outputs": [
        {
          "internalType": "bool",
          "name": "",
          "type": "bool"
        }
      ],
      "stateMutability": "nonpayable",
      "type": "function"
    },
    {
      "inputs": [],
      "name": "name",
      "outputs": [
        {
          "internalType": "string",
          "name": "",
          "type": "string"
        }
      ],
      "stateMutability": "view",
      "type": "function"
    },
    {
      "inputs": [],
      "name": "symbol",
      "outputs": [
        {
          "internalType": "string",
          "name": "",
          "type": "string"
        }
      ],
      "stateMutability": "view",
      "type": "function"
    },
    {
      "inputs": [],
      "name": "totalDividendsDistributed",
      "outputs": [
        {
          "internalType": "uint256",
          "name": "",
          "type": "uint256"
        }
      ],
      "stateMutability": "view",
      "type": "function"
    },
    {
      "inputs": [],
      "name": "totalSupply",
      "outputs": [
        {
          "internalType": "uint256",
          "name": "",
          "type": "uint256"
        }
      ],
      "stateMutability": "view",
      "type": "function"
    },
    {
      "inputs": [
        {
          "internalType": "address",
          "name": "recipient",
          "type": "address"
        },
        {
          "internalType": "uint256",
          "name": "amount",
          "type": "uint256"
        }
      ],
      "name": "transfer",
      "outputs": [
        {
          "internalType": "bool",
          "name": "",
          "type": "bool"
        }
      ],
      "stateMutability": "nonpayable",
      "type": "function"
    },
    {
      "inputs": [
        {
          "internalType": "address",
          "name": "sender",
          "type": "address"
        },
        {
          "internalType": "address",
          "name": "recipient",
          "type": "address"
        },
        {
          "internalType": "uint256",
          "name": "amount",
          "type": "uint256"
        }
      ],
      "name": "transferFrom",
      "outputs": [
        {
          "internalType": "bool",
          "name": "",
          "type": "bool"
        }
      ],
      "stateMutability": "nonpayable",
      "type": "function"
    },
    {
      "stateMutability": "payable",
      "type": "receive"
    },
    {
      "inputs": [],
      "name": "distributeDividends",
      "outputs": [],
      "stateMutability": "payable",
      "type": "function"
    },
    {
      "inputs": [],
      "name": "withdrawDividend",
      "outputs": [],
      "stateMutability": "nonpayable",
      "type": "function"
    },
    {
      "inputs": [
        {
          "internalType": "address",
          "name": "_owner",
          "type": "address"
        }
      ],
      "name": "dividendOf",
      "outputs": [
        {
          "internalType": "uint256",
          "name": "",
          "type": "uint256"
        }
      ],
      "stateMutability": "view",
      "type": "function"
    },
    {
      "inputs": [
        {
          "internalType": "address",
          "name": "_owner",
          "type": "address"
        }
      ],
      "name": "withdrawableDividendOf",
      "outputs": [
        {
          "internalType": "uint256",
          "name": "",
          "type": "uint256"
        }
      ],
      "stateMutability": "view",
      "type": "function"
    },
    {
      "inputs": [
        {
          "internalType": "address",
          "name": "_owner",
          "type": "address"
        }
      ],
      "name": "withdrawnDividendOf",
      "outputs": [
        {
          "internalType": "uint256",
          "name": "",
          "type": "uint256"
        }
      ],
      "stateMutability": "view",
      "type": "function"
    },
    {
      "inputs": [
        {
          "internalType": "address",
          "name": "_owner",
          "type": "address"
        }
      ],
      "name": "accumulativeDividendOf",
      "outputs": [
        {
          "internalType": "uint256",
          "name": "",
          "type": "uint256"
        }
      ],
      "stateMutability": "view",
      "type": "function"
    }
  ],
  "bytecode": "0x60806040523480156200001157600080fd5b506040516200104d3803806200104d833981810160405260408110156200003757600080fd5b81019080805160405193929190846401000000008211156200005857600080fd5b9083019060208201858111156200006e57600080fd5b82516401000000008111828201881017156200008957600080fd5b82525081516020918201929091019080838360005b83811015620000b85781810151838201526020016200009e565b50505050905090810190601f168015620000e65780820380516001836020036101000a031916815260200191505b50604052602001805160405193929190846401000000008211156200010a57600080fd5b9083019060208201858111156200012057600080fd5b82516401000000008111828201881017156200013b57600080fd5b82525081516020918201929091019080838360005b838110156200016a57818101518382015260200162000150565b50505050905090810190601f168015620001985780820380516001836020036101000a031916815260200191505b50604052505082518391508290620001b8906003906020850190620001d9565b508051620001ce906004906020840190620001d9565b505050505062000275565b828054600181600116156101000203166002900490600052602060002090601f016020900481019282601f106200021c57805160ff19168380011785556200024c565b828001600101855582156200024c579182015b828111156200024c5782518255916020019190600101906200022f565b506200025a9291506200025e565b5090565b5b808211156200025a57600081556001016200025f565b610dc880620002856000396000f3fe60806040526004361061010d5760003560e01c806370a0823111610095578063a457c2d711610064578063a457c2d7146103a6578063a8b9d240146103df578063a9059cbb14610412578063aafd847a1461044b578063dd62ed3e1461047e5761011c565b806370a082311461031657806385a6b3ae1461034957806391b89fba1461035e57806395d89b41146103915761011c565b806323b872dd116100dc57806323b872dd1461022757806327ce01471461026a578063313ce5671461029d57806339509351146102c85780636a474002146103015761011c565b806303c833021461012157806306fdde0314610129578063095ea7b3146101b357806318160ddd146102005761011c565b3661011c5761011a6104b9565b005b600080fd5b61011a6104b9565b34801561013557600080fd5b5061013e61054a565b6040805160208082528351818301528351919283929083019185019080838360005b83811015610178578181015183820152602001610160565b50505050905090810190601f1680156101a55780820380516001836020036101000a031916815260200191505b509250505060405180910390f35b3480156101bf57600080fd5b506101ec600480360360408110156101d657600080fd5b506001600160a01b0381351690602001356105e0565b604080519115158252519081900360200190f35b34801561020c57600080fd5b506102156105fe565b60408051918252519081900360200190f35b34801561023357600080fd5b506101ec6004803603606081101561024a57600080fd5b506001600160a01b03813581169160208101359091169060400135610604565b34801561027657600080fd5b506102156004803603602081101561028d57600080fd5b50356001600160a01b031661068b565b3480156102a957600080fd5b506102b26106ea565b6040805160ff9092168252519081900360200190f35b3480156102d457600080fd5b506101ec600480360360408110156102eb57600080fd5b506001600160a01b0381351690602001356106ef565b34801561030d57600080fd5b5061011a61073d565b34801561032257600080fd5b506102156004803603602081101561033957600080fd5b50356001600160a01b0316610749565b34801561035557600080fd5b50610215610764565b34801561036a57600080fd5b506102156004803603602081101561038157600080fd5b50356001600160a01b031661076a565b34801561039d57600080fd5b5061013e610775565b3480156103b257600080fd5b506101ec600480360360408110156103c957600080fd5b506001600160a01b0381351690602001356107d6565b3480156103eb57600080fd5b506102156004803603602081101561040257600080fd5b50356001600160a01b031661083e565b34801561041e57600080fd5b506101ec6004803603604081101561043557600080fd5b506001600160a01b03813516906020013561086a565b34801561045757600080fd5b506102156004803603602081101561046e57600080fd5b50356001600160a01b031661087e565b34801561048a57600080fd5b50610215600480360360408110156104a157600080fd5b506001600160a01b0381358116916020013516610899565b60006104c36105fe565b116104cd57600080fd5b3415610548576104fe6104de6105fe565b6104ec34600160801b6108c4565b816104f357fe5b600554919004610924565b60055560408051348152905133917fa493a9229478c3fcd73f66d2cdeb7f94fd0f341da924d1054236d78454116511919081900360200190a26008546105449034610924565b6008555b565b60038054604080516020601f60026000196101006001881615020190951694909404938401819004810282018101909252828152606093909290918301828280156105d65780601f106105ab576101008083540402835291602001916105d6565b820191906000526020600020905b8154815290600101906020018083116105b957829003601f168201915b5050505050905090565b60006105f46105ed61097e565b8484610982565b5060015b92915050565b60025490565b600061061184848461011c565b6106818461061d61097e565b61067c85604051806060016040528060288152602001610d22602891396001600160a01b038a1660009081526001602052604081209061065b61097e565b6001600160a01b031681526020810191909152604001600020549190610a6e565b610982565b5060019392505050565b6001600160a01b038116600090815260066020526040812054600160801b906106da906106d5906106cf6106ca6106c188610749565b600554906108c4565b610b05565b90610b15565b610b48565b816106e157fe5b0490505b919050565b601290565b60006105f46106fc61097e565b8461067c856001600061070d61097e565b6001600160a01b03908116825260208083019390935260409182016000908120918c168152925290205490610924565b61074633610b5b565b50565b6001600160a01b031660009081526020819052604090205490565b60085481565b60006105f88261083e565b60048054604080516020601f60026000196101006001881615020190951694909404938401819004810282018101909252828152606093909290918301828280156105d65780601f106105ab576101008083540402835291602001916105d6565b60006105f46107e361097e565b8461067c85604051806060016040528060258152602001610d6e602591396001600061080d61097e565b6001600160a01b03908116825260208083019390935260409182016000908120918d16815292529020549190610a6e565b6001600160a01b0381166000908152600760205260408120546105f8906108648461068b565b90610c9c565b60006105f461087761097e565b848461011c565b6001600160a01b031660009081526007602052604090205490565b6001600160a01b03918216600090815260016020908152604080832093909416825291909152205490565b6000826108d3575060006105f8565b828202828482816108e057fe5b041461091d5760405162461bcd60e51b8152600401808060200182810382526021815260200180610d016021913960400191505060405180910390fd5b9392505050565b60008282018381101561091d576040805162461bcd60e51b815260206004820152601b60248201527f536166654d6174683a206164646974696f6e206f766572666c6f770000000000604482015290519081900360640190fd5b3390565b6001600160a01b0383166109c75760405162461bcd60e51b8152600401808060200182810382526024815260200180610d4a6024913960400191505060405180910390fd5b6001600160a01b038216610a0c5760405162461bcd60e51b8152600401808060200182810382526022815260200180610cdf6022913960400191505060405180910390fd5b6001600160a01b03808416600081815260016020908152604080832094871680845294825291829020859055815185815291517f8c5be1e5ebec7d5bd14f71427d1e84f3dd0314c0f7b2291e5b200ac8c7c3b9259281900390910190a3505050565b60008184841115610afd5760405162461bcd60e51b81526004018080602001828103825283818151815260200191508051906020019080838360005b83811015610ac2578181015183820152602001610aaa565b50505050905090810190601f168015610aef5780820380516001836020036101000a031916815260200191505b509250505060405180910390fd5b505050900390565b600081818112156105f857600080fd5b6000828201818312801590610b2a5750838112155b80610b3f5750600083128015610b3f57508381125b61091d57600080fd5b600080821215610b5757600080fd5b5090565b600080610b678361083e565b90508015610c93576001600160a01b038316600090815260076020526040902054610b929082610924565b6001600160a01b038416600081815260076020908152604091829020939093558051848152905191927fee503bee2bb6a87e57bc57db795f98137327401a0e7b7ce42e37926cc1a9ca4d92918290030190a26040516000906001600160a01b03851690610bb890849084818181858888f193505050503d8060008114610c34576040519150601f19603f3d011682016040523d82523d6000602084013e610c39565b606091505b5050905080610c8b576001600160a01b038416600090815260076020526040902054610c659083610c9c565b6001600160a01b03851660009081526007602052604081209190915592506106e5915050565b5090506106e5565b50600092915050565b600061091d83836040518060400160405280601e81526020017f536166654d6174683a207375627472616374696f6e206f766572666c6f770000815250610a6e56fe45524332303a20617070726f766520746f20746865207a65726f2061646472657373536166654d6174683a206d756c7469706c69636174696f6e206f766572666c6f7745524332303a207472616e7366657220616d6f756e74206578636565647320616c6c6f77616e636545524332303a20617070726f76652066726f6d20746865207a65726f206164647265737345524332303a2064656372656173656420616c6c6f77616e63652062656c6f77207a65726fa26469706673582212208fe19425c81b2b1a6b0ced229354ab0e65f2d62cb075976cba2f0cf499e3969b64736f6c634300060c0033",
  "immutableReferences": {},
  "source": "// SPDX-License-Identifier: MIT\n\npragma solidity ^0.6.12;\n\nimport \"./ERC20.sol\";\nimport \"./SafeMath.sol\";\nimport \"./SafeMathUint.sol\";\nimport \"./SafeMathInt.sol\";\nimport \"./DividendPayingTokenInterface.sol\";\nimport \"./DividendPayingTokenOptionalInterface.sol\";\n\n\n/// @title Dividend-Paying Token\n/// @author Roger Wu (https://github.com/roger-wu)\n/// @dev A mintable ERC20 token that allows anyone to pay and distribute ether\n///  to token holders as dividends and allows token holders to withdraw their dividends.\n///  Reference: the source code of PoWH3D: https://etherscan.io/address/0xB3775fB83F7D12A36E0475aBdD1FCA35c091efBe#code\ncontract DividendPayingToken is ERC20, DividendPayingTokenInterface, DividendPayingTokenOptionalInterface {\n  using SafeMath for uint256;\n  using SafeMathUint for uint256;\n  using SafeMathInt for int256;\n\n  // With `magnitude`, we can properly distribute dividends even if the amount of received ether is small.\n  // For more discussion about choosing the value of `magnitude`,\n  //  see https://github.com/ethereum/EIPs/issues/1726#issuecomment-472352728\n  uint256 constant internal magnitude = 2**128;\n\n  uint256 internal magnifiedDividendPerShare;\n\n  // About dividendCorrection:\n  // If the token balance of a `_user` is never changed, the dividend of `_user` can be computed with:\n  //   `dividendOf(_user) = dividendPerShare * balanceOf(_user)`.\n  // When `balanceOf(_user)` is changed (via minting/burning/transferring tokens),\n  //   `dividendOf(_user)` should not be changed,\n  //   but the computed value of `dividendPerShare * balanceOf(_user)` is changed.\n  // To keep the `dividendOf(_user)` unchanged, we add a correction term:\n  //   `dividendOf(_user) = dividendPerShare * balanceOf(_user) + dividendCorrectionOf(_user)`,\n  //   where `dividendCorrectionOf(_user)` is updated whenever `balanceOf(_user)` is changed:\n  //   `dividendCorrectionOf(_user) = dividendPerShare * (old balanceOf(_user)) - (new balanceOf(_user))`.\n  // So now `dividendOf(_user)` returns the same value before and after `balanceOf(_user)` is changed.\n  mapping(address => int256) internal magnifiedDividendCorrections;\n  mapping(address => uint256) internal withdrawnDividends;\n\n  uint256 public totalDividendsDistributed;\n\n  constructor(string memory _name, string memory _symbol) public ERC20(_name, _symbol) {\n\n  }\n\n  /// @dev Distributes dividends whenever ether is paid to this contract.\n  receive() external payable {\n    distributeDividends();\n  }\n\n  /// @notice Distributes ether to token holders as dividends.\n  /// @dev It reverts if the total supply of tokens is 0.\n  /// It emits the `DividendsDistributed` event if the amount of received ether is greater than 0.\n  /// About undistributed ether:\n  ///   In each distribution, there is a small amount of ether not distributed,\n  ///     the magnified amount of which is\n  ///     `(msg.value * magnitude) % totalSupply()`.\n  ///   With a well-chosen `magnitude`, the amount of undistributed ether\n  ///     (de-magnified) in a distribution can be less than 1 wei.\n  ///   We can actually keep track of the undistributed ether in a distribution\n  ///     and try to distribute it in the next distribution,\n  ///     but keeping track of such data on-chain costs much more than\n  ///     the saved ether, so we don't do that.\n  function distributeDividends() public override payable {\n    require(totalSupply() > 0);\n\n    if (msg.value > 0) {\n      magnifiedDividendPerShare = magnifiedDividendPerShare.add(\n        (msg.value).mul(magnitude) / totalSupply()\n      );\n      emit DividendsDistributed(msg.sender, msg.value);\n\n      totalDividendsDistributed = totalDividendsDistributed.add(msg.value);\n    }\n  }\n\n  /// @notice Withdraws the ether distributed to the sender.\n  /// @dev It emits a `DividendWithdrawn` event if the amount of withdrawn ether is greater than 0.\n  function withdrawDividend() public virtual override {\n    _withdrawDividendOfUser(msg.sender);\n  }\n\n  /// @notice Withdraws the ether distributed to the sender.\n  /// @dev It emits a `DividendWithdrawn` event if the amount of withdrawn ether is greater than 0.\n  function _withdrawDividendOfUser(address payable user) internal returns (uint256) {\n    uint256 _withdrawableDividend = withdrawableDividendOf(user);\n    if (_withdrawableDividend > 0) {\n      withdrawnDividends[user] = withdrawnDividends[user].add(_withdrawableDividend);\n      emit DividendWithdrawn(user, _withdrawableDividend);\n      (bool success,) = user.call{value: _withdrawableDividend, gas: 3000}(\"\");\n\n      if(!success) {\n        withdrawnDividends[user] = withdrawnDividends[user].sub(_withdrawableDividend);\n        return 0;\n      }\n\n      return _withdrawableDividend;\n    }\n\n    return 0;\n  }\n\n\n  /// @notice View the amount of dividend in wei that an address can withdraw.\n  /// @param _owner The address of a token holder.\n  /// @return The amount of dividend in wei that `_owner` can withdraw.\n  function dividendOf(address _owner) public view override returns(uint256) {\n    return withdrawableDividendOf(_owner);\n  }\n\n  /// @notice View the amount of dividend in wei that an address can withdraw.\n  /// @param _owner The address of a token holder.\n  /// @return The amount of dividend in wei that `_owner` can withdraw.\n  function withdrawableDividendOf(address _owner) public view override returns(uint256) {\n    return accumulativeDividendOf(_owner).sub(withdrawnDividends[_owner]);\n  }\n\n  /// @notice View the amount of dividend in wei that an address has withdrawn.\n  /// @param _owner The address of a token holder.\n  /// @return The amount of dividend in wei that `_owner` has withdrawn.\n  function withdrawnDividendOf(address _owner) public view override returns(uint256) {\n    return withdrawnDividends[_owner];\n  }\n\n\n  /// @notice View the amount of dividend in wei that an address has earned in total.\n  /// @dev accumulativeDividendOf(_owner) = withdrawableDividendOf(_owner) + withdrawnDividendOf(_owner)\n  /// = (magnifiedDividendPerShare * balanceOf(_owner) + magnifiedDividendCorrections[_owner]) / magnitude\n  /// @param _owner The address of a token holder.\n  /// @return The amount of dividend in wei that `_owner` has earned in total.\n  function accumulativeDividendOf(address _owner) public view override returns(uint256) {\n    return magnifiedDividendPerShare.mul(balanceOf(_owner)).toInt256Safe()\n      .add(magnifiedDividendCorrections[_owner]).toUint256Safe() / magnitude;\n  }\n\n  /// @dev Internal function that transfer tokens from one address to another.\n  /// Update magnifiedDividendCorrections to keep dividends unchanged.\n  /// @param from The address to transfer from.\n  /// @param to The address to transfer to.\n  /// @param value The amount to be transferred.\n  function _transfer(address from, address to, uint256 value) internal virtual override {\n    require(false);\n\n    int256 _magCorrection = magnifiedDividendPerShare.mul(value).toInt256Safe();\n    magnifiedDividendCorrections[from] = magnifiedDividendCorrections[from].add(_magCorrection);\n    magnifiedDividendCorrections[to] = magnifiedDividendCorrections[to].sub(_magCorrection);\n  }\n\n  /// @dev Internal function that mints tokens to an account.\n  /// Update magnifiedDividendCorrections to keep dividends unchanged.\n  /// @param account The account that will receive the created tokens.\n  /// @param value The amount that will be created.\n  function _mint(address account, uint256 value) internal override {\n    super._mint(account, value);\n\n    magnifiedDividendCorrections[account] = magnifiedDividendCorrections[account]\n      .sub( (magnifiedDividendPerShare.mul(value)).toInt256Safe() );\n  }\n\n  /// @dev Internal function that burns an amount of the token of a given account.\n  /// Update magnifiedDividendCorrections to keep dividends unchanged.\n  /// @param account The account whose tokens will be burnt.\n  /// @param value The amount that will be burnt.\n  function _burn(address account, uint256 value) internal override {\n    super._burn(account, value);\n\n    magnifiedDividendCorrections[account] = magnifiedDividendCorrections[account]\n      .add( (magnifiedDividendPerShare.mul(value)).toInt256Safe() );\n  }\n\n  function _setBalance(address account, uint256 newBalance) internal {\n    uint256 currentBalance = balanceOf(account);\n\n    if(newBalance > currentBalance) {\n      uint256 mintAmount = newBalance.sub(currentBalance);\n      _mint(account, mintAmount);\n    } else if(newBalance < currentBalance) {\n      uint256 burnAmount = currentBalance.sub(newBalance);\n      _burn(account, burnAmount);\n    }\n  }\n}",
  "sourcePath": "C:\\Users\\crick\\ANB\\contracts\\DividendPayingToken.sol",
  "compiler": {
    "name": "solc",
    "version": "0.6.12+commit.27d51765.Emscripten.clang"
  },
  "schemaVersion": "3.4.2",
  "updatedAt": "2021-08-09T17:38:09.164Z",
  "devdoc": {
    "author": "Roger Wu (https://github.com/roger-wu)",
    "details": "A mintable ERC20 token that allows anyone to pay and distribute ether  to token holders as dividends and allows token holders to withdraw their dividends.  Reference: the source code of PoWH3D: https://etherscan.io/address/0xB3775fB83F7D12A36E0475aBdD1FCA35c091efBe#code",
    "kind": "dev",
    "methods": {
      "accumulativeDividendOf(address)": {
        "details": "accumulativeDividendOf(_owner) = withdrawableDividendOf(_owner) + withdrawnDividendOf(_owner) = (magnifiedDividendPerShare * balanceOf(_owner) + magnifiedDividendCorrections[_owner]) / magnitude",
        "params": {
          "_owner": "The address of a token holder."
        },
        "returns": {
          "_0": "The amount of dividend in wei that `_owner` has earned in total."
        }
      },
      "allowance(address,address)": {
        "details": "See {IERC20-allowance}."
      },
      "approve(address,uint256)": {
        "details": "See {IERC20-approve}. Requirements: - `spender` cannot be the zero address."
      },
      "balanceOf(address)": {
        "details": "See {IERC20-balanceOf}."
      },
      "decimals()": {
        "details": "Returns the number of decimals used to get its user representation. For example, if `decimals` equals `2`, a balance of `505` tokens should be displayed to a user as `5,05` (`505 / 10 ** 2`). Tokens usually opt for a value of 18, imitating the relationship between Ether and Wei. This is the value {ERC20} uses, unless this function is overridden; NOTE: This information is only used for _display_ purposes: it in no way affects any of the arithmetic of the contract, including {IERC20-balanceOf} and {IERC20-transfer}."
      },
      "decreaseAllowance(address,uint256)": {
        "details": "Atomically decreases the allowance granted to `spender` by the caller. This is an alternative to {approve} that can be used as a mitigation for problems described in {IERC20-approve}. Emits an {Approval} event indicating the updated allowance. Requirements: - `spender` cannot be the zero address. - `spender` must have allowance for the caller of at least `subtractedValue`."
      },
      "distributeDividends()": {
        "details": "It reverts if the total supply of tokens is 0. It emits the `DividendsDistributed` event if the amount of received ether is greater than 0. About undistributed ether:   In each distribution, there is a small amount of ether not distributed,     the magnified amount of which is     `(msg.value * magnitude) % totalSupply()`.   With a well-chosen `magnitude`, the amount of undistributed ether     (de-magnified) in a distribution can be less than 1 wei.   We can actually keep track of the undistributed ether in a distribution     and try to distribute it in the next distribution,     but keeping track of such data on-chain costs much more than     the saved ether, so we don't do that."
      },
      "dividendOf(address)": {
        "params": {
          "_owner": "The address of a token holder."
        },
        "returns": {
          "_0": "The amount of dividend in wei that `_owner` can withdraw."
        }
      },
      "increaseAllowance(address,uint256)": {
        "details": "Atomically increases the allowance granted to `spender` by the caller. This is an alternative to {approve} that can be used as a mitigation for problems described in {IERC20-approve}. Emits an {Approval} event indicating the updated allowance. Requirements: - `spender` cannot be the zero address."
      },
      "name()": {
        "details": "Returns the name of the token."
      },
      "symbol()": {
        "details": "Returns the symbol of the token, usually a shorter version of the name."
      },
      "totalSupply()": {
        "details": "See {IERC20-totalSupply}."
      },
      "transfer(address,uint256)": {
        "details": "See {IERC20-transfer}. Requirements: - `recipient` cannot be the zero address. - the caller must have a balance of at least `amount`."
      },
      "transferFrom(address,address,uint256)": {
        "details": "See {IERC20-transferFrom}. Emits an {Approval} event indicating the updated allowance. This is not required by the EIP. See the note at the beginning of {ERC20}. Requirements: - `sender` and `recipient` cannot be the zero address. - `sender` must have a balance of at least `amount`. - the caller must have allowance for ``sender``'s tokens of at least `amount`."
      },
      "withdrawDividend()": {
        "details": "It emits a `DividendWithdrawn` event if the amount of withdrawn ether is greater than 0."
      },
      "withdrawableDividendOf(address)": {
        "params": {
          "_owner": "The address of a token holder."
        },
        "returns": {
          "_0": "The amount of dividend in wei that `_owner` can withdraw."
        }
      },
      "withdrawnDividendOf(address)": {
        "params": {
          "_owner": "The address of a token holder."
        },
        "returns": {
          "_0": "The amount of dividend in wei that `_owner` has withdrawn."
        }
      }
    },
    "title": "Dividend-Paying Token",
    "version": 1
  },
  "userdoc": {
    "kind": "user",
    "methods": {
      "accumulativeDividendOf(address)": {
        "notice": "View the amount of dividend in wei that an address has earned in total."
      },
      "distributeDividends()": {
        "notice": "Distributes ether to token holders as dividends."
      },
      "dividendOf(address)": {
        "notice": "View the amount of dividend in wei that an address can withdraw."
      },
      "withdrawDividend()": {
        "notice": "Withdraws the ether distributed to the sender."
      },
      "withdrawableDividendOf(address)": {
        "notice": "View the amount of dividend in wei that an address can withdraw."
      },
      "withdrawnDividendOf(address)": {
        "notice": "View the amount of dividend in wei that an address has withdrawn."
      }
    },
    "version": 1
  }
}