{
  "contractName": "TIKIDividendTracker",
  "abi": [
    {
      "inputs": [],
      "stateMutability": "nonpayable",
      "type": "constructor"
    },
    {
      "anonymous": false,
      "inputs": [
        {
          "indexed": true,
          "internalType": "address",
          "name": "owner",
          "type": "address"
        },
        {
          "indexed": true,
          "internalType": "address",
          "name": "spender",
          "type": "address"
        },
        {
          "indexed": false,
          "internalType": "uint256",
          "name": "value",
          "type": "uint256"
        }
      ],
      "name": "Approval",
      "type": "event"
    },
    {
      "anonymous": false,
      "inputs": [
        {
          "indexed": true,
          "internalType": "address",
          "name": "account",
          "type": "address"
        },
        {
          "indexed": false,
          "internalType": "uint256",
          "name": "amount",
          "type": "uint256"
        },
        {
          "indexed": true,
          "internalType": "bool",
          "name": "automatic",
          "type": "bool"
        }
      ],
      "name": "Claim",
      "type": "event"
    },
    {
      "anonymous": false,
      "inputs": [
        {
          "indexed": true,
          "internalType": "uint256",
          "name": "newValue",
          "type": "uint256"
        },
        {
          "indexed": true,
          "internalType": "uint256",
          "name": "oldValue",
          "type": "uint256"
        }
      ],
      "name": "ClaimWaitUpdated",
      "type": "event"
    },
    {
      "anonymous": false,
      "inputs": [
        {
          "indexed": true,
          "internalType": "address",
          "name": "to",
          "type": "address"
        },
        {
          "indexed": false,
          "internalType": "uint256",
          "name": "weiAmount",
          "type": "uint256"
        }
      ],
      "name": "DividendWithdrawn",
      "type": "event"
    },
    {
      "anonymous": false,
      "inputs": [
        {
          "indexed": true,
          "internalType": "address",
          "name": "from",
          "type": "address"
        },
        {
          "indexed": false,
          "internalType": "uint256",
          "name": "weiAmount",
          "type": "uint256"
        }
      ],
      "name": "DividendsDistributed",
      "type": "event"
    },
    {
      "anonymous": false,
      "inputs": [
        {
          "indexed": true,
          "internalType": "address",
          "name": "account",
          "type": "address"
        }
      ],
      "name": "ExcludeFromDividends",
      "type": "event"
    },
    {
      "anonymous": false,
      "inputs": [
        {
          "indexed": true,
          "internalType": "address",
          "name": "previousOwner",
          "type": "address"
        },
        {
          "indexed": true,
          "internalType": "address",
          "name": "newOwner",
          "type": "address"
        }
      ],
      "name": "OwnershipTransferred",
      "type": "event"
    },
    {
      "anonymous": false,
      "inputs": [
        {
          "indexed": true,
          "internalType": "address",
          "name": "from",
          "type": "address"
        },
        {
          "indexed": true,
          "internalType": "address",
          "name": "to",
          "type": "address"
        },
        {
          "indexed": false,
          "internalType": "uint256",
          "name": "value",
          "type": "uint256"
        }
      ],
      "name": "Transfer",
      "type": "event"
    },
    {
      "inputs": [
        {
          "internalType": "address",
          "name": "_owner",
          "type": "address"
        }
      ],
      "name": "accumulativeDividendOf",
      "outputs": [
        {
          "internalType": "uint256",
          "name": "",
          "type": "uint256"
        }
      ],
      "stateMutability": "view",
      "type": "function"
    },
    {
      "inputs": [
        {
          "internalType": "address",
          "name": "owner",
          "type": "address"
        },
        {
          "internalType": "address",
          "name": "spender",
          "type": "address"
        }
      ],
      "name": "allowance",
      "outputs": [
        {
          "internalType": "uint256",
          "name": "",
          "type": "uint256"
        }
      ],
      "stateMutability": "view",
      "type": "function"
    },
    {
      "inputs": [
        {
          "internalType": "address",
          "name": "spender",
          "type": "address"
        },
        {
          "internalType": "uint256",
          "name": "amount",
          "type": "uint256"
        }
      ],
      "name": "approve",
      "outputs": [
        {
          "internalType": "bool",
          "name": "",
          "type": "bool"
        }
      ],
      "stateMutability": "nonpayable",
      "type": "function"
    },
    {
      "inputs": [
        {
          "internalType": "address",
          "name": "account",
          "type": "address"
        }
      ],
      "name": "balanceOf",
      "outputs": [
        {
          "internalType": "uint256",
          "name": "",
          "type": "uint256"
        }
      ],
      "stateMutability": "view",
      "type": "function"
    },
    {
      "inputs": [],
      "name": "claimWait",
      "outputs": [
        {
          "internalType": "uint256",
          "name": "",
          "type": "uint256"
        }
      ],
      "stateMutability": "view",
      "type": "function"
    },
    {
      "inputs": [],
      "name": "decimals",
      "outputs": [
        {
          "internalType": "uint8",
          "name": "",
          "type": "uint8"
        }
      ],
      "stateMutability": "view",
      "type": "function"
    },
    {
      "inputs": [
        {
          "internalType": "address",
          "name": "spender",
          "type": "address"
        },
        {
          "internalType": "uint256",
          "name": "subtractedValue",
          "type": "uint256"
        }
      ],
      "name": "decreaseAllowance",
      "outputs": [
        {
          "internalType": "bool",
          "name": "",
          "type": "bool"
        }
      ],
      "stateMutability": "nonpayable",
      "type": "function"
    },
    {
      "inputs": [],
      "name": "distributeDividends",
      "outputs": [],
      "stateMutability": "payable",
      "type": "function"
    },
    {
      "inputs": [
        {
          "internalType": "address",
          "name": "_owner",
          "type": "address"
        }
      ],
      "name": "dividendOf",
      "outputs": [
        {
          "internalType": "uint256",
          "name": "",
          "type": "uint256"
        }
      ],
      "stateMutability": "view",
      "type": "function"
    },
    {
      "inputs": [
        {
          "internalType": "address",
          "name": "",
          "type": "address"
        }
      ],
      "name": "excludedFromDividends",
      "outputs": [
        {
          "internalType": "bool",
          "name": "",
          "type": "bool"
        }
      ],
      "stateMutability": "view",
      "type": "function"
    },
    {
      "inputs": [
        {
          "internalType": "address",
          "name": "spender",
          "type": "address"
        },
        {
          "internalType": "uint256",
          "name": "addedValue",
          "type": "uint256"
        }
      ],
      "name": "increaseAllowance",
      "outputs": [
        {
          "internalType": "bool",
          "name": "",
          "type": "bool"
        }
      ],
      "stateMutability": "nonpayable",
      "type": "function"
    },
    {
      "inputs": [
        {
          "internalType": "address",
          "name": "",
          "type": "address"
        }
      ],
      "name": "lastClaimTimes",
      "outputs": [
        {
          "internalType": "uint256",
          "name": "",
          "type": "uint256"
        }
      ],
      "stateMutability": "view",
      "type": "function"
    },
    {
      "inputs": [],
      "name": "lastProcessedIndex",
      "outputs": [
        {
          "internalType": "uint256",
          "name": "",
          "type": "uint256"
        }
      ],
      "stateMutability": "view",
      "type": "function"
    },
    {
      "inputs": [],
      "name": "minimumTokenBalanceForDividends",
      "outputs": [
        {
          "internalType": "uint256",
          "name": "",
          "type": "uint256"
        }
      ],
      "stateMutability": "view",
      "type": "function"
    },
    {
      "inputs": [],
      "name": "name",
      "outputs": [
        {
          "internalType": "string",
          "name": "",
          "type": "string"
        }
      ],
      "stateMutability": "view",
      "type": "function"
    },
    {
      "inputs": [],
      "name": "owner",
      "outputs": [
        {
          "internalType": "address",
          "name": "",
          "type": "address"
        }
      ],
      "stateMutability": "view",
      "type": "function"
    },
    {
      "inputs": [],
      "name": "renounceOwnership",
      "outputs": [],
      "stateMutability": "nonpayable",
      "type": "function"
    },
    {
      "inputs": [],
      "name": "symbol",
      "outputs": [
        {
          "internalType": "string",
          "name": "",
          "type": "string"
        }
      ],
      "stateMutability": "view",
      "type": "function"
    },
    {
      "inputs": [],
      "name": "totalDividendsDistributed",
      "outputs": [
        {
          "internalType": "uint256",
          "name": "",
          "type": "uint256"
        }
      ],
      "stateMutability": "view",
      "type": "function"
    },
    {
      "inputs": [],
      "name": "totalSupply",
      "outputs": [
        {
          "internalType": "uint256",
          "name": "",
          "type": "uint256"
        }
      ],
      "stateMutability": "view",
      "type": "function"
    },
    {
      "inputs": [
        {
          "internalType": "address",
          "name": "recipient",
          "type": "address"
        },
        {
          "internalType": "uint256",
          "name": "amount",
          "type": "uint256"
        }
      ],
      "name": "transfer",
      "outputs": [
        {
          "internalType": "bool",
          "name": "",
          "type": "bool"
        }
      ],
      "stateMutability": "nonpayable",
      "type": "function"
    },
    {
      "inputs": [
        {
          "internalType": "address",
          "name": "sender",
          "type": "address"
        },
        {
          "internalType": "address",
          "name": "recipient",
          "type": "address"
        },
        {
          "internalType": "uint256",
          "name": "amount",
          "type": "uint256"
        }
      ],
      "name": "transferFrom",
      "outputs": [
        {
          "internalType": "bool",
          "name": "",
          "type": "bool"
        }
      ],
      "stateMutability": "nonpayable",
      "type": "function"
    },
    {
      "inputs": [
        {
          "internalType": "address",
          "name": "newOwner",
          "type": "address"
        }
      ],
      "name": "transferOwnership",
      "outputs": [],
      "stateMutability": "nonpayable",
      "type": "function"
    },
    {
      "inputs": [
        {
          "internalType": "address",
          "name": "_owner",
          "type": "address"
        }
      ],
      "name": "withdrawableDividendOf",
      "outputs": [
        {
          "internalType": "uint256",
          "name": "",
          "type": "uint256"
        }
      ],
      "stateMutability": "view",
      "type": "function"
    },
    {
      "inputs": [
        {
          "internalType": "address",
          "name": "_owner",
          "type": "address"
        }
      ],
      "name": "withdrawnDividendOf",
      "outputs": [
        {
          "internalType": "uint256",
          "name": "",
          "type": "uint256"
        }
      ],
      "stateMutability": "view",
      "type": "function"
    },
    {
      "stateMutability": "payable",
      "type": "receive"
    },
    {
      "inputs": [],
      "name": "withdrawDividend",
      "outputs": [],
      "stateMutability": "nonpayable",
      "type": "function"
    },
    {
      "inputs": [
        {
          "internalType": "address",
          "name": "account",
          "type": "address"
        }
      ],
      "name": "excludeFromDividends",
      "outputs": [],
      "stateMutability": "nonpayable",
      "type": "function"
    },
    {
      "inputs": [
        {
          "internalType": "uint256",
          "name": "newClaimWait",
          "type": "uint256"
        }
      ],
      "name": "updateClaimWait",
      "outputs": [],
      "stateMutability": "nonpayable",
      "type": "function"
    },
    {
      "inputs": [],
      "name": "getLastProcessedIndex",
      "outputs": [
        {
          "internalType": "uint256",
          "name": "",
          "type": "uint256"
        }
      ],
      "stateMutability": "view",
      "type": "function"
    },
    {
      "inputs": [],
      "name": "getNumberOfTokenHolders",
      "outputs": [
        {
          "internalType": "uint256",
          "name": "",
          "type": "uint256"
        }
      ],
      "stateMutability": "view",
      "type": "function"
    },
    {
      "inputs": [
        {
          "internalType": "address",
          "name": "_account",
          "type": "address"
        }
      ],
      "name": "getAccount",
      "outputs": [
        {
          "internalType": "address",
          "name": "account",
          "type": "address"
        },
        {
          "internalType": "int256",
          "name": "index",
          "type": "int256"
        },
        {
          "internalType": "int256",
          "name": "iterationsUntilProcessed",
          "type": "int256"
        },
        {
          "internalType": "uint256",
          "name": "withdrawableDividends",
          "type": "uint256"
        },
        {
          "internalType": "uint256",
          "name": "totalDividends",
          "type": "uint256"
        },
        {
          "internalType": "uint256",
          "name": "lastClaimTime",
          "type": "uint256"
        },
        {
          "internalType": "uint256",
          "name": "nextClaimTime",
          "type": "uint256"
        },
        {
          "internalType": "uint256",
          "name": "secondsUntilAutoClaimAvailable",
          "type": "uint256"
        }
      ],
      "stateMutability": "view",
      "type": "function"
    },
    {
      "inputs": [
        {
          "internalType": "uint256",
          "name": "index",
          "type": "uint256"
        }
      ],
      "name": "getAccountAtIndex",
      "outputs": [
        {
          "internalType": "address",
          "name": "",
          "type": "address"
        },
        {
          "internalType": "int256",
          "name": "",
          "type": "int256"
        },
        {
          "internalType": "int256",
          "name": "",
          "type": "int256"
        },
        {
          "internalType": "uint256",
          "name": "",
          "type": "uint256"
        },
        {
          "internalType": "uint256",
          "name": "",
          "type": "uint256"
        },
        {
          "internalType": "uint256",
          "name": "",
          "type": "uint256"
        },
        {
          "internalType": "uint256",
          "name": "",
          "type": "uint256"
        },
        {
          "internalType": "uint256",
          "name": "",
          "type": "uint256"
        }
      ],
      "stateMutability": "view",
      "type": "function"
    },
    {
      "inputs": [
        {
          "internalType": "address payable",
          "name": "account",
          "type": "address"
        },
        {
          "internalType": "uint256",
          "name": "newBalance",
          "type": "uint256"
        }
      ],
      "name": "setBalance",
      "outputs": [],
      "stateMutability": "nonpayable",
      "type": "function"
    },
    {
      "inputs": [
        {
          "internalType": "uint256",
          "name": "gas",
          "type": "uint256"
        }
      ],
      "name": "process",
      "outputs": [
        {
          "internalType": "uint256",
          "name": "",
          "type": "uint256"
        },
        {
          "internalType": "uint256",
          "name": "",
          "type": "uint256"
        },
        {
          "internalType": "uint256",
          "name": "",
          "type": "uint256"
        }
      ],
      "stateMutability": "nonpayable",
      "type": "function"
    },
    {
      "inputs": [
        {
          "internalType": "address payable",
          "name": "account",
          "type": "address"
        },
        {
          "internalType": "bool",
          "name": "automatic",
          "type": "bool"
        }
      ],
      "name": "processAccount",
      "outputs": [
        {
          "internalType": "bool",
          "name": "",
          "type": "bool"
        }
      ],
      "stateMutability": "nonpayable",
      "type": "function"
    }
  ],
  "bytecode": "0x60a06040523480156200001157600080fd5b5060408051808201825260158082527f54494b495f4469766964656e645f547261636b65720000000000000000000000602080840182815285518087019096529285528401528151919291839183916200006e9160039162000108565b5080516200008490600490602084019062000108565b505050505060006200009b6200010360201b60201c565b600980546001600160a01b0319166001600160a01b038316908117909155604051919250906000907f8be0079c531659141344cd1fd0a4f28419497f9722a3daafe3b4186f6b6457e0908290a350610e1060115569021e19e0c9bab2400000608052620001aa565b335b90565b828054600181600116156101000203166002900490600052602060002090601f016020900481019282601f106200014b57805160ff19168380011785556200017b565b828001600101855582156200017b579182015b828111156200017b5782518255916020019190600101906200015e565b50620001899291506200018d565b5090565b6200010591905b8082111562000189576000815560010162000194565b6080516122b2620001ca6000398061117a528061124752506122b26000f3fe6080604052600436106102085760003560e01c8063715018a611610118578063bc4c4b37116100a0578063e7841ec01161006f578063e7841ec0146107d0578063e98030c7146107e5578063f2fde38b1461080f578063fbcbc0f114610842578063ffb2c4791461087557610217565b8063bc4c4b371461070c578063be10b61414610747578063dd62ed3e1461075c578063e30443bc1461079757610217565b806395d89b41116100e757806395d89b411461061f578063a457c2d714610634578063a8b9d2401461066d578063a9059cbb146106a0578063aafd847a146106d957610217565b8063715018a61461059157806385a6b3ae146105a65780638da5cb5b146105bb57806391b89fba146105ec57610217565b80633009a6091161019b5780634e7b827f1161016a5780634e7b827f1461048c5780635183d6fd146104bf5780636a474002146105345780636f2789ec1461054957806370a082311461055e57610217565b80633009a609146103e0578063313ce567146103f557806331e79db014610420578063395093511461045357610217565b806318160ddd116101d757806318160ddd14610322578063226cfa3d1461033757806323b872dd1461036a57806327ce0147146103ad57610217565b806303c833021461021c57806306fdde0314610224578063095ea7b3146102ae57806309bbedde146102fb57610217565b36610217576102156108bd565b005b600080fd5b6102156108bd565b34801561023057600080fd5b50610239610960565b6040805160208082528351818301528351919283929083019185019080838360005b8381101561027357818101518382015260200161025b565b50505050905090810190601f1680156102a05780820380516001836020036101000a031916815260200191505b509250505060405180910390f35b3480156102ba57600080fd5b506102e7600480360360408110156102d157600080fd5b506001600160a01b0381351690602001356109f6565b604080519115158252519081900360200190f35b34801561030757600080fd5b50610310610a14565b60408051918252519081900360200190f35b34801561032e57600080fd5b50610310610a1a565b34801561034357600080fd5b506103106004803603602081101561035a57600080fd5b50356001600160a01b0316610a20565b34801561037657600080fd5b506102e76004803603606081101561038d57600080fd5b506001600160a01b03813581169160208101359091169060400135610a32565b3480156103b957600080fd5b50610310600480360360208110156103d057600080fd5b50356001600160a01b0316610abf565b3480156103ec57600080fd5b50610310610b2a565b34801561040157600080fd5b5061040a610b30565b6040805160ff9092168252519081900360200190f35b34801561042c57600080fd5b506102156004803603602081101561044357600080fd5b50356001600160a01b0316610b35565b34801561045f57600080fd5b506102e76004803603604081101561047657600080fd5b506001600160a01b038135169060200135610c91565b34801561049857600080fd5b506102e7600480360360208110156104af57600080fd5b50356001600160a01b0316610ce5565b3480156104cb57600080fd5b506104e9600480360360208110156104e257600080fd5b5035610cfa565b604080516001600160a01b0390991689526020890197909752878701959095526060870193909352608086019190915260a085015260c084015260e083015251908190036101000190f35b34801561054057600080fd5b50610215610e59565b34801561055557600080fd5b50610310610e90565b34801561056a57600080fd5b506103106004803603602081101561058157600080fd5b50356001600160a01b0316610e96565b34801561059d57600080fd5b50610215610eb1565b3480156105b257600080fd5b50610310610f53565b3480156105c757600080fd5b506105d0610f59565b604080516001600160a01b039092168252519081900360200190f35b3480156105f857600080fd5b506103106004803603602081101561060f57600080fd5b50356001600160a01b0316610f68565b34801561062b57600080fd5b50610239610f73565b34801561064057600080fd5b506102e76004803603604081101561065757600080fd5b506001600160a01b038135169060200135610fd4565b34801561067957600080fd5b506103106004803603602081101561069057600080fd5b50356001600160a01b0316611042565b3480156106ac57600080fd5b506102e7600480360360408110156106c357600080fd5b506001600160a01b038135169060200135611074565b3480156106e557600080fd5b50610310600480360360208110156106fc57600080fd5b50356001600160a01b0316611088565b34801561071857600080fd5b506102e76004803603604081101561072f57600080fd5b506001600160a01b03813516906020013515156110a3565b34801561075357600080fd5b50610310611178565b34801561076857600080fd5b506103106004803603604081101561077f57600080fd5b506001600160a01b038135811691602001351661119c565b3480156107a357600080fd5b50610215600480360360408110156107ba57600080fd5b506001600160a01b0381351690602001356111c7565b3480156107dc57600080fd5b50610310611391565b3480156107f157600080fd5b506102156004803603602081101561080857600080fd5b5035611397565b34801561081b57600080fd5b506102156004803603602081101561083257600080fd5b50356001600160a01b03166114b3565b34801561084e57600080fd5b506104e96004803603602081101561086557600080fd5b50356001600160a01b03166115ac565b34801561088157600080fd5b5061089f6004803603602081101561089857600080fd5b5035611746565b60408051938452602084019290925282820152519081900360600190f35b60006108c7610a1a565b116108d157600080fd5b341561095e5761090e6108e2610a1a565b6108f634600160801b63ffffffff61185016565b816108fd57fe5b60055491900463ffffffff6118b016565b60055560408051348152905133917fa493a9229478c3fcd73f66d2cdeb7f94fd0f341da924d1054236d78454116511919081900360200190a260085461095a903463ffffffff6118b016565b6008555b565b60038054604080516020601f60026000196101006001881615020190951694909404938401819004810282018101909252828152606093909290918301828280156109ec5780601f106109c1576101008083540402835291602001916109ec565b820191906000526020600020905b8154815290600101906020018083116109cf57829003601f168201915b5050505050905090565b6000610a0a610a0361190a565b848461190e565b5060015b92915050565b600a5490565b60025490565b60106020526000908152604090205481565b6000610a3f8484846119fa565b610ab584610a4b61190a565b610ab08560405180606001604052806028815260200161218f602891396001600160a01b038a16600090815260016020526040812090610a8961190a565b6001600160a01b03168152602081019190915260400160002054919063ffffffff611a3116565b61190e565b5060019392505050565b6001600160a01b038116600090815260066020526040812054600160801b90610b1a90610b1590610b09610b04610af588610e96565b6005549063ffffffff61185016565b611ac8565b9063ffffffff611ad816565b611b0b565b81610b2157fe5b0490505b919050565b600e5481565b601290565b610b3d61190a565b6009546001600160a01b03908116911614610b8d576040805162461bcd60e51b815260206004820181905260248201526000805160206121b7833981519152604482015290519081900360640190fd5b6001600160a01b0381166000908152600f602052604090205460ff1615610bb357600080fd5b6001600160a01b0381166000908152600f60205260408120805460ff19166001179055610be1908290611b1e565b6040805163131836e760e21b8152600a60048201526001600160a01b0383166024820152905173__IterableMapping_______________________91634c60db9c916044808301926000929190829003018186803b158015610c4257600080fd5b505af4158015610c56573d6000803e3d6000fd5b50506040516001600160a01b03841692507fa878b31040b2e6d0a9a3d3361209db3908ba62014b0dca52adbaee451d128b259150600090a250565b6000610a0a610c9e61190a565b84610ab08560016000610caf61190a565b6001600160a01b03908116825260208083019390935260409182016000908120918c16815292529020549063ffffffff6118b016565b600f6020526000908152604090205460ff1681565b600080600080600080600080600a73__IterableMapping_______________________63deb3d89690916040518263ffffffff1660e01b81526004018082815260200191505060206040518083038186803b158015610d5857600080fd5b505af4158015610d6c573d6000803e3d6000fd5b505050506040513d6020811015610d8257600080fd5b50518910610da9575060009650600019955085945086935083925082915081905080610e4e565b6000600a73__IterableMapping_______________________63d1aa9e7e90918c6040518363ffffffff1660e01b8152600401808381526020018281526020019250505060206040518083038186803b158015610e0557600080fd5b505af4158015610e19573d6000803e3d6000fd5b505050506040513d6020811015610e2f57600080fd5b50519050610e3c816115ac565b98509850985098509850985098509850505b919395975091939597565b60405162461bcd60e51b81526004018080602001828103825260658152602001806120de6065913960800191505060405180910390fd5b60115481565b6001600160a01b031660009081526020819052604090205490565b610eb961190a565b6009546001600160a01b03908116911614610f09576040805162461bcd60e51b815260206004820181905260248201526000805160206121b7833981519152604482015290519081900360640190fd5b6009546040516000916001600160a01b0316907f8be0079c531659141344cd1fd0a4f28419497f9722a3daafe3b4186f6b6457e0908390a3600980546001600160a01b0319169055565b60085481565b6009546001600160a01b031690565b6000610a0e82611042565b60048054604080516020601f60026000196101006001881615020190951694909404938401819004810282018101909252828152606093909290918301828280156109ec5780601f106109c1576101008083540402835291602001916109ec565b6000610a0a610fe161190a565b84610ab085604051806060016040528060258152602001612258602591396001600061100b61190a565b6001600160a01b03908116825260208083019390935260409182016000908120918d1681529252902054919063ffffffff611a3116565b6001600160a01b038116600090815260076020526040812054610a0e9061106884610abf565b9063ffffffff611b8316565b6000610a0a61108161190a565b84846119fa565b6001600160a01b031660009081526007602052604090205490565b60006110ad61190a565b6009546001600160a01b039081169116146110fd576040805162461bcd60e51b815260206004820181905260248201526000805160206121b7833981519152604482015290519081900360640190fd5b600061110884611bc5565b9050801561116e576001600160a01b0384166000818152601060209081526040918290204290558151848152915186151593927fa2c38e2d2fb7e3e1912d937fd1ca11ed6d51864dee4cfa7a7bf02becd7acf09292908290030190a36001915050610a0e565b5060009392505050565b7f000000000000000000000000000000000000000000000000000000000000000081565b6001600160a01b03918216600090815260016020908152604080832093909416825291909152205490565b6111cf61190a565b6009546001600160a01b0390811691161461121f576040805162461bcd60e51b815260206004820181905260248201526000805160206121b7833981519152604482015290519081900360640190fd5b6001600160a01b0382166000908152600f602052604090205460ff16156112455761138d565b7f000000000000000000000000000000000000000000000000000000000000000081106112fb576112768282611b1e565b60408051632f0ad01760e21b8152600a60048201526001600160a01b038416602482015260448101839052905173__IterableMapping_______________________9163bc2b405c916064808301926000929190829003018186803b1580156112de57600080fd5b505af41580156112f2573d6000803e3d6000fd5b50505050611380565b611306826000611b1e565b6040805163131836e760e21b8152600a60048201526001600160a01b0384166024820152905173__IterableMapping_______________________91634c60db9c916044808301926000929190829003018186803b15801561136757600080fd5b505af415801561137b573d6000803e3d6000fd5b505050505b61138b8260016110a3565b505b5050565b600e5490565b61139f61190a565b6009546001600160a01b039081169116146113ef576040805162461bcd60e51b815260206004820181905260248201526000805160206121b7833981519152604482015290519081900360640190fd5b610e1081101580156114045750620151808111155b61143f5760405162461bcd60e51b815260040180806020018281038252604a815260200180612094604a913960600191505060405180910390fd5b6011548114156114805760405162461bcd60e51b815260040180806020018281038252603c8152602001806121f8603c913960400191505060405180910390fd5b60115460405182907f474ea64804364a1e29a4487ddb63c3342a2dd826ccd8acf48825e680a0e6f20f90600090a3601155565b6114bb61190a565b6009546001600160a01b0390811691161461150b576040805162461bcd60e51b815260206004820181905260248201526000805160206121b7833981519152604482015290519081900360640190fd5b6001600160a01b0381166115505760405162461bcd60e51b815260040180806020018281038252602681526020018061204c6026913960400191505060405180910390fd5b6009546040516001600160a01b038084169216907f8be0079c531659141344cd1fd0a4f28419497f9722a3daafe3b4186f6b6457e090600090a3600980546001600160a01b0319166001600160a01b0392909216919091179055565b600080600080600080600080889750600a73__IterableMapping_______________________6317e142d190918a6040518363ffffffff1660e01b815260040180838152602001826001600160a01b03166001600160a01b031681526020019250505060206040518083038186803b15801561162757600080fd5b505af415801561163b573d6000803e3d6000fd5b505050506040513d602081101561165157600080fd5b505196506000199550600087126116c757600e5487111561168757600e5461168090889063ffffffff611d1216565b95506116c7565b600e54600a546000911061169c5760006116b1565b600e54600a546116b19163ffffffff611b8316565b90506116c3888263ffffffff611ad816565b9650505b6116d088611042565b94506116db88610abf565b6001600160a01b038916600090815260106020526040902054909450925082611705576000611719565b60115461171990849063ffffffff6118b016565b9150428211611729576000611739565b611739824263ffffffff611b8316565b9050919395975091939597565b600a546000908190819080611766575050600e5460009250829150611849565b600e546000805a90506000805b898410801561178157508582105b1561183857600a54600190950194851061179a57600094505b6000600a60000186815481106117ac57fe5b60009182526020808320909101546001600160a01b031680835260109091526040909120549091506117dd90611d44565b156117f9576117ed8160016110a3565b156117f9576001909101905b60019092019160005a90508085111561182f5761182c61181f868363ffffffff611b8316565b879063ffffffff6118b016565b95505b93506117739050565b600e85905590975095509193505050505b9193909250565b60008261185f57506000610a0e565b8282028284828161186c57fe5b04146118a95760405162461bcd60e51b815260040180806020018281038252602181526020018061216e6021913960400191505060405180910390fd5b9392505050565b6000828201838110156118a9576040805162461bcd60e51b815260206004820152601b60248201527f536166654d6174683a206164646974696f6e206f766572666c6f770000000000604482015290519081900360640190fd5b3390565b6001600160a01b0383166119535760405162461bcd60e51b81526004018080602001828103825260248152602001806122346024913960400191505060405180910390fd5b6001600160a01b0382166119985760405162461bcd60e51b81526004018080602001828103825260228152602001806120726022913960400191505060405180910390fd5b6001600160a01b03808416600081815260016020908152604080832094871680845294825291829020859055815185815291517f8c5be1e5ebec7d5bd14f71427d1e84f3dd0314c0f7b2291e5b200ac8c7c3b9259281900390910190a3505050565b60405162461bcd60e51b815260040180806020018281038252602b815260200180612143602b913960400191505060405180910390fd5b60008184841115611ac05760405162461bcd60e51b81526004018080602001828103825283818151815260200191508051906020019080838360005b83811015611a85578181015183820152602001611a6d565b50505050905090810190601f168015611ab25780820380516001836020036101000a031916815260200191505b509250505060405180910390fd5b505050900390565b60008181811215610a0e57600080fd5b6000828201818312801590611aed5750838112155b80611b025750600083128015611b0257508381125b6118a957600080fd5b600080821215611b1a57600080fd5b5090565b6000611b2983610e96565b905080821115611b57576000611b45838363ffffffff611b8316565b9050611b518482611d71565b5061138b565b8082101561138b576000611b71828463ffffffff611b8316565b9050611b7d8482611ddb565b50505050565b60006118a983836040518060400160405280601e81526020017f536166654d6174683a207375627472616374696f6e206f766572666c6f770000815250611a31565b600080611bd183611042565b90508015611d09576001600160a01b038316600090815260076020526040902054611c02908263ffffffff6118b016565b6001600160a01b038416600081815260076020908152604091829020939093558051848152905191927fee503bee2bb6a87e57bc57db795f98137327401a0e7b7ce42e37926cc1a9ca4d92918290030190a26040516000906001600160a01b03851690610bb890849084818181858888f193505050503d8060008114611ca4576040519150601f19603f3d011682016040523d82523d6000602084013e611ca9565b606091505b5050905080611d01576001600160a01b038416600090815260076020526040902054611cdb908363ffffffff611b8316565b6001600160a01b0385166000908152600760205260408120919091559250610b25915050565b509050610b25565b50600092915050565b6000818303818312801590611d275750838113155b80611b025750600083128015611b0257508381136118a957600080fd5b600042821115611d5657506000610b25565b601154611d69428463ffffffff611b8316565b101592915050565b611d7b8282611e25565b611dbb611d96610b048360055461185090919063ffffffff16565b6001600160a01b0384166000908152600660205260409020549063ffffffff611d1216565b6001600160a01b0390921660009081526006602052604090209190915550565b611de58282611f21565b611dbb611e00610b048360055461185090919063ffffffff16565b6001600160a01b0384166000908152600660205260409020549063ffffffff611ad816565b6001600160a01b038216611e80576040805162461bcd60e51b815260206004820152601f60248201527f45524332303a206d696e7420746f20746865207a65726f206164647265737300604482015290519081900360640190fd5b611e8c6000838361138b565b600254611e9f908263ffffffff6118b016565b6002556001600160a01b038216600090815260208190526040902054611ecb908263ffffffff6118b016565b6001600160a01b0383166000818152602081815260408083209490945583518581529351929391927fddf252ad1be2c89b69c2b068fc378daa952ba7f163c4a11628f55a4df523b3ef9281900390910190a35050565b6001600160a01b038216611f665760405162461bcd60e51b81526004018080602001828103825260218152602001806121d76021913960400191505060405180910390fd5b611f728260008361138b565b611fb58160405180606001604052806022815260200161202a602291396001600160a01b038516600090815260208190526040902054919063ffffffff611a3116565b6001600160a01b038316600090815260208190526040902055600254611fe1908263ffffffff611b8316565b6002556040805182815290516000916001600160a01b038516917fddf252ad1be2c89b69c2b068fc378daa952ba7f163c4a11628f55a4df523b3ef9181900360200190a3505056fe45524332303a206275726e20616d6f756e7420657863656564732062616c616e63654f776e61626c653a206e6577206f776e657220697320746865207a65726f206164647265737345524332303a20617070726f766520746f20746865207a65726f206164647265737354494b495f4469766964656e645f547261636b65723a20636c61696d57616974206d757374206265207570646174656420746f206265747765656e203120616e6420323420686f75727354494b495f4469766964656e645f547261636b65723a2077697468647261774469766964656e642064697361626c65642e20557365207468652027636c61696d272066756e6374696f6e206f6e20746865206d61696e2054494b4920636f6e74726163742e54494b495f4469766964656e645f547261636b65723a204e6f207472616e736665727320616c6c6f776564536166654d6174683a206d756c7469706c69636174696f6e206f766572666c6f7745524332303a207472616e7366657220616d6f756e74206578636565647320616c6c6f77616e63654f776e61626c653a2063616c6c6572206973206e6f7420746865206f776e657245524332303a206275726e2066726f6d20746865207a65726f206164647265737354494b495f4469766964656e645f547261636b65723a2043616e6e6f742075706461746520636c61696d5761697420746f2073616d652076616c756545524332303a20617070726f76652066726f6d20746865207a65726f206164647265737345524332303a2064656372656173656420616c6c6f77616e63652062656c6f77207a65726fa2646970667358221220f28ab9eca006301c355b42a7bf4ed2465ad4a0631c4f7f500a413674b029a60564736f6c63430006050033",
  "immutableReferences": {
    "3507": [
      {
        "length": 32,
        "start": 4474
      },
      {
        "length": 32,
        "start": 4679
      }
    ]
  },
  "source": "// SPDX-License-Identifier: MIT\n\npragma solidity ^0.6.2;\n\nimport \"./DividendPayingToken.sol\";\nimport \"./SafeMath.sol\";\nimport \"./IterableMapping.sol\";\nimport \"./Ownable.sol\";\nimport \"./IUniswapV2Pair.sol\";\nimport \"./IUniswapV2Factory.sol\";\nimport \"./IUniswapV2Router.sol\";\n\ncontract MAIN is ERC20, Ownable {\n    using SafeMath for uint256;\n\n    IUniswapV2Router02 public uniswapV2Router;\n    address public immutable uniswapV2Pair;\n\n    address public immutable bounceFixedSaleWallet;\n\n    bool private swapping;\n\n    TIKIDividendTracker public dividendTracker;\n\n    address public liquidityWallet;\n\n    uint256 public maxSellTransactionAmount = 1000000 * (10**18);\n    uint256 public swapTokensAtAmount = 200000 * (10**18);\n\n    uint256 public immutable BNBRewardsFee;\n    uint256 public immutable liquidityFee;\n    uint256 public immutable totalFees;\n\n    // sells have fees of 12 and 6 (10 * 1.2 and 5 * 1.2)\n    uint256 public immutable sellFeeIncreaseFactor = 120; \n\n    // use by default 300,000 gas to process auto-claiming dividends\n    uint256 public gasForProcessing = 300000;\n\n\n    /*   Fixed Sale   */\n\n    // timestamp for when purchases on the fixed-sale are available to early participants\n    uint256 public immutable fixedSaleStartTimestamp = 1623960000; //June 17, 20:00 UTC, 2021\n\n    // the fixed-sale will be open to the public 10 minutes after fixedSaleStartTimestamp,\n    // or after 600 buys, whichever comes first.\n    uint256 public immutable fixedSaleEarlyParticipantDuration = 600;\n    uint256 public immutable fixedSaleEarlyParticipantBuysThreshold = 600;\n\n    // track number of buys. once this reaches fixedSaleEarlyParticipantBuysThreshold,\n    // the fixed-sale will be open to the public even if it's still in the first 10 minutes\n    uint256 public numberOfFixedSaleBuys;\n    // track who has bought\n    mapping (address => bool) public fixedSaleBuyers;\n\n    /******************/\n\n\n\n    // timestamp for when the token can be traded freely on PanackeSwap\n    uint256 public immutable tradingEnabledTimestamp = 1623967200; //June 17, 22:00 UTC, 2021\n\n    // exlcude from fees and max transaction amount\n    mapping (address => bool) private _isExcludedFromFees;\n\n    // addresses that can make transfers before presale is over\n    mapping (address => bool) private canTransferBeforeTradingIsEnabled;\n\n    mapping (address => bool) public fixedSaleEarlyParticipants;\n\n    // store addresses that a automatic market maker pairs. Any transfer *to* these addresses\n    // could be subject to a maximum transfer amount\n    mapping (address => bool) public automatedMarketMakerPairs;\n\n    event UpdateDividendTracker(address indexed newAddress, address indexed oldAddress);\n\n    event UpdateUniswapV2Router(address indexed newAddress, address indexed oldAddress);\n\n    event ExcludeFromFees(address indexed account, bool isExcluded);\n    event ExcludeMultipleAccountsFromFees(address[] accounts, bool isExcluded);\n\n    event FixedSaleEarlyParticipantsAdded(address[] participants);\n\n    event SetAutomatedMarketMakerPair(address indexed pair, bool indexed value);\n\n    event LiquidityWalletUpdated(address indexed newLiquidityWallet, address indexed oldLiquidityWallet);\n\n    event GasForProcessingUpdated(uint256 indexed newValue, uint256 indexed oldValue);\n\n    event FixedSaleBuy(address indexed account, uint256 indexed amount, bool indexed earlyParticipant, uint256 numberOfBuyers);\n\n    event SwapAndLiquify(\n        uint256 tokensSwapped,\n        uint256 ethReceived,\n        uint256 tokensIntoLiqudity\n    );\n\n    event SendDividends(\n    \tuint256 tokensSwapped,\n    \tuint256 amount\n    );\n\n    event ProcessedDividendTracker(\n    \tuint256 iterations,\n    \tuint256 claims,\n        uint256 lastProcessedIndex,\n    \tbool indexed automatic,\n    \tuint256 gas,\n    \taddress indexed processor\n    );\n\n    constructor() public ERC20(\"xboxbnb\", \"XBNB\") {\n        uint256 _BNBRewardsFee = 10;\n        uint256 _liquidityFee = 8;\n\n        BNBRewardsFee = _BNBRewardsFee;\n        liquidityFee = _liquidityFee;\n        totalFees = _BNBRewardsFee.add(_liquidityFee);\n\n\n    \tdividendTracker = new TIKIDividendTracker();\n\n    \tliquidityWallet = owner();\n\n    \t\n    \tIUniswapV2Router02 _uniswapV2Router = IUniswapV2Router02(0x9Ac64Cc6e4415144C455BD8E4837Fea55603e5c3);\n         // Create a uniswap pair for this new token\n        address _uniswapV2Pair = IUniswapV2Factory(_uniswapV2Router.factory())\n            .createPair(address(this), _uniswapV2Router.WETH());\n\n        uniswapV2Router = _uniswapV2Router;\n        uniswapV2Pair = _uniswapV2Pair;\n\n        _setAutomatedMarketMakerPair(_uniswapV2Pair, true);\n\n        address _bounceFixedSaleWallet = 0xe81244d7f054a819E21037533D887C82760A38EC;\n        bounceFixedSaleWallet = _bounceFixedSaleWallet;\n\n        // exclude from receiving dividends\n        dividendTracker.excludeFromDividends(address(dividendTracker));\n        dividendTracker.excludeFromDividends(address(this));\n        dividendTracker.excludeFromDividends(owner());\n        dividendTracker.excludeFromDividends(address(_uniswapV2Router));\n        dividendTracker.excludeFromDividends(_bounceFixedSaleWallet);\n\n        // exclude from paying fees or having max transaction amount\n        excludeFromFees(liquidityWallet, true);\n        excludeFromFees(address(this), true);\n\n        // enable owner and fixed-sale wallet to send tokens before presales are over\n        canTransferBeforeTradingIsEnabled[owner()] = true;\n        canTransferBeforeTradingIsEnabled[_bounceFixedSaleWallet] = true;\n\n        /*\n            _mint is an internal function in ERC20.sol that is only called here,\n            and CANNOT be called ever again\n        */\n        _mint(owner(), 1000000000 * (10**18));\n    }\n\n    receive() external payable {\n\n  \t}\n\n    function updateDividendTracker(address newAddress) public onlyOwner {\n        require(newAddress != address(dividendTracker), \"TIKI: The dividend tracker already has that address\");\n\n        TIKIDividendTracker newDividendTracker = TIKIDividendTracker(payable(newAddress));\n\n        require(newDividendTracker.owner() == address(this), \"TIKI: The new dividend tracker must be owned by the TIKI token contract\");\n\n        newDividendTracker.excludeFromDividends(address(newDividendTracker));\n        newDividendTracker.excludeFromDividends(address(this));\n        newDividendTracker.excludeFromDividends(owner());\n        newDividendTracker.excludeFromDividends(address(uniswapV2Router));\n\n        emit UpdateDividendTracker(newAddress, address(dividendTracker));\n\n        dividendTracker = newDividendTracker;\n    }\n\n    function updateUniswapV2Router(address newAddress) public onlyOwner {\n        require(newAddress != address(uniswapV2Router), \"TIKI: The router already has that address\");\n        emit UpdateUniswapV2Router(newAddress, address(uniswapV2Router));\n        uniswapV2Router = IUniswapV2Router02(newAddress);\n    }\n\n    function excludeFromFees(address account, bool excluded) public onlyOwner {\n        require(_isExcludedFromFees[account] != excluded, \"TIKI: Account is already the value of 'excluded'\");\n        _isExcludedFromFees[account] = excluded;\n\n        emit ExcludeFromFees(account, excluded);\n    }\n\n    function excludeMultipleAccountsFromFees(address[] memory accounts, bool excluded) public onlyOwner {\n        for(uint256 i = 0; i < accounts.length; i++) {\n            _isExcludedFromFees[accounts[i]] = excluded;\n        }\n\n        emit ExcludeMultipleAccountsFromFees(accounts, excluded);\n    }\n\n    function addFixedSaleEarlyParticipants(address[] calldata accounts) external onlyOwner {\n        for(uint256 i = 0; i < accounts.length; i++) {\n            fixedSaleEarlyParticipants[accounts[i]] = true;\n        }\n\n        emit FixedSaleEarlyParticipantsAdded(accounts);\n    }\n\n    function setAutomatedMarketMakerPair(address pair, bool value) public onlyOwner {\n        require(pair != uniswapV2Pair, \"TIKI: The PancakeSwap pair cannot be removed from automatedMarketMakerPairs\");\n\n        _setAutomatedMarketMakerPair(pair, value);\n    }\n\n    function _setAutomatedMarketMakerPair(address pair, bool value) private {\n        require(automatedMarketMakerPairs[pair] != value, \"TIKI: Automated market maker pair is already set to that value\");\n        automatedMarketMakerPairs[pair] = value;\n\n        if(value) {\n            dividendTracker.excludeFromDividends(pair);\n        }\n\n        emit SetAutomatedMarketMakerPair(pair, value);\n    }\n\n\n    function updateLiquidityWallet(address newLiquidityWallet) public onlyOwner {\n        require(newLiquidityWallet != liquidityWallet, \"TIKI: The liquidity wallet is already this address\");\n        excludeFromFees(newLiquidityWallet, true);\n        emit LiquidityWalletUpdated(newLiquidityWallet, liquidityWallet);\n        liquidityWallet = newLiquidityWallet;\n    }\n\n    function updateGasForProcessing(uint256 newValue) public onlyOwner {\n        require(newValue >= 200000 && newValue <= 500000, \"TIKI: gasForProcessing must be between 200,000 and 500,000\");\n        require(newValue != gasForProcessing, \"TIKI: Cannot update gasForProcessing to same value\");\n        emit GasForProcessingUpdated(newValue, gasForProcessing);\n        gasForProcessing = newValue;\n    }\n\n    function updateClaimWait(uint256 claimWait) external onlyOwner {\n        dividendTracker.updateClaimWait(claimWait);\n    }\n\n    function getClaimWait() external view returns(uint256) {\n        return dividendTracker.claimWait();\n    }\n\n    function getTotalDividendsDistributed() external view returns (uint256) {\n        return dividendTracker.totalDividendsDistributed();\n    }\n\n    function isExcludedFromFees(address account) public view returns(bool) {\n        return _isExcludedFromFees[account];\n    }\n\n    function withdrawableDividendOf(address account) public view returns(uint256) {\n    \treturn dividendTracker.withdrawableDividendOf(account);\n  \t}\n\n\tfunction dividendTokenBalanceOf(address account) public view returns (uint256) {\n\t\treturn dividendTracker.balanceOf(account);\n\t}\n\n    function getAccountDividendsInfo(address account)\n        external view returns (\n            address,\n            int256,\n            int256,\n            uint256,\n            uint256,\n            uint256,\n            uint256,\n            uint256) {\n        return dividendTracker.getAccount(account);\n    }\n\n\tfunction getAccountDividendsInfoAtIndex(uint256 index)\n        external view returns (\n            address,\n            int256,\n            int256,\n            uint256,\n            uint256,\n            uint256,\n            uint256,\n            uint256) {\n    \treturn dividendTracker.getAccountAtIndex(index);\n    }\n\n\tfunction processDividendTracker(uint256 gas) external {\n\t\t(uint256 iterations, uint256 claims, uint256 lastProcessedIndex) = dividendTracker.process(gas);\n\t\temit ProcessedDividendTracker(iterations, claims, lastProcessedIndex, false, gas, tx.origin);\n    }\n\n    function claim() external {\n\t\tdividendTracker.processAccount(msg.sender, false);\n    }\n\n    function getLastProcessedIndex() external view returns(uint256) {\n    \treturn dividendTracker.getLastProcessedIndex();\n    }\n\n    function getNumberOfDividendTokenHolders() external view returns(uint256) {\n        return dividendTracker.getNumberOfTokenHolders();\n    }\n\n    function getTradingIsEnabled() public view returns (bool) {\n        return block.timestamp >= tradingEnabledTimestamp;\n    }\n\n    function _transfer(\n        address from,\n        address to,\n        uint256 amount\n    ) internal override {\n        require(from != address(0), \"ERC20: transfer from the zero address\");\n        require(to != address(0), \"ERC20: transfer to the zero address\");\n\n        bool tradingIsEnabled = getTradingIsEnabled();\n\n        // only whitelisted addresses can make transfers after the fixed-sale has started\n        // and before the public presale is over\n        if(!tradingIsEnabled) {\n            require(canTransferBeforeTradingIsEnabled[from], \"TIKI: This account cannot send tokens until trading is enabled\");\n        }\n\n        if(amount == 0) {\n            super._transfer(from, to, 0);\n            return;\n        }\n\n        bool isFixedSaleBuy = from == bounceFixedSaleWallet && to != owner();\n\n        // the fixed-sale can only send tokens to the owner or early participants of the fixed sale in the first 10 minutes,\n        // or 600 transactions, whichever is first.\n        if(isFixedSaleBuy) {\n            require(block.timestamp >= fixedSaleStartTimestamp, \"TIKI: The fixed-sale has not started yet.\");\n\n            bool openToEveryone = block.timestamp.sub(fixedSaleStartTimestamp) >= fixedSaleEarlyParticipantDuration ||\n                                  numberOfFixedSaleBuys >= fixedSaleEarlyParticipantBuysThreshold;\n\n            if(!openToEveryone) {\n                require(fixedSaleEarlyParticipants[to], \"TIKI: The fixed-sale is only available to certain participants at the start\");\n            }\n\n            if(!fixedSaleBuyers[to]) {\n                fixedSaleBuyers[to] = true;\n                numberOfFixedSaleBuys = numberOfFixedSaleBuys.add(1);\n            }\n\n            emit FixedSaleBuy(to, amount, fixedSaleEarlyParticipants[to], numberOfFixedSaleBuys);\n        }\n\n        if( \n        \t!swapping &&\n        \ttradingIsEnabled &&\n            automatedMarketMakerPairs[to] && // sells only by detecting transfer to automated market maker pair\n        \tfrom != address(uniswapV2Router) && //router -> pair is removing liquidity which shouldn't have max\n            !_isExcludedFromFees[to] //no max for those excluded from fees\n        ) {\n            require(amount <= maxSellTransactionAmount, \"Sell transfer amount exceeds the maxSellTransactionAmount.\");\n        }\n\n\t\tuint256 contractTokenBalance = balanceOf(address(this));\n        \n        bool canSwap = contractTokenBalance >= swapTokensAtAmount;\n\n        if(\n            tradingIsEnabled && \n            canSwap &&\n            !swapping &&\n            !automatedMarketMakerPairs[from] &&\n            from != liquidityWallet &&\n            to != liquidityWallet\n        ) {\n            swapping = true;\n\n            uint256 swapTokens = contractTokenBalance.mul(liquidityFee).div(totalFees);\n            swapAndLiquify(swapTokens);\n\n            uint256 sellTokens = balanceOf(address(this));\n            swapAndSendDividends(sellTokens);\n\n            swapping = false;\n        }\n\n\n        bool takeFee = !isFixedSaleBuy && tradingIsEnabled && !swapping;\n\n        // if any account belongs to _isExcludedFromFee account then remove the fee\n        if(_isExcludedFromFees[from] || _isExcludedFromFees[to]) {\n            takeFee = false;\n        }\n\n        if(takeFee) {\n        \tuint256 fees = amount.mul(totalFees).div(100);\n\n            // if sell, multiply by 1.2\n            if(automatedMarketMakerPairs[to]) {\n                fees = fees.mul(sellFeeIncreaseFactor).div(100);\n            }\n\n        \tamount = amount.sub(fees);\n\n            super._transfer(from, address(this), fees);\n        }\n\n        super._transfer(from, to, amount);\n\n        try dividendTracker.setBalance(payable(from), balanceOf(from)) {} catch {}\n        try dividendTracker.setBalance(payable(to), balanceOf(to)) {} catch {}\n\n        if(!swapping) {\n\t    \tuint256 gas = gasForProcessing;\n\n\t    \ttry dividendTracker.process(gas) returns (uint256 iterations, uint256 claims, uint256 lastProcessedIndex) {\n\t    \t\temit ProcessedDividendTracker(iterations, claims, lastProcessedIndex, true, gas, tx.origin);\n\t    \t} \n\t    \tcatch {\n\n\t    \t}\n        }\n    }\n\n    function swapAndLiquify(uint256 tokens) private {\n        // split the contract balance into halves\n        uint256 half = tokens.div(2);\n        uint256 otherHalf = tokens.sub(half);\n\n        // capture the contract's current ETH balance.\n        // this is so that we can capture exactly the amount of ETH that the\n        // swap creates, and not make the liquidity event include any ETH that\n        // has been manually sent to the contract\n        uint256 initialBalance = address(this).balance;\n\n        // swap tokens for ETH\n        swapTokensForEth(half); // <- this breaks the ETH -> HATE swap when swap+liquify is triggered\n\n        // how much ETH did we just swap into?\n        uint256 newBalance = address(this).balance.sub(initialBalance);\n\n        // add liquidity to uniswap\n        addLiquidity(otherHalf, newBalance);\n        \n        emit SwapAndLiquify(half, newBalance, otherHalf);\n    }\n\n    function swapTokensForEth(uint256 tokenAmount) private {\n\n        \n        // generate the uniswap pair path of token -> weth\n        address[] memory path = new address[](2);\n        path[0] = address(this);\n        path[1] = uniswapV2Router.WETH();\n\n        _approve(address(this), address(uniswapV2Router), tokenAmount);\n\n        // make the swap\n        uniswapV2Router.swapExactTokensForETHSupportingFeeOnTransferTokens(\n            tokenAmount,\n            0, // accept any amount of ETH\n            path,\n            address(this),\n            block.timestamp\n        );\n        \n    }\n\n    function addLiquidity(uint256 tokenAmount, uint256 ethAmount) private {\n        \n        // approve token transfer to cover all possible scenarios\n        _approve(address(this), address(uniswapV2Router), tokenAmount);\n\n        // add the liquidity\n        uniswapV2Router.addLiquidityETH{value: ethAmount}(\n            address(this),\n            tokenAmount,\n            0, // slippage is unavoidable\n            0, // slippage is unavoidable\n            liquidityWallet,\n            block.timestamp\n        );\n        \n    }\n\n    function swapAndSendDividends(uint256 tokens) private {\n        swapTokensForEth(tokens);\n        uint256 dividends = address(this).balance;\n        (bool success,) = address(dividendTracker).call{value: dividends}(\"\");\n\n        if(success) {\n   \t \t\temit SendDividends(tokens, dividends);\n        }\n    }\n}\n\ncontract TIKIDividendTracker is DividendPayingToken, Ownable {\n    using SafeMath for uint256;\n    using SafeMathInt for int256;\n    using IterableMapping for IterableMapping.Map;\n\n    IterableMapping.Map private tokenHoldersMap;\n    uint256 public lastProcessedIndex;\n\n    mapping (address => bool) public excludedFromDividends;\n\n    mapping (address => uint256) public lastClaimTimes;\n\n    uint256 public claimWait;\n    uint256 public immutable minimumTokenBalanceForDividends;\n\n    event ExcludeFromDividends(address indexed account);\n    event ClaimWaitUpdated(uint256 indexed newValue, uint256 indexed oldValue);\n\n    event Claim(address indexed account, uint256 amount, bool indexed automatic);\n\n    constructor() public DividendPayingToken(\"TIKI_Dividend_Tracker\", \"TIKI_Dividend_Tracker\") {\n    \tclaimWait = 3600;\n        minimumTokenBalanceForDividends = 10000 * (10**18); //must hold 10000+ tokens\n    }\n\n    function _transfer(address, address, uint256) internal override {\n        require(false, \"TIKI_Dividend_Tracker: No transfers allowed\");\n    }\n\n    function withdrawDividend() public override {\n        require(false, \"TIKI_Dividend_Tracker: withdrawDividend disabled. Use the 'claim' function on the main TIKI contract.\");\n    }\n\n    function excludeFromDividends(address account) external onlyOwner {\n    \trequire(!excludedFromDividends[account]);\n    \texcludedFromDividends[account] = true;\n\n    \t_setBalance(account, 0);\n    \ttokenHoldersMap.remove(account);\n\n    \temit ExcludeFromDividends(account);\n    }\n\n    function updateClaimWait(uint256 newClaimWait) external onlyOwner {\n        require(newClaimWait >= 3600 && newClaimWait <= 86400, \"TIKI_Dividend_Tracker: claimWait must be updated to between 1 and 24 hours\");\n        require(newClaimWait != claimWait, \"TIKI_Dividend_Tracker: Cannot update claimWait to same value\");\n        emit ClaimWaitUpdated(newClaimWait, claimWait);\n        claimWait = newClaimWait;\n    }\n\n    function getLastProcessedIndex() external view returns(uint256) {\n    \treturn lastProcessedIndex;\n    }\n\n    function getNumberOfTokenHolders() external view returns(uint256) {\n        return tokenHoldersMap.keys.length;\n    }\n\n\n\n    function getAccount(address _account)\n        public view returns (\n            address account,\n            int256 index,\n            int256 iterationsUntilProcessed,\n            uint256 withdrawableDividends,\n            uint256 totalDividends,\n            uint256 lastClaimTime,\n            uint256 nextClaimTime,\n            uint256 secondsUntilAutoClaimAvailable) {\n        account = _account;\n\n        index = tokenHoldersMap.getIndexOfKey(account);\n\n        iterationsUntilProcessed = -1;\n\n        if(index >= 0) {\n            if(uint256(index) > lastProcessedIndex) {\n                iterationsUntilProcessed = index.sub(int256(lastProcessedIndex));\n            }\n            else {\n                uint256 processesUntilEndOfArray = tokenHoldersMap.keys.length > lastProcessedIndex ?\n                                                        tokenHoldersMap.keys.length.sub(lastProcessedIndex) :\n                                                        0;\n\n\n                iterationsUntilProcessed = index.add(int256(processesUntilEndOfArray));\n            }\n        }\n\n\n        withdrawableDividends = withdrawableDividendOf(account);\n        totalDividends = accumulativeDividendOf(account);\n\n        lastClaimTime = lastClaimTimes[account];\n\n        nextClaimTime = lastClaimTime > 0 ?\n                                    lastClaimTime.add(claimWait) :\n                                    0;\n\n        secondsUntilAutoClaimAvailable = nextClaimTime > block.timestamp ?\n                                                    nextClaimTime.sub(block.timestamp) :\n                                                    0;\n    }\n\n    function getAccountAtIndex(uint256 index)\n        public view returns (\n            address,\n            int256,\n            int256,\n            uint256,\n            uint256,\n            uint256,\n            uint256,\n            uint256) {\n    \tif(index >= tokenHoldersMap.size()) {\n            return (0x0000000000000000000000000000000000000000, -1, -1, 0, 0, 0, 0, 0);\n        }\n\n        address account = tokenHoldersMap.getKeyAtIndex(index);\n\n        return getAccount(account);\n    }\n\n    function canAutoClaim(uint256 lastClaimTime) private view returns (bool) {\n    \tif(lastClaimTime > block.timestamp)  {\n    \t\treturn false;\n    \t}\n\n    \treturn block.timestamp.sub(lastClaimTime) >= claimWait;\n    }\n\n    function setBalance(address payable account, uint256 newBalance) external onlyOwner {\n    \tif(excludedFromDividends[account]) {\n    \t\treturn;\n    \t}\n\n    \tif(newBalance >= minimumTokenBalanceForDividends) {\n            _setBalance(account, newBalance);\n    \t\ttokenHoldersMap.set(account, newBalance);\n    \t}\n    \telse {\n            _setBalance(account, 0);\n    \t\ttokenHoldersMap.remove(account);\n    \t}\n\n    \tprocessAccount(account, true);\n    }\n\n    function process(uint256 gas) public returns (uint256, uint256, uint256) {\n    \tuint256 numberOfTokenHolders = tokenHoldersMap.keys.length;\n\n    \tif(numberOfTokenHolders == 0) {\n    \t\treturn (0, 0, lastProcessedIndex);\n    \t}\n\n    \tuint256 _lastProcessedIndex = lastProcessedIndex;\n\n    \tuint256 gasUsed = 0;\n\n    \tuint256 gasLeft = gasleft();\n\n    \tuint256 iterations = 0;\n    \tuint256 claims = 0;\n\n    \twhile(gasUsed < gas && iterations < numberOfTokenHolders) {\n    \t\t_lastProcessedIndex++;\n\n    \t\tif(_lastProcessedIndex >= tokenHoldersMap.keys.length) {\n    \t\t\t_lastProcessedIndex = 0;\n    \t\t}\n\n    \t\taddress account = tokenHoldersMap.keys[_lastProcessedIndex];\n\n    \t\tif(canAutoClaim(lastClaimTimes[account])) {\n    \t\t\tif(processAccount(payable(account), true)) {\n    \t\t\t\tclaims++;\n    \t\t\t}\n    \t\t}\n\n    \t\titerations++;\n\n    \t\tuint256 newGasLeft = gasleft();\n\n    \t\tif(gasLeft > newGasLeft) {\n    \t\t\tgasUsed = gasUsed.add(gasLeft.sub(newGasLeft));\n    \t\t}\n\n    \t\tgasLeft = newGasLeft;\n    \t}\n\n    \tlastProcessedIndex = _lastProcessedIndex;\n\n    \treturn (iterations, claims, lastProcessedIndex);\n    }\n\n    function processAccount(address payable account, bool automatic) public onlyOwner returns (bool) {\n        uint256 amount = _withdrawDividendOfUser(account);\n\n    \tif(amount > 0) {\n    \t\tlastClaimTimes[account] = block.timestamp;\n            emit Claim(account, amount, automatic);\n    \t\treturn true;\n    \t}\n\n    \treturn false;\n    }\n}\n",
  "sourcePath": "/Users/lie/Desktop/tokenCreatorDeploy/contracts/MAIN.sol",
  "compiler": {
    "name": "solc",
    "version": "0.6.5+commit.f956cc89.Emscripten.clang"
  },
  "schemaVersion": "3.3.4",
  "updatedAt": "2021-08-09T15:39:36.028Z",
  "devdoc": {
    "methods": {
      "accumulativeDividendOf(address)": {
        "details": "accumulativeDividendOf(_owner) = withdrawableDividendOf(_owner) + withdrawnDividendOf(_owner) = (magnifiedDividendPerShare * balanceOf(_owner) + magnifiedDividendCorrections[_owner]) / magnitude",
        "params": {
          "_owner": "The address of a token holder."
        },
        "returns": {
          "_0": "The amount of dividend in wei that `_owner` has earned in total."
        }
      },
      "allowance(address,address)": {
        "details": "See {IERC20-allowance}."
      },
      "approve(address,uint256)": {
        "details": "See {IERC20-approve}.     * Requirements:     * - `spender` cannot be the zero address."
      },
      "balanceOf(address)": {
        "details": "See {IERC20-balanceOf}."
      },
      "decimals()": {
        "details": "Returns the number of decimals used to get its user representation. For example, if `decimals` equals `2`, a balance of `505` tokens should be displayed to a user as `5,05` (`505 / 10 ** 2`).     * Tokens usually opt for a value of 18, imitating the relationship between Ether and Wei. This is the value {ERC20} uses, unless this function is overridden;     * NOTE: This information is only used for _display_ purposes: it in no way affects any of the arithmetic of the contract, including {IERC20-balanceOf} and {IERC20-transfer}."
      },
      "decreaseAllowance(address,uint256)": {
        "details": "Atomically decreases the allowance granted to `spender` by the caller.     * This is an alternative to {approve} that can be used as a mitigation for problems described in {IERC20-approve}.     * Emits an {Approval} event indicating the updated allowance.     * Requirements:     * - `spender` cannot be the zero address. - `spender` must have allowance for the caller of at least `subtractedValue`."
      },
      "distributeDividends()": {
        "details": "It reverts if the total supply of tokens is 0. It emits the `DividendsDistributed` event if the amount of received ether is greater than 0. About undistributed ether:   In each distribution, there is a small amount of ether not distributed,     the magnified amount of which is     `(msg.value * magnitude) % totalSupply()`.   With a well-chosen `magnitude`, the amount of undistributed ether     (de-magnified) in a distribution can be less than 1 wei.   We can actually keep track of the undistributed ether in a distribution     and try to distribute it in the next distribution,     but keeping track of such data on-chain costs much more than     the saved ether, so we don't do that."
      },
      "dividendOf(address)": {
        "params": {
          "_owner": "The address of a token holder."
        },
        "returns": {
          "_0": "The amount of dividend in wei that `_owner` can withdraw."
        }
      },
      "increaseAllowance(address,uint256)": {
        "details": "Atomically increases the allowance granted to `spender` by the caller.     * This is an alternative to {approve} that can be used as a mitigation for problems described in {IERC20-approve}.     * Emits an {Approval} event indicating the updated allowance.     * Requirements:     * - `spender` cannot be the zero address."
      },
      "name()": {
        "details": "Returns the name of the token."
      },
      "owner()": {
        "details": "Returns the address of the current owner."
      },
      "renounceOwnership()": {
        "details": "Leaves the contract without owner. It will not be possible to call `onlyOwner` functions anymore. Can only be called by the current owner.     * NOTE: Renouncing ownership will leave the contract without an owner, thereby removing any functionality that is only available to the owner."
      },
      "symbol()": {
        "details": "Returns the symbol of the token, usually a shorter version of the name."
      },
      "totalSupply()": {
        "details": "See {IERC20-totalSupply}."
      },
      "transfer(address,uint256)": {
        "details": "See {IERC20-transfer}.     * Requirements:     * - `recipient` cannot be the zero address. - the caller must have a balance of at least `amount`."
      },
      "transferFrom(address,address,uint256)": {
        "details": "See {IERC20-transferFrom}.     * Emits an {Approval} event indicating the updated allowance. This is not required by the EIP. See the note at the beginning of {ERC20}.     * Requirements:     * - `sender` and `recipient` cannot be the zero address. - `sender` must have a balance of at least `amount`. - the caller must have allowance for ``sender``'s tokens of at least `amount`."
      },
      "transferOwnership(address)": {
        "details": "Transfers ownership of the contract to a new account (`newOwner`). Can only be called by the current owner."
      },
      "withdrawableDividendOf(address)": {
        "params": {
          "_owner": "The address of a token holder."
        },
        "returns": {
          "_0": "The amount of dividend in wei that `_owner` can withdraw."
        }
      },
      "withdrawnDividendOf(address)": {
        "params": {
          "_owner": "The address of a token holder."
        },
        "returns": {
          "_0": "The amount of dividend in wei that `_owner` has withdrawn."
        }
      }
    }
  },
  "userdoc": {
    "methods": {
      "accumulativeDividendOf(address)": {
        "notice": "View the amount of dividend in wei that an address has earned in total."
      },
      "distributeDividends()": {
        "notice": "Distributes ether to token holders as dividends."
      },
      "dividendOf(address)": {
        "notice": "View the amount of dividend in wei that an address can withdraw."
      },
      "withdrawableDividendOf(address)": {
        "notice": "View the amount of dividend in wei that an address can withdraw."
      },
      "withdrawnDividendOf(address)": {
        "notice": "View the amount of dividend in wei that an address has withdrawn."
      }
    }
  }
}