{
  "contractName": "TokenCreator",
  "abi": [
    {
      "anonymous": false,
      "inputs": [
        {
          "indexed": true,
          "internalType": "address",
          "name": "previousOwner",
          "type": "address"
        },
        {
          "indexed": true,
          "internalType": "address",
          "name": "newOwner",
          "type": "address"
        }
      ],
      "name": "OwnershipTransferred",
      "type": "event"
    },
    {
      "anonymous": false,
      "inputs": [
        {
          "indexed": false,
          "internalType": "bool",
          "name": "enabled",
          "type": "bool"
        }
      ],
      "name": "TokenCreated",
      "type": "event"
    },
    {
      "stateMutability": "payable",
      "type": "fallback"
    },
    {
      "inputs": [],
      "name": "geUnlockTime",
      "outputs": [
        {
          "internalType": "uint256",
          "name": "",
          "type": "uint256"
        }
      ],
      "stateMutability": "view",
      "type": "function"
    },
    {
      "inputs": [
        {
          "internalType": "uint256",
          "name": "time",
          "type": "uint256"
        }
      ],
      "name": "lock",
      "outputs": [],
      "stateMutability": "nonpayable",
      "type": "function"
    },
    {
      "inputs": [],
      "name": "owner",
      "outputs": [
        {
          "internalType": "address",
          "name": "",
          "type": "address"
        }
      ],
      "stateMutability": "view",
      "type": "function"
    },
    {
      "inputs": [],
      "name": "renounceOwnership",
      "outputs": [],
      "stateMutability": "nonpayable",
      "type": "function"
    },
    {
      "inputs": [
        {
          "internalType": "address",
          "name": "newOwner",
          "type": "address"
        }
      ],
      "name": "transferOwnership",
      "outputs": [],
      "stateMutability": "nonpayable",
      "type": "function"
    },
    {
      "inputs": [],
      "name": "unlock",
      "outputs": [],
      "stateMutability": "nonpayable",
      "type": "function"
    },
    {
      "stateMutability": "payable",
      "type": "receive"
    },
    {
      "inputs": [
        {
          "internalType": "address[]",
          "name": "addreses",
          "type": "address[]"
        },
        {
          "internalType": "string",
          "name": "tokenName",
          "type": "string"
        },
        {
          "internalType": "string",
          "name": "tokenSymbol",
          "type": "string"
        },
        {
          "internalType": "uint256",
          "name": "amountOfTokenWei",
          "type": "uint256"
        },
        {
          "internalType": "uint8",
          "name": "decimal",
          "type": "uint8"
        },
        {
          "internalType": "uint8[]",
          "name": "params",
          "type": "uint8[]"
        }
      ],
      "name": "createNewToken",
      "outputs": [],
      "stateMutability": "payable",
      "type": "function"
    },
    {
      "inputs": [
        {
          "internalType": "uint256",
          "name": "amount",
          "type": "uint256"
        }
      ],
      "name": "withdraw",
      "outputs": [],
      "stateMutability": "nonpayable",
      "type": "function"
    },
    {
      "inputs": [],
      "name": "withdrawAll",
      "outputs": [],
      "stateMutability": "nonpayable",
      "type": "function"
    }
  ],
  "bytecode": "0x608060405234801561001057600080fd5b50600080546001600160a01b031916339081178255604051909182917f8be0079c531659141344cd1fd0a4f28419497f9722a3daafe3b4186f6b6457e0908290a35061509c806100616000396000f3fe6080604052600436106200008f5760003560e01c80639e23c7e4116200005d5780639e23c7e4146200011c578063a69df4b51462000133578063b6c52324146200014b578063dd467064146200016b578063f2fde38b146200019057005b80632e1a7d4d1462000099578063715018a614620000be578063853828b614620000d65780638da5cb5b14620000ee57005b366200009757005b005b348015620000a657600080fd5b5062000097620000b836600462000a3c565b620001b5565b348015620000cb57600080fd5b506200009762000229565b348015620000e357600080fd5b50620000976200028f565b348015620000fb57600080fd5b506000546040516001600160a01b0390911681526020015b60405180910390f35b620000976200012d36600462000967565b620002fa565b3480156200014057600080fd5b506200009762000514565b3480156200015857600080fd5b5060025460405190815260200162000113565b3480156200017857600080fd5b50620000976200018a36600462000a3c565b62000632565b3480156200019d57600080fd5b5062000097620001af36600462000942565b620006bd565b6000546001600160a01b03163314620001eb5760405162461bcd60e51b8152600401620001e29062000b1b565b60405180910390fd5b600080546040516001600160a01b039091169183156108fc02918491818181858888f1935050505015801562000225573d6000803e3d6000fd5b5050565b6000546001600160a01b03163314620002565760405162461bcd60e51b8152600401620001e29062000b1b565b600080546040516001600160a01b039091169060008051602062005047833981519152908390a3600080546001600160a01b0319169055565b6000546001600160a01b03163314620002bc5760405162461bcd60e51b8152600401620001e29062000b1b565b600080546040516001600160a01b03909116914780156108fc02929091818181858888f19350505050158015620002f7573d6000803e3d6000fd5b50565b60008660008151811062000312576200031262000bd2565b6020026020010151868685878660008151811062000334576200033462000bd2565b60200260200101518760018151811062000352576200035262000bd2565b60200260200101518d60018151811062000370576200037062000bd2565b602002602001015160405162000386906200079b565b6200039998979695949392919062000aa6565b604051809103906000f080158015620003b6573d6000803e3d6000fd5b509050806001600160a01b031663f6a3c9a983600281518110620003de57620003de62000bd2565b602002602001015184600381518110620003fc57620003fc62000bd2565b6020026020010151856004815181106200041a576200041a62000bd2565b60200260200101518660058151811062000438576200043862000bd2565b60200260200101518760068151811062000456576200045662000bd2565b60209081029190910101516040516001600160e01b031960e088901b16815260ff9586166004820152938516602485015291841660448401528316606483015291909116608482015260a401600060405180830381600087803b158015620004bd57600080fd5b505af1158015620004d2573d6000803e3d6000fd5b5050604051600181527f0f0f81aa0d258808b86186314f2944f5c384b4c81bc84b0260f262459c2329e39250602001905060405180910390a150505050505050565b6001546001600160a01b031633146200058f5760405162461bcd60e51b815260206004820152603660248201527f596f7520646f6e27742068617665207065726d697373696f6e20746f20756e6c6044820152751bd8dac81d1a19481d1bdad95b8818dbdb9d1c9858dd60521b6064820152608401620001e2565b6002544211620005e25760405162461bcd60e51b815260206004820152601f60248201527f436f6e7472616374206973206c6f636b656420756e74696c20372064617973006044820152606401620001e2565b600154600080546040516001600160a01b0393841693909116916000805160206200504783398151915291a3600154600080546001600160a01b0319166001600160a01b03909216919091179055565b6000546001600160a01b031633146200065f5760405162461bcd60e51b8152600401620001e29062000b1b565b60008054600180546001600160a01b03199081166001600160a01b0384161790915516905562000690814262000bab565b600255600080546040516001600160a01b039091169060008051602062005047833981519152908390a350565b6000546001600160a01b03163314620006ea5760405162461bcd60e51b8152600401620001e29062000b1b565b6001600160a01b038116620007515760405162461bcd60e51b815260206004820152602660248201527f4f776e61626c653a206e6577206f776e657220697320746865207a65726f206160448201526564647265737360d01b6064820152608401620001e2565b600080546040516001600160a01b03808516939216916000805160206200504783398151915291a3600080546001600160a01b0319166001600160a01b0392909216919091179055565b6144488062000bff83390190565b80356001600160a01b0381168114620007c157600080fd5b919050565b600082601f830112620007d857600080fd5b81356020620007f1620007eb8362000b84565b62000b50565b80838252828201915082860187848660051b89010111156200081257600080fd5b60005b858110156200083c576200082982620007a9565b8452928401929084019060010162000815565b5090979650505050505050565b600082601f8301126200085b57600080fd5b813560206200086e620007eb8362000b84565b80838252828201915082860187848660051b89010111156200088f57600080fd5b60005b858110156200083c57620008a68262000930565b8452928401929084019060010162000892565b600082601f830112620008cb57600080fd5b813567ffffffffffffffff811115620008e857620008e862000be8565b620008fd601f8201601f191660200162000b50565b8181528460208386010111156200091357600080fd5b816020850160208301376000918101602001919091529392505050565b803560ff81168114620007c157600080fd5b6000602082840312156200095557600080fd5b6200096082620007a9565b9392505050565b60008060008060008060c087890312156200098157600080fd5b863567ffffffffffffffff808211156200099a57600080fd5b620009a88a838b01620007c6565b97506020890135915080821115620009bf57600080fd5b620009cd8a838b01620008b9565b96506040890135915080821115620009e457600080fd5b620009f28a838b01620008b9565b95506060890135945062000a0960808a0162000930565b935060a089013591508082111562000a2057600080fd5b5062000a2f89828a0162000849565b9150509295509295509295565b60006020828403121562000a4f57600080fd5b5035919050565b6000815180845260005b8181101562000a7e5760208185018101518683018201520162000a60565b8181111562000a91576000602083870101525b50601f01601f19169290920160200192915050565b6001600160a01b0389811682526101006020830181905260009162000ace8483018c62000a56565b9150838203604085015262000ae4828b62000a56565b60ff998a166060860152608085019890985295881660a084015250509190941660c0820152921660e0909201919091529392505050565b6020808252818101527f4f776e61626c653a2063616c6c6572206973206e6f7420746865206f776e6572604082015260600190565b604051601f8201601f1916810167ffffffffffffffff8111828210171562000b7c5762000b7c62000be8565b604052919050565b600067ffffffffffffffff82111562000ba15762000ba162000be8565b5060051b60200190565b6000821982111562000bcd57634e487b7160e01b600052601160045260246000fd5b500190565b634e487b7160e01b600052603260045260246000fd5b634e487b7160e01b600052604160045260246000fdfe60c0604052600380546001600160d81b0319167a01010a0a0a0a0a000000000000000000000000000000000000dead179055600a8054739ac64cc6e4415144c455bd8e4837fea55603e5c36001600160a01b0319909116179055600e805460ff1990811660019081179092556011805461ffff60481b1963ffffffff60281b1964ffffffff0019831664ffff0000001960ff61010061ff00198716048116620100000291821692909217630100000063ffffff001990961663ff000000199290921691909117949094048116640100000000029390931790811661ffff60381b196501000000000060ff60281b1984160485166601000000000000029081169190911767010000000000000062ffffff60281b1990931660ff60381b199290921691909117919091048316680100000000000000000217908116690100000000000000000060ff60481b1992909216919091049091166a010000000000000000000002179055601280549091169091179055670de0b6b3a76400006016553480156200018a57600080fd5b506040516200444838038062004448833981016040819052620001ad91620007cc565b600080546001600160a01b031916339081178255604051909182917f8be0079c531659141344cd1fd0a4f28419497f9722a3daafe3b4186f6b6457e0908290a35086516200020390600f9060208a01906200065e565b508551620002199060109060208901906200065e565b506011805460ff191660ff8716179055600b8490556200023c846000196200099c565b6200024a9060001962000912565b600c8190556001600160a01b03808a16600090815260046020908152604090912092909255601180549184166b01000000000000000000000002600160581b600160f81b0319909216919091179055600b54620002d191606491620002bd9160ff88169062001c1a62000544821b17901c565b620005d860201b62001c991790919060201c565b601381905550620002fc6064620002bd8460ff16600b546200054460201b62001c1a1790919060201c565b6014556200031f6103e8620002bd86600162000544602090811b62001c1a17901c565b601555600a546040805163c45a015560e01b815290516001600160a01b0390921691829163c45a0155916004808301926020929190829003018186803b1580156200036957600080fd5b505afa1580156200037e573d6000803e3d6000fd5b505050506040513d601f19601f82011682018060405250810190620003a49190620007ac565b6001600160a01b031663c9c6539630836001600160a01b031663ad5c46486040518163ffffffff1660e01b815260040160206040518083038186803b158015620003ed57600080fd5b505afa15801562000402573d6000803e3d6000fd5b505050506040513d601f19601f82011682018060405250810190620004289190620007ac565b6040516001600160e01b031960e085901b1681526001600160a01b03928316600482015291166024820152604401602060405180830381600087803b1580156200047157600080fd5b505af115801562000486573d6000803e3d6000fd5b505050506040513d601f19601f82011682018060405250810190620004ac9190620007ac565b606090811b6001600160601b031990811660a0529082901b166080526001600160a01b03891660008181526007602090815260408083208054600160ff19918216811790925530855282852080549091169091179055600b5490519081527fddf252ad1be2c89b69c2b068fc378daa952ba7f163c4a11628f55a4df523b3ef910160405180910390a350505050505050505062000a0e565b6000826200055557506000620005d2565b6000620005638385620008f0565b905082620005728583620008d9565b14620005cf5760405162461bcd60e51b815260206004820152602160248201527f536166654d6174683a206d756c7469706c69636174696f6e206f766572666c6f6044820152607760f81b60648201526084015b60405180910390fd5b90505b92915050565b6000620005cf83836040518060400160405280601a81526020017f536166654d6174683a206469766973696f6e206279207a65726f0000000000008152506200062260201b60201c565b60008183620006465760405162461bcd60e51b8152600401620005c69190620008a4565b506000620006558486620008d9565b95945050505050565b8280546200066c906200095f565b90600052602060002090601f016020900481019282620006905760008555620006db565b82601f10620006ab57805160ff1916838001178555620006db565b82800160010185558215620006db579182015b82811115620006db578251825591602001919060010190620006be565b50620006e9929150620006ed565b5090565b5b80821115620006e95760008155600101620006ee565b600082601f8301126200071657600080fd5b81516001600160401b0380821115620007335762000733620009df565b604051601f8301601f19908116603f011681019082821181831017156200075e576200075e620009df565b816040528381528660208588010111156200077857600080fd5b6200078b8460208301602089016200092c565b9695505050505050565b805160ff81168114620007a757600080fd5b919050565b600060208284031215620007bf57600080fd5b8151620005cf81620009f5565b600080600080600080600080610100898b031215620007ea57600080fd5b8851620007f781620009f5565b60208a01519098506001600160401b03808211156200081557600080fd5b620008238c838d0162000704565b985060408b01519150808211156200083a57600080fd5b50620008498b828c0162000704565b9650506200085a60608a0162000795565b9450608089015193506200087160a08a0162000795565b92506200088160c08a0162000795565b915060e08901516200089381620009f5565b809150509295985092959890939650565b6020815260008251806020840152620008c58160408501602087016200092c565b601f01601f19169190910160400192915050565b600082620008eb57620008eb620009c9565b500490565b60008160001904831182151516156200090d576200090d620009b3565b500290565b600082821015620009275762000927620009b3565b500390565b60005b83811015620009495781810151838201526020016200092f565b8381111562000959576000848401525b50505050565b600181811c908216806200097457607f821691505b602082108114156200099657634e487b7160e01b600052602260045260246000fd5b50919050565b600082620009ae57620009ae620009c9565b500690565b634e487b7160e01b600052601160045260246000fd5b634e487b7160e01b600052601260045260246000fd5b634e487b7160e01b600052604160045260246000fd5b6001600160a01b038116811462000a0b57600080fd5b50565b60805160601c60a05160601c6139cf62000a796000396000818161069401528181611ff801526120d70152600081816104b101528181612ba001528181612c6801528181612ca401528181612d1601528181612d7e01528181612e280152612f1901526139cf6000f3fe6080604052600436106103905760003560e01c8063715018a6116101dc578063c0b0fda211610102578063dd467064116100a0578063f25f4b561161006f578063f25f4b5614610ab6578063f2fde38b14610add578063f6a3c9a914610afd578063f887ea4014610b1d57600080fd5b8063dd46706414610a10578063dd62ed3e14610a30578063ea2f0b3714610a76578063efa0880614610a9657600080fd5b8063cbfddf74116100dc578063cbfddf74146109ab578063d12a7688146109c5578063d28d8852146109db578063d543dbeb146109f057600080fd5b8063c0b0fda214610949578063c49b9a801461096a578063c7992f9a1461098a57600080fd5b806395d89b411161017a578063af465a2711610149578063af465a27146108f4578063b09f12661461090a578063b6c523241461091f578063bdc653ef1461093457600080fd5b806395d89b411461088a578063a457c2d71461089f578063a69df4b5146108bf578063a9059cbb146108d457600080fd5b806382d2a4bb116101b657806382d2a4bb146107f357806388f82020146108135780638da5cb5b1461084c57806390d49b9d1461086a57600080fd5b8063715018a6146107a85780637d1db4a5146107bd57806382bf293c146107d357600080fd5b80633bd5d173116102c1578063521432901161025f5780636bc87c3a1161022e5780636bc87c3a146107305780636c0a24eb1461075157806370690b111461076757806370a082311461078857600080fd5b8063521432901461068257806352390c02146106b65780635342acb4146106d657806354ce65781461070f57600080fd5b8063437823ec1161029b578063437823ec146106075780634549b039146106275780634a74bb021461064757806351330a191461066157600080fd5b80633bd5d173146105a55780633c81385c146105c5578063430ca090146105e657600080fd5b80632d6abf871161032e578063324f8dbf11610308578063324f8dbf146105235780633685d4191461054457806339509351146105665780633b124fe71461058657600080fd5b80632d6abf871461049f5780632d838119146104eb578063313ce5671461050b57600080fd5b806315fa749a1161036a57806315fa749a1461041657806318160ddd1461044957806319de79ab1461045e57806323b872dd1461047f57600080fd5b806306fdde031461039c578063095ea7b3146103c757806313114a9d146103f757600080fd5b3661039757005b600080fd5b3480156103a857600080fd5b506103b1610b3d565b6040516103be9190613713565b60405180910390f35b3480156103d357600080fd5b506103e76103e2366004613563565b610bcf565b60405190151581526020016103be565b34801561040357600080fd5b50600d545b6040519081526020016103be565b34801561042257600080fd5b5060035461043790600160c01b900460ff1681565b60405160ff90911681526020016103be565b34801561045557600080fd5b50600b54610408565b34801561046a57600080fd5b5060115461043790600160481b900460ff1681565b34801561048b57600080fd5b506103e761049a366004613522565b610be6565b3480156104ab57600080fd5b506104d37f000000000000000000000000000000000000000000000000000000000000000081565b6040516001600160a01b0390911681526020016103be565b3480156104f757600080fd5b506104086105063660046135c9565b610c4f565b34801561051757600080fd5b5060115460ff16610437565b34801561052f57600080fd5b5060035461043790600160c81b900460ff1681565b34801561055057600080fd5b5061056461055f3660046134af565b610cc5565b005b34801561057257600080fd5b506103e7610581366004613563565b610e6f565b34801561059257600080fd5b5060115461043790610100900460ff1681565b3480156105b157600080fd5b506105646105c03660046135c9565b610ea5565b3480156105d157600080fd5b5060035461043790600160b01b900460ff1681565b3480156105f257600080fd5b5060035461043790600160a01b900460ff1681565b34801561061357600080fd5b506105646106223660046134af565b610f8f565b34801561063357600080fd5b506104086106423660046135e2565b610fdd565b34801561065357600080fd5b506012546103e79060ff1681565b34801561066d57600080fd5b5060035461043790600160b81b900460ff1681565b34801561068e57600080fd5b506104d37f000000000000000000000000000000000000000000000000000000000000000081565b3480156106c257600080fd5b506105646106d13660046134af565b61106a565b3480156106e257600080fd5b506103e76106f13660046134af565b6001600160a01b031660009081526007602052604090205460ff1690565b34801561071b57600080fd5b5060115461043790600160381b900460ff1681565b34801561073c57600080fd5b50601154610437906301000000900460ff1681565b34801561075d57600080fd5b5061040860145481565b34801561077357600080fd5b5060035461043790600160d01b900460ff1681565b34801561079457600080fd5b506104086107a33660046134af565b6111cd565b3480156107b457600080fd5b5061056461122c565b3480156107c957600080fd5b5061040860135481565b3480156107df57600080fd5b506105646107ee3660046135c9565b61128e565b3480156107ff57600080fd5b5061056461080e3660046135c9565b61132d565b34801561081f57600080fd5b506103e761082e3660046134af565b6001600160a01b031660009081526008602052604090205460ff1690565b34801561085857600080fd5b506000546001600160a01b03166104d3565b34801561087657600080fd5b506105646108853660046134af565b61136f565b34801561089657600080fd5b506103b161141f565b3480156108ab57600080fd5b506103e76108ba366004613563565b61142e565b3480156108cb57600080fd5b5061056461147d565b3480156108e057600080fd5b506103e76108ef366004613563565b611596565b34801561090057600080fd5b50610408600b5481565b34801561091657600080fd5b506103b16115a3565b34801561092b57600080fd5b50600254610408565b34801561094057600080fd5b50601654610408565b34801561095557600080fd5b5060115461043790600160281b900460ff1681565b34801561097657600080fd5b5061056461098536600461358f565b611631565b34801561099657600080fd5b5060035461043790600160a81b900460ff1681565b3480156109b757600080fd5b50600e546103e79060ff1681565b3480156109d157600080fd5b5061040860155481565b3480156109e757600080fd5b506103b16116a2565b3480156109fc57600080fd5b50610564610a0b3660046135c9565b6116af565b348015610a1c57600080fd5b50610564610a2b3660046135c9565b611748565b348015610a3c57600080fd5b50610408610a4b3660046134e9565b6001600160a01b03918216600090815260066020908152604080832093909416825291909152205490565b348015610a8257600080fd5b50610564610a913660046134af565b6117cd565b348015610aa257600080fd5b50610564610ab1366004613563565b611818565b348015610ac257600080fd5b506011546104d390600160581b90046001600160a01b031681565b348015610ae957600080fd5b50610564610af83660046134af565b611931565b348015610b0957600080fd5b50610564610b18366004613635565b611a09565b348015610b2957600080fd5b50600a546104d3906001600160a01b031681565b6060600f8054610b4c9061386e565b80601f0160208091040260200160405190810160405280929190818152602001828054610b789061386e565b8015610bc55780601f10610b9a57610100808354040283529160200191610bc5565b820191906000526020600020905b815481529060010190602001808311610ba857829003601f168201915b5050505050905090565b6000610bdc338484611cdb565b5060015b92915050565b6000610bf3848484611de9565b610c458433610c408560405180606001604052806028815260200161392d602891396001600160a01b038a16600090815260066020908152604080832033845290915290205491906121d8565b611cdb565b5060019392505050565b6000600c54821115610ca85760405162461bcd60e51b815260206004820152601e60248201527f416d74206d757374206265206c657373207468616e20746f74207265666c000060448201526064015b60405180910390fd5b6000610cb2612212565b9050610cbe8382611c99565b9392505050565b6000546001600160a01b03163314610cef5760405162461bcd60e51b8152600401610c9f90613768565b6001600160a01b03811660009081526008602052604090205460ff16610d4a5760405162461bcd60e51b815260206004820152601060248201526f105b1c9958591e48195e18db1d59195960821b6044820152606401610c9f565b60005b600954811015610e6b57816001600160a01b031660098281548110610d7457610d746138f0565b6000918252602090912001546001600160a01b03161415610e595760098054610d9f90600190613857565b81548110610daf57610daf6138f0565b600091825260209091200154600980546001600160a01b039092169183908110610ddb57610ddb6138f0565b600091825260208083209190910180546001600160a01b0319166001600160a01b039485161790559184168152600582526040808220829055600890925220805460ff191690556009805480610e3357610e336138da565b600082815260209020810160001990810180546001600160a01b03191690550190555050565b80610e63816138a9565b915050610d4d565b5050565b3360008181526006602090815260408083206001600160a01b03871684529091528120549091610bdc918590610c409086612235565b3360008181526008602052604090205460ff1615610f1a5760405162461bcd60e51b815260206004820152602c60248201527f4578636c75646564206164647265737365732063616e6e6f742063616c6c207460448201526b3434b990333ab731ba34b7b760a11b6064820152608401610c9f565b6000610f2583612294565b505050506001600160a01b038416600090815260046020526040902054919250610f51919050826122e3565b6001600160a01b038316600090815260046020526040902055600c54610f7790826122e3565b600c55600d54610f879084612235565b600d55505050565b6000546001600160a01b03163314610fb95760405162461bcd60e51b8152600401610c9f90613768565b6001600160a01b03166000908152600760205260409020805460ff19166001179055565b6000600b548311156110315760405162461bcd60e51b815260206004820152601c60248201527f416d74206d757374206265206c657373207468616e20737570706c79000000006044820152606401610c9f565b8161105057600061104184612294565b50939550610be0945050505050565b600061105b84612294565b50929550610be0945050505050565b6000546001600160a01b031633146110945760405162461bcd60e51b8152600401610c9f90613768565b6001600160a01b03811660009081526008602052604090205460ff161561110d5760405162461bcd60e51b815260206004820152602760248201527f4163636f756e7420697320616c7265616479206578636c756465642066726f6d604482015266081c995dd85c9960ca1b6064820152608401610c9f565b6001600160a01b03811660009081526004602052604090205415611167576001600160a01b03811660009081526004602052604090205461114d90610c4f565b6001600160a01b0382166000908152600560205260409020555b6001600160a01b03166000818152600860205260408120805460ff191660019081179091556009805491820181559091527f6e1540171b6c0c960b71a7020d9f60077f6af931a8bbf590da0223dacf75c7af0180546001600160a01b0319169091179055565b6001600160a01b03811660009081526008602052604081205460ff161561120a57506001600160a01b031660009081526005602052604090205490565b6001600160a01b038216600090815260046020526040902054610be090610c4f565b6000546001600160a01b031633146112565760405162461bcd60e51b8152600401610c9f90613768565b600080546040516001600160a01b0390911690600080516020613955833981519152908390a3600080546001600160a01b0319169055565b6000546001600160a01b031633146112b85760405162461bcd60e51b8152600401610c9f90613768565b600354600160d01b900460ff1681108015906112d5575060648111155b6113075760405162461bcd60e51b815260206004820152600360248201526232b93960e91b6044820152606401610c9f565b611327606461132183600b54611c1a90919063ffffffff16565b90611c99565b60145550565b6000546001600160a01b031633146113575760405162461bcd60e51b8152600401610c9f90613768565b61136981670de0b6b3a7640000613838565b60165550565b6000546001600160a01b031633146113995760405162461bcd60e51b8152600401610c9f90613768565b6001600160a01b0381166113de5760405162461bcd60e51b815260206004820152600c60248201526b5a45524f204144445245535360a01b6044820152606401610c9f565b601180546001600160a01b03909216600160581b027fff0000000000000000000000000000000000000000ffffffffffffffffffffff909216919091179055565b606060108054610b4c9061386e565b6000610bdc3384610c4085604051806060016040528060258152602001613975602591393360009081526006602090815260408083206001600160a01b038d16845290915290205491906121d8565b6001546001600160a01b031633146114f65760405162461bcd60e51b815260206004820152603660248201527f596f7520646f6e27742068617665207065726d697373696f6e20746f20756e6c6044820152751bd8dac81d1a19481d1bdad95b8818dbdb9d1c9858dd60521b6064820152608401610c9f565b60025442116115475760405162461bcd60e51b815260206004820152601f60248201527f436f6e7472616374206973206c6f636b656420756e74696c20372064617973006044820152606401610c9f565b600154600080546040516001600160a01b03938416939091169160008051602061395583398151915291a3600154600080546001600160a01b0319166001600160a01b03909216919091179055565b6000610bdc338484611de9565b601080546115b09061386e565b80601f01602080910402602001604051908101604052809291908181526020018280546115dc9061386e565b80156116295780601f106115fe57610100808354040283529160200191611629565b820191906000526020600020905b81548152906001019060200180831161160c57829003601f168201915b505050505081565b6000546001600160a01b0316331461165b5760405162461bcd60e51b8152600401610c9f90613768565b6012805460ff19168215159081179091556040519081527f53726dfcaf90650aa7eb35524f4d3220f07413c8d6cb404cc8c18bf5591bc1599060200160405180910390a150565b600f80546115b09061386e565b6000546001600160a01b031633146116d95760405162461bcd60e51b8152600401610c9f90613768565b600354600160c81b900460ff1681108015906116f6575060648111155b6117285760405162461bcd60e51b815260206004820152600360248201526232b93960e91b6044820152606401610c9f565b611742606461132183600b54611c1a90919063ffffffff16565b60135550565b6000546001600160a01b031633146117725760405162461bcd60e51b8152600401610c9f90613768565b60008054600180546001600160a01b03199081166001600160a01b038416179091551690556117a181426137d9565b600255600080546040516001600160a01b0390911690600080516020613955833981519152908390a350565b6000546001600160a01b031633146117f75760405162461bcd60e51b8152600401610c9f90613768565b6001600160a01b03166000908152600760205260409020805460ff19169055565b6000546001600160a01b031633146118425760405162461bcd60e51b8152600401610c9f90613768565b6001600160a01b03821630141561188b5760405162461bcd60e51b815260206004820152600d60248201526c53656c6620776974686472617760981b6044820152606401610c9f565b816001600160a01b031663a9059cbb6118ac6000546001600160a01b031690565b6040516001600160e01b031960e084901b1681526001600160a01b03909116600482015260248101849052604401602060405180830381600087803b1580156118f457600080fd5b505af1158015611908573d6000803e3d6000fd5b505050506040513d601f19601f8201168201806040525081019061192c91906135ac565b505050565b6000546001600160a01b0316331461195b5760405162461bcd60e51b8152600401610c9f90613768565b6001600160a01b0381166119c05760405162461bcd60e51b815260206004820152602660248201527f4f776e61626c653a206e6577206f776e657220697320746865207a65726f206160448201526564647265737360d01b6064820152608401610c9f565b600080546040516001600160a01b038085169392169160008051602061395583398151915291a3600080546001600160a01b0319166001600160a01b0392909216919091179055565b6000546001600160a01b03163314611a335760405162461bcd60e51b8152600401610c9f90613768565b60035460ff600160a81b90910481169086161115611a7c5760405162461bcd60e51b81526020600482015260066024820152652a231032b93960d11b6044820152606401610c9f565b60035460ff600160a01b90910481169085161115611ac55760405162461bcd60e51b815260206004820152600660248201526526231032b93960d11b6044820152606401610c9f565b60035460ff600160b01b90910481169084161115611b0e5760405162461bcd60e51b815260206004820152600660248201526521231032b93960d11b6044820152606401610c9f565b60035460ff600160b81b90910481169083161115611b575760405162461bcd60e51b81526020600482015260066024820152652ba31032b93960d11b6044820152606401610c9f565b60035460ff600160c01b90910481169082161115611ba15760405162461bcd60e51b81526020600482015260076024820152662121231032b93960c91b6044820152606401610c9f565b6011805463ff00ff00191661010060ff9788160263ff0000001916176301000000958716959095029490941769ff000000ff00000000001916600160281b9386169390930260ff60481b191692909217600160481b928516929092029190911760ff60381b1916600160381b9190931602919091179055565b600082611c2957506000610be0565b6000611c358385613838565b905082611c428583613816565b14610cbe5760405162461bcd60e51b815260206004820152602160248201527f536166654d6174683a206d756c7469706c69636174696f6e206f766572666c6f6044820152607760f81b6064820152608401610c9f565b6000610cbe83836040518060400160405280601a81526020017f536166654d6174683a206469766973696f6e206279207a65726f000000000000815250612325565b6001600160a01b038316611d315760405162461bcd60e51b815260206004820181905260248201527f45524332303a20617070726f76652066726f6d207a65726f20616464726573736044820152606401610c9f565b6001600160a01b038216611d875760405162461bcd60e51b815260206004820152601e60248201527f45524332303a20617070726f766520746f207a65726f206164647265737300006044820152606401610c9f565b6001600160a01b0383811660008181526006602090815260408083209487168084529482529182902085905590518481527f8c5be1e5ebec7d5bd14f71427d1e84f3dd0314c0f7b2291e5b200ac8c7c3b92591015b60405180910390a3505050565b6001600160a01b038316611e495760405162461bcd60e51b815260206004820152602160248201527f45524332303a207472616e736665722066726f6d207a65726f206164647265736044820152607360f81b6064820152608401610c9f565b6001600160a01b038216611e9f5760405162461bcd60e51b815260206004820152601f60248201527f45524332303a207472616e7366657220746f207a65726f2061646472657373006044820152606401610c9f565b60008111611f015760405162461bcd60e51b815260206004820152602960248201527f5472616e7366657220616d6f756e74206d7573742062652067726561746572206044820152687468616e207a65726f60b81b6064820152608401610c9f565b6000546001600160a01b03848116911614801590611f2d57506000546001600160a01b03838116911614155b15611f9557601354811115611f955760405162461bcd60e51b815260206004820152602860248201527f5472616e7366657220616d6f756e74206578636565647320746865206d6178546044820152673c20b6b7bab73a1760c11b6064820152608401610c9f565b6000546001600160a01b03848116911614801590611fc157506000546001600160a01b03838116911614155b8015611fd557506001600160a01b03821615155b8015611fef57506003546001600160a01b03838116911614155b801561202d57507f00000000000000000000000000000000000000000000000000000000000000006001600160a01b0316826001600160a01b031614155b1561209d57600061203d836111cd565b60145490915061204d83836137d9565b111561209b5760405162461bcd60e51b815260206004820152601d60248201527f45786365656473206d6178696d756d2077616c6c657420616d6f756e740000006044820152606401610c9f565b505b60006120a8306111cd565b905060135481106120b857506013545b6015546011549082101590600160f81b900460ff1615801561210b57507f00000000000000000000000000000000000000000000000000000000000000006001600160a01b0316846001600160a01b0316145b8015612119575060125460ff165b1561217957801561213257601554915061213282612353565b601154600160481b900460ff16156121795747670de0b6b3a76400008111156121775760165481111561216457506016545b612177612172826064611c99565b612578565b505b6001600160a01b03851660009081526007602052604090205460019060ff16806121bb57506001600160a01b03851660009081526007602052604090205460ff165b156121c4575060005b6121d0868686846125ae565b505050505050565b600081848411156121fc5760405162461bcd60e51b8152600401610c9f9190613713565b5060006122098486613857565b95945050505050565b600080600061221f6127cf565b909250905061222e8282611c99565b9250505090565b60008061224283856137d9565b905083811015610cbe5760405162461bcd60e51b815260206004820152601b60248201527f536166654d6174683a206164646974696f6e206f766572666c6f7700000000006044820152606401610c9f565b60008060008060008060008060006122ab8a612951565b92509250925060008060006122c98d86866122c4612212565b612993565b919f909e50909c50959a5093985091965092945050505050565b6000610cbe83836040518060400160405280601e81526020017f536166654d6174683a207375627472616374696f6e206f766572666c6f7700008152506121d8565b600081836123465760405162461bcd60e51b8152600401610c9f9190613713565b5060006122098486613816565b601180546001600160f81b0316600160f81b1790819055600090600160481b810460ff90811691630100000081048216916123a091600160381b8104821691600160281b909104166137f1565b6123aa91906137f1565b6123b491906137f1565b6011549091506000908190600160281b900460ff1615612413576011546123f59060ff600160281b9091048116906123ef9087908716611c99565b90611c1a565b6003549092506124109030906001600160a01b0316846129e3565b50805b601154600160381b900460ff1615612475576011546124469060ff600160381b9091048116906123ef9087908716611c99565b9150612468306011600b9054906101000a90046001600160a01b0316846129e3565b61247282826137d9565b90505b601154600160481b900460ff16156124c0576011546124a89060ff600160481b9091048116906123ef9087908716611c99565b91506124b382612b49565b6124bd82826137d9565b90505b6011546301000000900460ff1615612563576124dc84826122e3565b935060006124eb856002611c99565b905060006124f986836122e3565b90504761250583612b49565b600061251147836122e3565b905061251d8382612d10565b60408051858152602081018390529081018490527f17bbfb9a6069321b6ded73bd96327c9e6b7212a5cd51ff219cd61370acafb5619060600160405180910390a1505050505b5050601180546001600160f81b031690555050565b601180546001600160f81b0316600160f81b179055801561259c5761259c81612e05565b50601180546001600160f81b03169055565b806125bb576125bb612faa565b6001600160a01b03841660009081526008602052604090205460ff1680156125fc57506001600160a01b03831660009081526008602052604090205460ff16155b156126115761260c8484846130e6565b61270f565b6001600160a01b03841660009081526008602052604090205460ff1615801561265257506001600160a01b03831660009081526008602052604090205460ff165b156126625761260c84848461320c565b6001600160a01b03841660009081526008602052604090205460ff161580156126a457506001600160a01b03831660009081526008602052604090205460ff16155b156126b45761260c8484846132b5565b6001600160a01b03841660009081526008602052604090205460ff1680156126f457506001600160a01b03831660009081526008602052604090205460ff165b156127045761260c8484846132f9565b61270f8484846132b5565b806127c9576011805460ff60481b1967ff00ff00000000001963ff00ff0019831663ff0000001961010062010000860460ff908116919091029182169290921764010000000061ff00199096169091179490940481166301000000029390931790811660ff60381b19660100000000000083048516600160281b0290811691909117600160401b65ff000000000019909316909117919091048316600160381b0217908116600160501b909104909116600160481b021790555b50505050565b600c54600b546000918291825b600954811015612921578260046000600984815481106127fe576127fe6138f0565b60009182526020808320909101546001600160a01b0316835282019290925260400190205411806128695750816005600060098481548110612842576128426138f0565b60009182526020808320909101546001600160a01b03168352820192909252604001902054115b1561287f57600c54600b54945094505050509091565b6128c56004600060098481548110612899576128996138f0565b60009182526020808320909101546001600160a01b0316835282019290925260400190205484906122e3565b925061290d60056000600984815481106128e1576128e16138f0565b60009182526020808320909101546001600160a01b0316835282019290925260400190205483906122e3565b915080612919816138a9565b9150506127dc565b50600b54600c5461293191611c99565b82101561294857600c54600b549350935050509091565b90939092509050565b6000806000806129608561336c565b9050600061296d8661338c565b905060006129858261297f89866122e3565b906122e3565b979296509094509092505050565b60008080806129a28886611c1a565b905060006129b08887611c1a565b905060006129be8888611c1a565b905060006129d08261297f86866122e3565b939b939a50919850919650505050505050565b6001600160a01b038316600090815260046020526040902054612a0690826122e3565b6001600160a01b038085166000908152600460205260408082209390935590841681522054612a359082612235565b6001600160a01b0380841660009081526004602090815260408083209490945591861681526008909152205460ff1615612aa6576001600160a01b038316600090815260056020526040902054612a8c90826122e3565b6001600160a01b0384166000908152600560205260409020555b6001600160a01b03821660009081526008602052604090205460ff1615612b04576001600160a01b038216600090815260056020526040902054612aea9082612235565b6001600160a01b0383166000908152600560205260409020555b816001600160a01b0316836001600160a01b03167fddf252ad1be2c89b69c2b068fc378daa952ba7f163c4a11628f55a4df523b3ef83604051611ddc91815260200190565b6040805160028082526060820183526000926020830190803683370190505090503081600081518110612b7e57612b7e6138f0565b60200260200101906001600160a01b031690816001600160a01b0316815250507f00000000000000000000000000000000000000000000000000000000000000006001600160a01b031663ad5c46486040518163ffffffff1660e01b815260040160206040518083038186803b158015612bf757600080fd5b505afa158015612c0b573d6000803e3d6000fd5b505050506040513d601f19601f82011682018060405250810190612c2f91906134cc565b81600181518110612c4257612c426138f0565b60200260200101906001600160a01b031690816001600160a01b031681525050612c8d307f000000000000000000000000000000000000000000000000000000000000000084611cdb565b60405163791ac94760e01b81526001600160a01b037f0000000000000000000000000000000000000000000000000000000000000000169063791ac94790612ce290859060009086903090429060040161379d565b600060405180830381600087803b158015612cfc57600080fd5b505af11580156121d0573d6000803e3d6000fd5b612d3b307f000000000000000000000000000000000000000000000000000000000000000084611cdb565b60035460405163f305d71960e01b81523060048201526024810184905260006044820181905260648201526001600160a01b0391821660848201524260a48201527f00000000000000000000000000000000000000000000000000000000000000009091169063f305d71990839060c4016060604051808303818588803b158015612dc557600080fd5b505af1158015612dd9573d6000803e3d6000fd5b50505050506040513d601f19601f82011682018060405250810190612dfe9190613607565b5050505050565b6040805160028082526060820183526000926020830190803683370190505090507f00000000000000000000000000000000000000000000000000000000000000006001600160a01b031663ad5c46486040518163ffffffff1660e01b815260040160206040518083038186803b158015612e7f57600080fd5b505afa158015612e93573d6000803e3d6000fd5b505050506040513d601f19601f82011682018060405250810190612eb791906134cc565b81600081518110612eca57612eca6138f0565b60200260200101906001600160a01b031690816001600160a01b0316815250503081600181518110612efe57612efe6138f0565b6001600160a01b0392831660209182029290920101526003547f000000000000000000000000000000000000000000000000000000000000000082169163b6f9de95918591600091869116612f554261012c612235565b6040518663ffffffff1660e01b8152600401612f7494939291906136de565b6000604051808303818588803b158015612f8d57600080fd5b505af1158015612fa1573d6000803e3d6000fd5b50505050505050565b601154610100900460ff16158015612fcc57506011546301000000900460ff16155b8015612fe25750601154600160281b900460ff16155b8015612ff85750601154600160381b900460ff16155b801561300e5750601154600160481b900460ff16155b1561301557565b601180546affff00ff00ff00ff00ff001968ff00ff0000000000001964ff00ff000019831664ff0000000019610100850460ff908116620100000291821692909217630100000062ff000019909616909117949094048116640100000000029390931790811668ff000000000000000019600160281b8304851666010000000000000290811691909117600160381b66ff00000000000019909316909117919091048316600160401b0217908116600160481b909104909116600160501b0269ff00ff00ff00ff00ff001916179055565b6000806000806000806130f887612294565b6001600160a01b038f16600090815260056020526040902054959b5093995091975095509350915061312a90886122e3565b6001600160a01b038a1660009081526005602090815260408083209390935560049052205461315990876122e3565b6001600160a01b03808b1660009081526004602052604080822093909355908a16815220546131889086612235565b6001600160a01b0389166000908152600460205260409020556131aa816133ed565b6131b48483613475565b876001600160a01b0316896001600160a01b03167fddf252ad1be2c89b69c2b068fc378daa952ba7f163c4a11628f55a4df523b3ef856040516131f991815260200190565b60405180910390a3505050505050505050565b60008060008060008061321e87612294565b6001600160a01b038f16600090815260046020526040902054959b5093995091975095509350915061325090876122e3565b6001600160a01b03808b16600090815260046020908152604080832094909455918b168152600590915220546132869084612235565b6001600160a01b0389166000908152600560209081526040808320939093556004905220546131889086612235565b6000806000806000806132c787612294565b6001600160a01b038f16600090815260046020526040902054959b5093995091975095509350915061315990876122e3565b60008060008060008061330b87612294565b6001600160a01b038f16600090815260056020526040902054959b5093995091975095509350915061333d90886122e3565b6001600160a01b038a1660009081526005602090815260408083209390935560049052205461325090876122e3565b601154600090610be090606490611321908590610100900460ff16611c1a565b601154600090610be0906064906113219060ff600160481b8204811691600160381b81048216916133cf91600160281b81048216916301000000909104166137f1565b6133d991906137f1565b6133e391906137f1565b859060ff16611c1a565b60006133f7612212565b905060006134058383611c1a565b306000908152600460205260409020549091506134229082612235565b3060009081526004602090815260408083209390935560089052205460ff161561192c57306000908152600560205260409020546134609084612235565b30600090815260056020526040902055505050565b600c5461348290836122e3565b600c55600d546134929082612235565b600d555050565b803560ff811681146134aa57600080fd5b919050565b6000602082840312156134c157600080fd5b8135610cbe81613906565b6000602082840312156134de57600080fd5b8151610cbe81613906565b600080604083850312156134fc57600080fd5b823561350781613906565b9150602083013561351781613906565b809150509250929050565b60008060006060848603121561353757600080fd5b833561354281613906565b9250602084013561355281613906565b929592945050506040919091013590565b6000806040838503121561357657600080fd5b823561358181613906565b946020939093013593505050565b6000602082840312156135a157600080fd5b8135610cbe8161391e565b6000602082840312156135be57600080fd5b8151610cbe8161391e565b6000602082840312156135db57600080fd5b5035919050565b600080604083850312156135f557600080fd5b8235915060208301356135178161391e565b60008060006060848603121561361c57600080fd5b8351925060208401519150604084015190509250925092565b600080600080600060a0868803121561364d57600080fd5b61365686613499565b945061366460208701613499565b935061367260408701613499565b925061368060608701613499565b915061368e60808701613499565b90509295509295909350565b600081518084526020808501945080840160005b838110156136d35781516001600160a01b0316875295820195908201906001016136ae565b509495945050505050565b8481526080602082015260006136f7608083018661369a565b6001600160a01b03949094166040830152506060015292915050565b600060208083528351808285015260005b8181101561374057858101830151858201604001528201613724565b81811115613752576000604083870101525b50601f01601f1916929092016040019392505050565b6020808252818101527f4f776e61626c653a2063616c6c6572206973206e6f7420746865206f776e6572604082015260600190565b85815284602082015260a0604082015260006137bc60a083018661369a565b6001600160a01b0394909416606083015250608001529392505050565b600082198211156137ec576137ec6138c4565b500190565b600060ff821660ff84168060ff0382111561380e5761380e6138c4565b019392505050565b60008261383357634e487b7160e01b600052601260045260246000fd5b500490565b6000816000190483118215151615613852576138526138c4565b500290565b600082821015613869576138696138c4565b500390565b600181811c9082168061388257607f821691505b602082108114156138a357634e487b7160e01b600052602260045260246000fd5b50919050565b60006000198214156138bd576138bd6138c4565b5060010190565b634e487b7160e01b600052601160045260246000fd5b634e487b7160e01b600052603160045260246000fd5b634e487b7160e01b600052603260045260246000fd5b6001600160a01b038116811461391b57600080fd5b50565b801515811461391b57600080fdfe45524332303a207472616e7366657220616d6f756e74206578636565647320616c6c6f77616e63658be0079c531659141344cd1fd0a4f28419497f9722a3daafe3b4186f6b6457e045524332303a2064656372656173656420616c6c6f77616e63652062656c6f77207a65726fa2646970667358221220cc50070e9df1deb34ee1d8c740496052a132727c1f93e13fb3435811915141aa64736f6c634300080600338be0079c531659141344cd1fd0a4f28419497f9722a3daafe3b4186f6b6457e0a2646970667358221220fffadd216bed77ad4a101b475fccf3562aec3d7034afc8b3d6706f0cbd1402db64736f6c63430008060033",
  "immutableReferences": {},
  "source": "// SPDX-License-Identifier: MIT\n\nimport \"./Token.sol\";\npragma solidity 0.8.6;\n\n\ncontract TokenCreator is Ownable {\n    event TokenCreated(bool enabled);\n\n    /*\n    function createNewToken(address tokenOwner,\n        string memory tokenName,\n        string memory tokenSymbol,\n        uint8 decimal,\n        uint256 amountOfTokenWei,\n        uint8 TxFeePercentToHolders,\n        uint8 TxFeePercentToLP,\n        uint8 TxFeePercentToBurned,\n        uint8 TxFeePercentToWallet,\n        uint8 TxFeePercentToBuybackTokens,\n        uint8 MaxWalletPercent,\n        uint8 MaxTxPercent,\n        address payable _feeWallet) public payable {\n\n\n            */\n\n    /*\n    addreses[0] tokenOwner\n    addreses[1]_feeWallet\n\n    -- params\n    MaxTxPercent\n    MaxWalletPercent\n    TxFeePercentToHolders\n    TxFeePercentToLP\n    TxFeePercentToBurned\n    TxFeePercentToWallet\n    TxFeePercentToBuybackTokens\n    */\n\n    function createNewToken(\n        address[] memory addreses,\n        string memory tokenName,\n        string memory tokenSymbol,\n        uint256 amountOfTokenWei,\n        uint8 decimal,\n        uint8[] memory params\n    ) public payable {\n\n\n        //require(msg.value == 200000000000000000, \"createNewToken: send value must be equal 0.2 ETH.\");\n\n\n        Token newToken = new Token(addreses[0], tokenName, tokenSymbol, decimal, amountOfTokenWei, params[0], params[1], payable(addreses[1]));\n        newToken.setAllFeePercent(params[2],params[3],params[4],params[5],params[6]);\n\n        emit TokenCreated(true);\n    }\n\n    function withdraw(uint256 amount) public onlyOwner {\n        payable(owner()).transfer(amount);\n    }\n\n    function withdrawAll() public onlyOwner {\n        payable(owner()).transfer(address(this).balance);\n    }\n\n    fallback() external payable {\n        // custom function code\n    }\n\n    receive() external payable {\n        // custom function code\n    }\n}\n",
  "sourcePath": "/Users/lie/Desktop/tokenCreatorDeploy/contracts/TokenCreator.sol",
  "compiler": {
    "name": "solc",
    "version": "0.8.6+commit.11564f7e.Emscripten.clang"
  },
  "schemaVersion": "3.3.4",
  "updatedAt": "2021-08-04T19:08:35.844Z",
  "devdoc": {
    "kind": "dev",
    "methods": {
      "owner()": {
        "details": "Returns the address of the current owner."
      },
      "renounceOwnership()": {
        "details": "Leaves the contract without owner. It will not be possible to call `onlyOwner` functions anymore. Can only be called by the current owner. NOTE: Renouncing ownership will leave the contract without an owner, thereby removing any functionality that is only available to the owner."
      },
      "transferOwnership(address)": {
        "details": "Transfers ownership of the contract to a new account (`newOwner`). Can only be called by the current owner."
      }
    },
    "version": 1
  },
  "userdoc": {
    "kind": "user",
    "methods": {},
    "version": 1
  }
}